{
	"contracts/CarLoan/User.sol": {
		"User": {
			"abi": [
				{
					"inputs": [],
					"stateMutability": "nonpayable",
					"type": "constructor"
				},
				{
					"inputs": [],
					"name": "owner",
					"outputs": [
						{
							"internalType": "address",
							"name": "",
							"type": "address"
						}
					],
					"stateMutability": "view",
					"type": "function"
				},
				{
					"inputs": [],
					"name": "pay",
					"outputs": [
						{
							"internalType": "bool",
							"name": "",
							"type": "bool"
						}
					],
					"stateMutability": "payable",
					"type": "function"
				}
			],
			"devdoc": {
				"kind": "dev",
				"methods": {},
				"version": 1
			},
			"evm": {
				"assembly": "    /* \"contracts/CarLoan/User.sol\":56:343  contract User{\r... */\n  mstore(0x40, 0x80)\n    /* \"contracts/CarLoan/User.sol\":103:154  constructor(){\r... */\n  callvalue\n  dup1\n  iszero\n  tag_1\n  jumpi\n  0x00\n  dup1\n  revert\ntag_1:\n  pop\n    /* \"contracts/CarLoan/User.sol\":135:145  msg.sender */\n  caller\n    /* \"contracts/CarLoan/User.sol\":127:132  owner */\n  0x00\n  dup1\n    /* \"contracts/CarLoan/User.sol\":127:146  owner= (msg.sender) */\n  0x0100\n  exp\n  dup2\n  sload\n  dup2\n  0xffffffffffffffffffffffffffffffffffffffff\n  mul\n  not\n  and\n  swap1\n  dup4\n  0xffffffffffffffffffffffffffffffffffffffff\n  and\n  mul\n  or\n  swap1\n  sstore\n  pop\n    /* \"contracts/CarLoan/User.sol\":56:343  contract User{\r... */\n  dataSize(sub_0)\n  dup1\n  dataOffset(sub_0)\n  0x00\n  codecopy\n  0x00\n  return\nstop\n\nsub_0: assembly {\n        /* \"contracts/CarLoan/User.sol\":56:343  contract User{\r... */\n      mstore(0x40, 0x80)\n      jumpi(tag_1, lt(calldatasize, 0x04))\n      shr(0xe0, calldataload(0x00))\n      dup1\n      0x1b9265b8\n      eq\n      tag_2\n      jumpi\n      dup1\n      0x8da5cb5b\n      eq\n      tag_3\n      jumpi\n    tag_1:\n      0x00\n      dup1\n      revert\n        /* \"contracts/CarLoan/User.sol\":162:340  function pay() public payable returns(bool){\r... */\n    tag_2:\n      tag_4\n      tag_5\n      jump\t// in\n    tag_4:\n      mload(0x40)\n      tag_6\n      swap2\n      swap1\n      tag_7\n      jump\t// in\n    tag_6:\n      mload(0x40)\n      dup1\n      swap2\n      sub\n      swap1\n      return\n        /* \"contracts/CarLoan/User.sol\":76:96  address public owner */\n    tag_3:\n      callvalue\n      dup1\n      iszero\n      tag_8\n      jumpi\n      0x00\n      dup1\n      revert\n    tag_8:\n      pop\n      tag_9\n      tag_10\n      jump\t// in\n    tag_9:\n      mload(0x40)\n      tag_11\n      swap2\n      swap1\n      tag_12\n      jump\t// in\n    tag_11:\n      mload(0x40)\n      dup1\n      swap2\n      sub\n      swap1\n      return\n        /* \"contracts/CarLoan/User.sol\":162:340  function pay() public payable returns(bool){\r... */\n    tag_5:\n        /* \"contracts/CarLoan/User.sol\":200:204  bool */\n      0x00\n        /* \"contracts/CarLoan/User.sol\":232:239  2 ether */\n      0x1bc16d674ec80000\n        /* \"contracts/CarLoan/User.sol\":220:229  msg.value */\n      callvalue\n        /* \"contracts/CarLoan/User.sol\":219:239  (msg.value)>=2 ether */\n      lt\n        /* \"contracts/CarLoan/User.sol\":216:333  if((msg.value)>=2 ether){\r... */\n      tag_14\n      jumpi\n        /* \"contracts/CarLoan/User.sol\":262:266  true */\n      0x01\n        /* \"contracts/CarLoan/User.sol\":255:266  return true */\n      swap1\n      pop\n      jump(tag_13)\n        /* \"contracts/CarLoan/User.sol\":216:333  if((msg.value)>=2 ether){\r... */\n    tag_14:\n        /* \"contracts/CarLoan/User.sol\":316:321  false */\n      0x00\n        /* \"contracts/CarLoan/User.sol\":309:321  return false */\n      swap1\n      pop\n        /* \"contracts/CarLoan/User.sol\":162:340  function pay() public payable returns(bool){\r... */\n    tag_13:\n      swap1\n      jump\t// out\n        /* \"contracts/CarLoan/User.sol\":76:96  address public owner */\n    tag_10:\n      0x00\n      dup1\n      sload\n      swap1\n      0x0100\n      exp\n      swap1\n      div\n      0xffffffffffffffffffffffffffffffffffffffff\n      and\n      dup2\n      jump\t// out\n        /* \"#utility.yul\":7:125   */\n    tag_17:\n        /* \"#utility.yul\":94:118   */\n      tag_19\n        /* \"#utility.yul\":112:117   */\n      dup2\n        /* \"#utility.yul\":94:118   */\n      tag_20\n      jump\t// in\n    tag_19:\n        /* \"#utility.yul\":89:92   */\n      dup3\n        /* \"#utility.yul\":82:119   */\n      mstore\n        /* \"#utility.yul\":7:125   */\n      pop\n      pop\n      jump\t// out\n        /* \"#utility.yul\":131:240   */\n    tag_21:\n        /* \"#utility.yul\":212:233   */\n      tag_23\n        /* \"#utility.yul\":227:232   */\n      dup2\n        /* \"#utility.yul\":212:233   */\n      tag_24\n      jump\t// in\n    tag_23:\n        /* \"#utility.yul\":207:210   */\n      dup3\n        /* \"#utility.yul\":200:234   */\n      mstore\n        /* \"#utility.yul\":131:240   */\n      pop\n      pop\n      jump\t// out\n        /* \"#utility.yul\":246:468   */\n    tag_12:\n        /* \"#utility.yul\":339:343   */\n      0x00\n        /* \"#utility.yul\":377:379   */\n      0x20\n        /* \"#utility.yul\":366:375   */\n      dup3\n        /* \"#utility.yul\":362:380   */\n      add\n        /* \"#utility.yul\":354:380   */\n      swap1\n      pop\n        /* \"#utility.yul\":390:461   */\n      tag_26\n        /* \"#utility.yul\":458:459   */\n      0x00\n        /* \"#utility.yul\":447:456   */\n      dup4\n        /* \"#utility.yul\":443:460   */\n      add\n        /* \"#utility.yul\":434:440   */\n      dup5\n        /* \"#utility.yul\":390:461   */\n      tag_17\n      jump\t// in\n    tag_26:\n        /* \"#utility.yul\":246:468   */\n      swap3\n      swap2\n      pop\n      pop\n      jump\t// out\n        /* \"#utility.yul\":474:684   */\n    tag_7:\n        /* \"#utility.yul\":561:565   */\n      0x00\n        /* \"#utility.yul\":599:601   */\n      0x20\n        /* \"#utility.yul\":588:597   */\n      dup3\n        /* \"#utility.yul\":584:602   */\n      add\n        /* \"#utility.yul\":576:602   */\n      swap1\n      pop\n        /* \"#utility.yul\":612:677   */\n      tag_28\n        /* \"#utility.yul\":674:675   */\n      0x00\n        /* \"#utility.yul\":663:672   */\n      dup4\n        /* \"#utility.yul\":659:676   */\n      add\n        /* \"#utility.yul\":650:656   */\n      dup5\n        /* \"#utility.yul\":612:677   */\n      tag_21\n      jump\t// in\n    tag_28:\n        /* \"#utility.yul\":474:684   */\n      swap3\n      swap2\n      pop\n      pop\n      jump\t// out\n        /* \"#utility.yul\":690:786   */\n    tag_20:\n        /* \"#utility.yul\":727:734   */\n      0x00\n        /* \"#utility.yul\":756:780   */\n      tag_30\n        /* \"#utility.yul\":774:779   */\n      dup3\n        /* \"#utility.yul\":756:780   */\n      tag_31\n      jump\t// in\n    tag_30:\n        /* \"#utility.yul\":745:780   */\n      swap1\n      pop\n        /* \"#utility.yul\":690:786   */\n      swap2\n      swap1\n      pop\n      jump\t// out\n        /* \"#utility.yul\":792:882   */\n    tag_24:\n        /* \"#utility.yul\":826:833   */\n      0x00\n        /* \"#utility.yul\":869:874   */\n      dup2\n        /* \"#utility.yul\":862:875   */\n      iszero\n        /* \"#utility.yul\":855:876   */\n      iszero\n        /* \"#utility.yul\":844:876   */\n      swap1\n      pop\n        /* \"#utility.yul\":792:882   */\n      swap2\n      swap1\n      pop\n      jump\t// out\n        /* \"#utility.yul\":888:1014   */\n    tag_31:\n        /* \"#utility.yul\":925:932   */\n      0x00\n        /* \"#utility.yul\":965:1007   */\n      0xffffffffffffffffffffffffffffffffffffffff\n        /* \"#utility.yul\":958:963   */\n      dup3\n        /* \"#utility.yul\":954:1008   */\n      and\n        /* \"#utility.yul\":943:1008   */\n      swap1\n      pop\n        /* \"#utility.yul\":888:1014   */\n      swap2\n      swap1\n      pop\n      jump\t// out\n\n    auxdata: 0xa264697066735822122048ed6978fa5f79e14af3f7d2626354a4edfe274cdbfed9f8ff7dba3b4343ad0064736f6c63430008070033\n}\n",
				"bytecode": {
					"linkReferences": {},
					"object": "608060405234801561001057600080fd5b50336000806101000a81548173ffffffffffffffffffffffffffffffffffffffff021916908373ffffffffffffffffffffffffffffffffffffffff160217905550610185806100606000396000f3fe6080604052600436106100295760003560e01c80631b9265b81461002e5780638da5cb5b1461004c575b600080fd5b610036610077565b60405161004391906100f6565b60405180910390f35b34801561005857600080fd5b50610061610099565b60405161006e91906100db565b60405180910390f35b6000671bc16d674ec8000034106100915760019050610096565b600090505b90565b60008054906101000a900473ffffffffffffffffffffffffffffffffffffffff1681565b6100c681610111565b82525050565b6100d581610123565b82525050565b60006020820190506100f060008301846100bd565b92915050565b600060208201905061010b60008301846100cc565b92915050565b600061011c8261012f565b9050919050565b60008115159050919050565b600073ffffffffffffffffffffffffffffffffffffffff8216905091905056fea264697066735822122048ed6978fa5f79e14af3f7d2626354a4edfe274cdbfed9f8ff7dba3b4343ad0064736f6c63430008070033",
					"opcodes": "PUSH1 0x80 PUSH1 0x40 MSTORE CALLVALUE DUP1 ISZERO PUSH2 0x10 JUMPI PUSH1 0x0 DUP1 REVERT JUMPDEST POP CALLER PUSH1 0x0 DUP1 PUSH2 0x100 EXP DUP2 SLOAD DUP2 PUSH20 0xFFFFFFFFFFFFFFFFFFFFFFFFFFFFFFFFFFFFFFFF MUL NOT AND SWAP1 DUP4 PUSH20 0xFFFFFFFFFFFFFFFFFFFFFFFFFFFFFFFFFFFFFFFF AND MUL OR SWAP1 SSTORE POP PUSH2 0x185 DUP1 PUSH2 0x60 PUSH1 0x0 CODECOPY PUSH1 0x0 RETURN INVALID PUSH1 0x80 PUSH1 0x40 MSTORE PUSH1 0x4 CALLDATASIZE LT PUSH2 0x29 JUMPI PUSH1 0x0 CALLDATALOAD PUSH1 0xE0 SHR DUP1 PUSH4 0x1B9265B8 EQ PUSH2 0x2E JUMPI DUP1 PUSH4 0x8DA5CB5B EQ PUSH2 0x4C JUMPI JUMPDEST PUSH1 0x0 DUP1 REVERT JUMPDEST PUSH2 0x36 PUSH2 0x77 JUMP JUMPDEST PUSH1 0x40 MLOAD PUSH2 0x43 SWAP2 SWAP1 PUSH2 0xF6 JUMP JUMPDEST PUSH1 0x40 MLOAD DUP1 SWAP2 SUB SWAP1 RETURN JUMPDEST CALLVALUE DUP1 ISZERO PUSH2 0x58 JUMPI PUSH1 0x0 DUP1 REVERT JUMPDEST POP PUSH2 0x61 PUSH2 0x99 JUMP JUMPDEST PUSH1 0x40 MLOAD PUSH2 0x6E SWAP2 SWAP1 PUSH2 0xDB JUMP JUMPDEST PUSH1 0x40 MLOAD DUP1 SWAP2 SUB SWAP1 RETURN JUMPDEST PUSH1 0x0 PUSH8 0x1BC16D674EC80000 CALLVALUE LT PUSH2 0x91 JUMPI PUSH1 0x1 SWAP1 POP PUSH2 0x96 JUMP JUMPDEST PUSH1 0x0 SWAP1 POP JUMPDEST SWAP1 JUMP JUMPDEST PUSH1 0x0 DUP1 SLOAD SWAP1 PUSH2 0x100 EXP SWAP1 DIV PUSH20 0xFFFFFFFFFFFFFFFFFFFFFFFFFFFFFFFFFFFFFFFF AND DUP2 JUMP JUMPDEST PUSH2 0xC6 DUP2 PUSH2 0x111 JUMP JUMPDEST DUP3 MSTORE POP POP JUMP JUMPDEST PUSH2 0xD5 DUP2 PUSH2 0x123 JUMP JUMPDEST DUP3 MSTORE POP POP JUMP JUMPDEST PUSH1 0x0 PUSH1 0x20 DUP3 ADD SWAP1 POP PUSH2 0xF0 PUSH1 0x0 DUP4 ADD DUP5 PUSH2 0xBD JUMP JUMPDEST SWAP3 SWAP2 POP POP JUMP JUMPDEST PUSH1 0x0 PUSH1 0x20 DUP3 ADD SWAP1 POP PUSH2 0x10B PUSH1 0x0 DUP4 ADD DUP5 PUSH2 0xCC JUMP JUMPDEST SWAP3 SWAP2 POP POP JUMP JUMPDEST PUSH1 0x0 PUSH2 0x11C DUP3 PUSH2 0x12F JUMP JUMPDEST SWAP1 POP SWAP2 SWAP1 POP JUMP JUMPDEST PUSH1 0x0 DUP2 ISZERO ISZERO SWAP1 POP SWAP2 SWAP1 POP JUMP JUMPDEST PUSH1 0x0 PUSH20 0xFFFFFFFFFFFFFFFFFFFFFFFFFFFFFFFFFFFFFFFF DUP3 AND SWAP1 POP SWAP2 SWAP1 POP JUMP INVALID LOG2 PUSH5 0x6970667358 0x22 SLT KECCAK256 BASEFEE 0xED PUSH10 0x78FA5F79E14AF3F7D262 PUSH4 0x54A4EDFE 0x27 0x4C 0xDB INVALID 0xD9 0xF8 SELFDESTRUCT PUSH30 0xBA3B4343AD0064736F6C6343000807003300000000000000000000000000 "
				},
				"gasEstimates": {
					"creation": {
						"codeDepositCost": "77800",
						"executionCost": "24395",
						"totalCost": "102195"
					},
					"external": {
						"owner()": "2511",
						"pay()": "330"
					}
				},
				"methodIdentifiers": {
					"owner()": "8da5cb5b",
					"pay()": "1b9265b8"
				}
			},
			"storageLayout": {
				"storage": [
					{
						"astId": 3,
						"contract": "contracts/CarLoan/User.sol:User",
						"label": "owner",
						"offset": 0,
						"slot": "0",
						"type": "t_address"
					}
				],
				"types": {
					"t_address": {
						"encoding": "inplace",
						"label": "address",
						"numberOfBytes": "20"
					}
				}
			},
			"userdoc": {
				"kind": "user",
				"methods": {},
				"version": 1
			}
		}
	}
}