{
	"contracts/CarLoan/User.sol": {
		"User": {
			"abi": [
				{
					"inputs": [
						{
							"internalType": "address",
							"name": "",
							"type": "address"
						}
					],
					"name": "allot",
					"outputs": [
						{
							"internalType": "uint256",
							"name": "",
							"type": "uint256"
						}
					],
					"stateMutability": "view",
					"type": "function"
				},
				{
					"inputs": [],
					"name": "client",
					"outputs": [
						{
							"internalType": "address payable",
							"name": "",
							"type": "address"
						}
					],
					"stateMutability": "view",
					"type": "function"
				},
				{
					"inputs": [],
					"name": "currentStatus",
					"outputs": [
						{
							"internalType": "bool",
							"name": "",
							"type": "bool"
						}
					],
					"stateMutability": "view",
					"type": "function"
				},
				{
					"inputs": [],
					"name": "pay",
					"outputs": [],
					"stateMutability": "payable",
					"type": "function"
				}
			],
			"devdoc": {
				"kind": "dev",
				"methods": {},
				"version": 1
			},
			"evm": {
				"assembly": "    /* \"contracts/CarLoan/User.sol\":56:989  contract User{\r... */\n  mstore(0x40, 0x80)\n    /* \"contracts/CarLoan/User.sol\":211:216  false */\n  0x00\n    /* \"contracts/CarLoan/User.sol\":185:216  bool public currentStatus=false */\n  dup1\n  exp(0x0100, 0x14)\n  dup2\n  sload\n  dup2\n  0xff\n  mul\n  not\n  and\n  swap1\n  dup4\n  iszero\n  iszero\n  mul\n  or\n  swap1\n  sstore\n  pop\n    /* \"contracts/CarLoan/User.sol\":56:989  contract User{\r... */\n  callvalue\n  dup1\n  iszero\n  tag_1\n  jumpi\n  0x00\n  dup1\n  revert\ntag_1:\n  pop\n  dataSize(sub_0)\n  dup1\n  dataOffset(sub_0)\n  0x00\n  codecopy\n  0x00\n  return\nstop\n\nsub_0: assembly {\n        /* \"contracts/CarLoan/User.sol\":56:989  contract User{\r... */\n      mstore(0x40, 0x80)\n      jumpi(tag_1, lt(calldatasize, 0x04))\n      shr(0xe0, calldataload(0x00))\n      dup1\n      0x109e94cf\n      eq\n      tag_2\n      jumpi\n      dup1\n      0x1b9265b8\n      eq\n      tag_3\n      jumpi\n      dup1\n      0x3ba5172d\n      eq\n      tag_4\n      jumpi\n      dup1\n      0xef8a9235\n      eq\n      tag_5\n      jumpi\n    tag_1:\n      0x00\n      dup1\n      revert\n        /* \"contracts/CarLoan/User.sol\":148:178  address payable public  client */\n    tag_2:\n      callvalue\n      dup1\n      iszero\n      tag_6\n      jumpi\n      0x00\n      dup1\n      revert\n    tag_6:\n      pop\n      tag_7\n      tag_8\n      jump\t// in\n    tag_7:\n      mload(0x40)\n      tag_9\n      swap2\n      swap1\n      tag_10\n      jump\t// in\n    tag_9:\n      mload(0x40)\n      dup1\n      swap2\n      sub\n      swap1\n      return\n        /* \"contracts/CarLoan/User.sol\":677:986  function pay() public payable \r... */\n    tag_3:\n      tag_11\n      tag_12\n      jump\t// in\n    tag_11:\n      stop\n        /* \"contracts/CarLoan/User.sol\":301:339  mapping(address=>uint256) public allot */\n    tag_4:\n      callvalue\n      dup1\n      iszero\n      tag_13\n      jumpi\n      0x00\n      dup1\n      revert\n    tag_13:\n      pop\n      tag_14\n      0x04\n      dup1\n      calldatasize\n      sub\n      dup2\n      add\n      swap1\n      tag_15\n      swap2\n      swap1\n      tag_16\n      jump\t// in\n    tag_15:\n      tag_17\n      jump\t// in\n    tag_14:\n      mload(0x40)\n      tag_18\n      swap2\n      swap1\n      tag_19\n      jump\t// in\n    tag_18:\n      mload(0x40)\n      dup1\n      swap2\n      sub\n      swap1\n      return\n        /* \"contracts/CarLoan/User.sol\":185:216  bool public currentStatus=false */\n    tag_5:\n      callvalue\n      dup1\n      iszero\n      tag_20\n      jumpi\n      0x00\n      dup1\n      revert\n    tag_20:\n      pop\n      tag_21\n      tag_22\n      jump\t// in\n    tag_21:\n      mload(0x40)\n      tag_23\n      swap2\n      swap1\n      tag_24\n      jump\t// in\n    tag_23:\n      mload(0x40)\n      dup1\n      swap2\n      sub\n      swap1\n      return\n        /* \"contracts/CarLoan/User.sol\":148:178  address payable public  client */\n    tag_8:\n      0x00\n      dup1\n      sload\n      swap1\n      0x0100\n      exp\n      swap1\n      div\n      0xffffffffffffffffffffffffffffffffffffffff\n      and\n      dup2\n      jump\t// out\n        /* \"contracts/CarLoan/User.sol\":677:986  function pay() public payable \r... */\n    tag_12:\n        /* \"contracts/CarLoan/User.sol\":406:411  false */\n      0x00\n        /* \"contracts/CarLoan/User.sol\":391:411  currentStatus==false */\n      iszero\n      iszero\n        /* \"contracts/CarLoan/User.sol\":391:404  currentStatus */\n      0x00\n      0x14\n      swap1\n      sload\n      swap1\n      0x0100\n      exp\n      swap1\n      div\n      0xff\n      and\n        /* \"contracts/CarLoan/User.sol\":391:411  currentStatus==false */\n      iszero\n      iszero\n      eq\n        /* \"contracts/CarLoan/User.sol\":383:430  require(currentStatus==false,\"already Alloted\") */\n      tag_26\n      jumpi\n      mload(0x40)\n      0x08c379a000000000000000000000000000000000000000000000000000000000\n      dup2\n      mstore\n      0x04\n      add\n      tag_27\n      swap1\n      tag_28\n      jump\t// in\n    tag_27:\n      mload(0x40)\n      dup1\n      swap2\n      sub\n      swap1\n      revert\n    tag_26:\n        /* \"contracts/CarLoan/User.sol\":507:514  2 ether */\n      0x1bc16d674ec80000\n        /* \"contracts/CarLoan/User.sol\":497:506  msg.value */\n      callvalue\n        /* \"contracts/CarLoan/User.sol\":497:514  msg.value>2 ether */\n      gt\n        /* \"contracts/CarLoan/User.sol\":489:540  require(msg.value>2 ether,\"Need more than 2 ether\") */\n      tag_30\n      jumpi\n      mload(0x40)\n      0x08c379a000000000000000000000000000000000000000000000000000000000\n      dup2\n      mstore\n      0x04\n      add\n      tag_31\n      swap1\n      tag_32\n      jump\t// in\n    tag_31:\n      mload(0x40)\n      dup1\n      swap2\n      sub\n      swap1\n      revert\n    tag_30:\n        /* \"contracts/CarLoan/User.sol\":623:626  0x0 */\n      0x00\n        /* \"contracts/CarLoan/User.sol\":607:627  client!=address(0x0) */\n      0xffffffffffffffffffffffffffffffffffffffff\n      and\n        /* \"contracts/CarLoan/User.sol\":607:613  client */\n      0x00\n      dup1\n      sload\n      swap1\n      0x0100\n      exp\n      swap1\n      div\n      0xffffffffffffffffffffffffffffffffffffffff\n      and\n        /* \"contracts/CarLoan/User.sol\":607:627  client!=address(0x0) */\n      0xffffffffffffffffffffffffffffffffffffffff\n      and\n      eq\n      iszero\n        /* \"contracts/CarLoan/User.sol\":599:649  require(client!=address(0x0),\"Enter Client first\") */\n      tag_34\n      jumpi\n      mload(0x40)\n      0x08c379a000000000000000000000000000000000000000000000000000000000\n      dup2\n      mstore\n      0x04\n      add\n      tag_35\n      swap1\n      tag_36\n      jump\t// in\n    tag_35:\n      mload(0x40)\n      dup1\n      swap2\n      sub\n      swap1\n      revert\n    tag_34:\n        /* \"contracts/CarLoan/User.sol\":800:807  2 ether */\n      0x1bc16d674ec80000\n        /* \"contracts/CarLoan/User.sol\":788:797  msg.value */\n      callvalue\n        /* \"contracts/CarLoan/User.sol\":787:807  (msg.value)>=2 ether */\n      lt\n        /* \"contracts/CarLoan/User.sol\":784:979  if((msg.value)>=2 ether){\r... */\n      tag_38\n      jumpi\n        /* \"contracts/CarLoan/User.sol\":838:842  true */\n      0x01\n        /* \"contracts/CarLoan/User.sol\":824:837  currentStatus */\n      0x00\n      0x14\n        /* \"contracts/CarLoan/User.sol\":824:842  currentStatus=true */\n      0x0100\n      exp\n      dup2\n      sload\n      dup2\n      0xff\n      mul\n      not\n      and\n      swap1\n      dup4\n      iszero\n      iszero\n      mul\n      or\n      swap1\n      sstore\n      pop\n        /* \"contracts/CarLoan/User.sol\":872:881  msg.value */\n      callvalue\n        /* \"contracts/CarLoan/User.sol\":858:863  allot */\n      0x01\n        /* \"contracts/CarLoan/User.sol\":858:871  allot[client] */\n      0x00\n        /* \"contracts/CarLoan/User.sol\":864:870  client */\n      dup1\n      0x00\n      swap1\n      sload\n      swap1\n      0x0100\n      exp\n      swap1\n      div\n      0xffffffffffffffffffffffffffffffffffffffff\n      and\n        /* \"contracts/CarLoan/User.sol\":858:871  allot[client] */\n      0xffffffffffffffffffffffffffffffffffffffff\n      and\n      0xffffffffffffffffffffffffffffffffffffffff\n      and\n      dup2\n      mstore\n      0x20\n      add\n      swap1\n      dup2\n      mstore\n      0x20\n      add\n      0x00\n      keccak256\n        /* \"contracts/CarLoan/User.sol\":858:881  allot[client]=msg.value */\n      dup2\n      swap1\n      sstore\n      pop\n        /* \"contracts/CarLoan/User.sol\":784:979  if((msg.value)>=2 ether){\r... */\n      jump(tag_39)\n    tag_38:\n        /* \"contracts/CarLoan/User.sol\":925:932  2 ether */\n      0x1bc16d674ec80000\n        /* \"contracts/CarLoan/User.sol\":914:923  msg.value */\n      callvalue\n        /* \"contracts/CarLoan/User.sol\":913:932  (msg.value)<2 ether */\n      lt\n        /* \"contracts/CarLoan/User.sol\":910:979  if((msg.value)<2 ether){\r... */\n      iszero\n      tag_40\n      jumpi\n        /* \"contracts/CarLoan/User.sol\":962:967  false */\n      0x00\n        /* \"contracts/CarLoan/User.sol\":948:961  currentStatus */\n      dup1\n      0x14\n        /* \"contracts/CarLoan/User.sol\":948:967  currentStatus=false */\n      0x0100\n      exp\n      dup2\n      sload\n      dup2\n      0xff\n      mul\n      not\n      and\n      swap1\n      dup4\n      iszero\n      iszero\n      mul\n      or\n      swap1\n      sstore\n      pop\n        /* \"contracts/CarLoan/User.sol\":910:979  if((msg.value)<2 ether){\r... */\n    tag_40:\n        /* \"contracts/CarLoan/User.sol\":784:979  if((msg.value)>=2 ether){\r... */\n    tag_39:\n        /* \"contracts/CarLoan/User.sol\":677:986  function pay() public payable \r... */\n      jump\t// out\n        /* \"contracts/CarLoan/User.sol\":301:339  mapping(address=>uint256) public allot */\n    tag_17:\n      mstore(0x20, 0x01)\n      dup1\n      0x00\n      mstore\n      keccak256(0x00, 0x40)\n      0x00\n      swap2\n      pop\n      swap1\n      pop\n      sload\n      dup2\n      jump\t// out\n        /* \"contracts/CarLoan/User.sol\":185:216  bool public currentStatus=false */\n    tag_22:\n      0x00\n      0x14\n      swap1\n      sload\n      swap1\n      0x0100\n      exp\n      swap1\n      div\n      0xff\n      and\n      dup2\n      jump\t// out\n        /* \"#utility.yul\":7:146   */\n    tag_42:\n        /* \"#utility.yul\":53:58   */\n      0x00\n        /* \"#utility.yul\":91:97   */\n      dup2\n        /* \"#utility.yul\":78:98   */\n      calldataload\n        /* \"#utility.yul\":69:98   */\n      swap1\n      pop\n        /* \"#utility.yul\":107:140   */\n      tag_44\n        /* \"#utility.yul\":134:139   */\n      dup2\n        /* \"#utility.yul\":107:140   */\n      tag_45\n      jump\t// in\n    tag_44:\n        /* \"#utility.yul\":7:146   */\n      swap3\n      swap2\n      pop\n      pop\n      jump\t// out\n        /* \"#utility.yul\":152:481   */\n    tag_16:\n        /* \"#utility.yul\":211:217   */\n      0x00\n        /* \"#utility.yul\":260:262   */\n      0x20\n        /* \"#utility.yul\":248:257   */\n      dup3\n        /* \"#utility.yul\":239:246   */\n      dup5\n        /* \"#utility.yul\":235:258   */\n      sub\n        /* \"#utility.yul\":231:263   */\n      slt\n        /* \"#utility.yul\":228:347   */\n      iszero\n      tag_47\n      jumpi\n        /* \"#utility.yul\":266:345   */\n      tag_48\n      tag_49\n      jump\t// in\n    tag_48:\n        /* \"#utility.yul\":228:347   */\n    tag_47:\n        /* \"#utility.yul\":386:387   */\n      0x00\n        /* \"#utility.yul\":411:464   */\n      tag_50\n        /* \"#utility.yul\":456:463   */\n      dup5\n        /* \"#utility.yul\":447:453   */\n      dup3\n        /* \"#utility.yul\":436:445   */\n      dup6\n        /* \"#utility.yul\":432:454   */\n      add\n        /* \"#utility.yul\":411:464   */\n      tag_42\n      jump\t// in\n    tag_50:\n        /* \"#utility.yul\":401:464   */\n      swap2\n      pop\n        /* \"#utility.yul\":357:474   */\n      pop\n        /* \"#utility.yul\":152:481   */\n      swap3\n      swap2\n      pop\n      pop\n      jump\t// out\n        /* \"#utility.yul\":487:629   */\n    tag_51:\n        /* \"#utility.yul\":590:622   */\n      tag_53\n        /* \"#utility.yul\":616:621   */\n      dup2\n        /* \"#utility.yul\":590:622   */\n      tag_54\n      jump\t// in\n    tag_53:\n        /* \"#utility.yul\":585:588   */\n      dup3\n        /* \"#utility.yul\":578:623   */\n      mstore\n        /* \"#utility.yul\":487:629   */\n      pop\n      pop\n      jump\t// out\n        /* \"#utility.yul\":635:744   */\n    tag_55:\n        /* \"#utility.yul\":716:737   */\n      tag_57\n        /* \"#utility.yul\":731:736   */\n      dup2\n        /* \"#utility.yul\":716:737   */\n      tag_58\n      jump\t// in\n    tag_57:\n        /* \"#utility.yul\":711:714   */\n      dup3\n        /* \"#utility.yul\":704:738   */\n      mstore\n        /* \"#utility.yul\":635:744   */\n      pop\n      pop\n      jump\t// out\n        /* \"#utility.yul\":750:1116   */\n    tag_59:\n        /* \"#utility.yul\":892:895   */\n      0x00\n        /* \"#utility.yul\":913:980   */\n      tag_61\n        /* \"#utility.yul\":977:979   */\n      0x12\n        /* \"#utility.yul\":972:975   */\n      dup4\n        /* \"#utility.yul\":913:980   */\n      tag_62\n      jump\t// in\n    tag_61:\n        /* \"#utility.yul\":906:980   */\n      swap2\n      pop\n        /* \"#utility.yul\":989:1082   */\n      tag_63\n        /* \"#utility.yul\":1078:1081   */\n      dup3\n        /* \"#utility.yul\":989:1082   */\n      tag_64\n      jump\t// in\n    tag_63:\n        /* \"#utility.yul\":1107:1109   */\n      0x20\n        /* \"#utility.yul\":1102:1105   */\n      dup3\n        /* \"#utility.yul\":1098:1110   */\n      add\n        /* \"#utility.yul\":1091:1110   */\n      swap1\n      pop\n        /* \"#utility.yul\":750:1116   */\n      swap2\n      swap1\n      pop\n      jump\t// out\n        /* \"#utility.yul\":1122:1488   */\n    tag_65:\n        /* \"#utility.yul\":1264:1267   */\n      0x00\n        /* \"#utility.yul\":1285:1352   */\n      tag_67\n        /* \"#utility.yul\":1349:1351   */\n      0x0f\n        /* \"#utility.yul\":1344:1347   */\n      dup4\n        /* \"#utility.yul\":1285:1352   */\n      tag_62\n      jump\t// in\n    tag_67:\n        /* \"#utility.yul\":1278:1352   */\n      swap2\n      pop\n        /* \"#utility.yul\":1361:1454   */\n      tag_68\n        /* \"#utility.yul\":1450:1453   */\n      dup3\n        /* \"#utility.yul\":1361:1454   */\n      tag_69\n      jump\t// in\n    tag_68:\n        /* \"#utility.yul\":1479:1481   */\n      0x20\n        /* \"#utility.yul\":1474:1477   */\n      dup3\n        /* \"#utility.yul\":1470:1482   */\n      add\n        /* \"#utility.yul\":1463:1482   */\n      swap1\n      pop\n        /* \"#utility.yul\":1122:1488   */\n      swap2\n      swap1\n      pop\n      jump\t// out\n        /* \"#utility.yul\":1494:1860   */\n    tag_70:\n        /* \"#utility.yul\":1636:1639   */\n      0x00\n        /* \"#utility.yul\":1657:1724   */\n      tag_72\n        /* \"#utility.yul\":1721:1723   */\n      0x16\n        /* \"#utility.yul\":1716:1719   */\n      dup4\n        /* \"#utility.yul\":1657:1724   */\n      tag_62\n      jump\t// in\n    tag_72:\n        /* \"#utility.yul\":1650:1724   */\n      swap2\n      pop\n        /* \"#utility.yul\":1733:1826   */\n      tag_73\n        /* \"#utility.yul\":1822:1825   */\n      dup3\n        /* \"#utility.yul\":1733:1826   */\n      tag_74\n      jump\t// in\n    tag_73:\n        /* \"#utility.yul\":1851:1853   */\n      0x20\n        /* \"#utility.yul\":1846:1849   */\n      dup3\n        /* \"#utility.yul\":1842:1854   */\n      add\n        /* \"#utility.yul\":1835:1854   */\n      swap1\n      pop\n        /* \"#utility.yul\":1494:1860   */\n      swap2\n      swap1\n      pop\n      jump\t// out\n        /* \"#utility.yul\":1866:1984   */\n    tag_75:\n        /* \"#utility.yul\":1953:1977   */\n      tag_77\n        /* \"#utility.yul\":1971:1976   */\n      dup2\n        /* \"#utility.yul\":1953:1977   */\n      tag_78\n      jump\t// in\n    tag_77:\n        /* \"#utility.yul\":1948:1951   */\n      dup3\n        /* \"#utility.yul\":1941:1978   */\n      mstore\n        /* \"#utility.yul\":1866:1984   */\n      pop\n      pop\n      jump\t// out\n        /* \"#utility.yul\":1990:2244   */\n    tag_10:\n        /* \"#utility.yul\":2099:2103   */\n      0x00\n        /* \"#utility.yul\":2137:2139   */\n      0x20\n        /* \"#utility.yul\":2126:2135   */\n      dup3\n        /* \"#utility.yul\":2122:2140   */\n      add\n        /* \"#utility.yul\":2114:2140   */\n      swap1\n      pop\n        /* \"#utility.yul\":2150:2237   */\n      tag_80\n        /* \"#utility.yul\":2234:2235   */\n      0x00\n        /* \"#utility.yul\":2223:2232   */\n      dup4\n        /* \"#utility.yul\":2219:2236   */\n      add\n        /* \"#utility.yul\":2210:2216   */\n      dup5\n        /* \"#utility.yul\":2150:2237   */\n      tag_51\n      jump\t// in\n    tag_80:\n        /* \"#utility.yul\":1990:2244   */\n      swap3\n      swap2\n      pop\n      pop\n      jump\t// out\n        /* \"#utility.yul\":2250:2460   */\n    tag_24:\n        /* \"#utility.yul\":2337:2341   */\n      0x00\n        /* \"#utility.yul\":2375:2377   */\n      0x20\n        /* \"#utility.yul\":2364:2373   */\n      dup3\n        /* \"#utility.yul\":2360:2378   */\n      add\n        /* \"#utility.yul\":2352:2378   */\n      swap1\n      pop\n        /* \"#utility.yul\":2388:2453   */\n      tag_82\n        /* \"#utility.yul\":2450:2451   */\n      0x00\n        /* \"#utility.yul\":2439:2448   */\n      dup4\n        /* \"#utility.yul\":2435:2452   */\n      add\n        /* \"#utility.yul\":2426:2432   */\n      dup5\n        /* \"#utility.yul\":2388:2453   */\n      tag_55\n      jump\t// in\n    tag_82:\n        /* \"#utility.yul\":2250:2460   */\n      swap3\n      swap2\n      pop\n      pop\n      jump\t// out\n        /* \"#utility.yul\":2466:2885   */\n    tag_36:\n        /* \"#utility.yul\":2632:2636   */\n      0x00\n        /* \"#utility.yul\":2670:2672   */\n      0x20\n        /* \"#utility.yul\":2659:2668   */\n      dup3\n        /* \"#utility.yul\":2655:2673   */\n      add\n        /* \"#utility.yul\":2647:2673   */\n      swap1\n      pop\n        /* \"#utility.yul\":2719:2728   */\n      dup2\n        /* \"#utility.yul\":2713:2717   */\n      dup2\n        /* \"#utility.yul\":2709:2729   */\n      sub\n        /* \"#utility.yul\":2705:2706   */\n      0x00\n        /* \"#utility.yul\":2694:2703   */\n      dup4\n        /* \"#utility.yul\":2690:2707   */\n      add\n        /* \"#utility.yul\":2683:2730   */\n      mstore\n        /* \"#utility.yul\":2747:2878   */\n      tag_84\n        /* \"#utility.yul\":2873:2877   */\n      dup2\n        /* \"#utility.yul\":2747:2878   */\n      tag_59\n      jump\t// in\n    tag_84:\n        /* \"#utility.yul\":2739:2878   */\n      swap1\n      pop\n        /* \"#utility.yul\":2466:2885   */\n      swap2\n      swap1\n      pop\n      jump\t// out\n        /* \"#utility.yul\":2891:3310   */\n    tag_28:\n        /* \"#utility.yul\":3057:3061   */\n      0x00\n        /* \"#utility.yul\":3095:3097   */\n      0x20\n        /* \"#utility.yul\":3084:3093   */\n      dup3\n        /* \"#utility.yul\":3080:3098   */\n      add\n        /* \"#utility.yul\":3072:3098   */\n      swap1\n      pop\n        /* \"#utility.yul\":3144:3153   */\n      dup2\n        /* \"#utility.yul\":3138:3142   */\n      dup2\n        /* \"#utility.yul\":3134:3154   */\n      sub\n        /* \"#utility.yul\":3130:3131   */\n      0x00\n        /* \"#utility.yul\":3119:3128   */\n      dup4\n        /* \"#utility.yul\":3115:3132   */\n      add\n        /* \"#utility.yul\":3108:3155   */\n      mstore\n        /* \"#utility.yul\":3172:3303   */\n      tag_86\n        /* \"#utility.yul\":3298:3302   */\n      dup2\n        /* \"#utility.yul\":3172:3303   */\n      tag_65\n      jump\t// in\n    tag_86:\n        /* \"#utility.yul\":3164:3303   */\n      swap1\n      pop\n        /* \"#utility.yul\":2891:3310   */\n      swap2\n      swap1\n      pop\n      jump\t// out\n        /* \"#utility.yul\":3316:3735   */\n    tag_32:\n        /* \"#utility.yul\":3482:3486   */\n      0x00\n        /* \"#utility.yul\":3520:3522   */\n      0x20\n        /* \"#utility.yul\":3509:3518   */\n      dup3\n        /* \"#utility.yul\":3505:3523   */\n      add\n        /* \"#utility.yul\":3497:3523   */\n      swap1\n      pop\n        /* \"#utility.yul\":3569:3578   */\n      dup2\n        /* \"#utility.yul\":3563:3567   */\n      dup2\n        /* \"#utility.yul\":3559:3579   */\n      sub\n        /* \"#utility.yul\":3555:3556   */\n      0x00\n        /* \"#utility.yul\":3544:3553   */\n      dup4\n        /* \"#utility.yul\":3540:3557   */\n      add\n        /* \"#utility.yul\":3533:3580   */\n      mstore\n        /* \"#utility.yul\":3597:3728   */\n      tag_88\n        /* \"#utility.yul\":3723:3727   */\n      dup2\n        /* \"#utility.yul\":3597:3728   */\n      tag_70\n      jump\t// in\n    tag_88:\n        /* \"#utility.yul\":3589:3728   */\n      swap1\n      pop\n        /* \"#utility.yul\":3316:3735   */\n      swap2\n      swap1\n      pop\n      jump\t// out\n        /* \"#utility.yul\":3741:3963   */\n    tag_19:\n        /* \"#utility.yul\":3834:3838   */\n      0x00\n        /* \"#utility.yul\":3872:3874   */\n      0x20\n        /* \"#utility.yul\":3861:3870   */\n      dup3\n        /* \"#utility.yul\":3857:3875   */\n      add\n        /* \"#utility.yul\":3849:3875   */\n      swap1\n      pop\n        /* \"#utility.yul\":3885:3956   */\n      tag_90\n        /* \"#utility.yul\":3953:3954   */\n      0x00\n        /* \"#utility.yul\":3942:3951   */\n      dup4\n        /* \"#utility.yul\":3938:3955   */\n      add\n        /* \"#utility.yul\":3929:3935   */\n      dup5\n        /* \"#utility.yul\":3885:3956   */\n      tag_75\n      jump\t// in\n    tag_90:\n        /* \"#utility.yul\":3741:3963   */\n      swap3\n      swap2\n      pop\n      pop\n      jump\t// out\n        /* \"#utility.yul\":4050:4219   */\n    tag_62:\n        /* \"#utility.yul\":4134:4145   */\n      0x00\n        /* \"#utility.yul\":4168:4174   */\n      dup3\n        /* \"#utility.yul\":4163:4166   */\n      dup3\n        /* \"#utility.yul\":4156:4175   */\n      mstore\n        /* \"#utility.yul\":4208:4212   */\n      0x20\n        /* \"#utility.yul\":4203:4206   */\n      dup3\n        /* \"#utility.yul\":4199:4213   */\n      add\n        /* \"#utility.yul\":4184:4213   */\n      swap1\n      pop\n        /* \"#utility.yul\":4050:4219   */\n      swap3\n      swap2\n      pop\n      pop\n      jump\t// out\n        /* \"#utility.yul\":4225:4321   */\n    tag_94:\n        /* \"#utility.yul\":4262:4269   */\n      0x00\n        /* \"#utility.yul\":4291:4315   */\n      tag_96\n        /* \"#utility.yul\":4309:4314   */\n      dup3\n        /* \"#utility.yul\":4291:4315   */\n      tag_97\n      jump\t// in\n    tag_96:\n        /* \"#utility.yul\":4280:4315   */\n      swap1\n      pop\n        /* \"#utility.yul\":4225:4321   */\n      swap2\n      swap1\n      pop\n      jump\t// out\n        /* \"#utility.yul\":4327:4431   */\n    tag_54:\n        /* \"#utility.yul\":4372:4379   */\n      0x00\n        /* \"#utility.yul\":4401:4425   */\n      tag_99\n        /* \"#utility.yul\":4419:4424   */\n      dup3\n        /* \"#utility.yul\":4401:4425   */\n      tag_97\n      jump\t// in\n    tag_99:\n        /* \"#utility.yul\":4390:4425   */\n      swap1\n      pop\n        /* \"#utility.yul\":4327:4431   */\n      swap2\n      swap1\n      pop\n      jump\t// out\n        /* \"#utility.yul\":4437:4527   */\n    tag_58:\n        /* \"#utility.yul\":4471:4478   */\n      0x00\n        /* \"#utility.yul\":4514:4519   */\n      dup2\n        /* \"#utility.yul\":4507:4520   */\n      iszero\n        /* \"#utility.yul\":4500:4521   */\n      iszero\n        /* \"#utility.yul\":4489:4521   */\n      swap1\n      pop\n        /* \"#utility.yul\":4437:4527   */\n      swap2\n      swap1\n      pop\n      jump\t// out\n        /* \"#utility.yul\":4533:4659   */\n    tag_97:\n        /* \"#utility.yul\":4570:4577   */\n      0x00\n        /* \"#utility.yul\":4610:4652   */\n      0xffffffffffffffffffffffffffffffffffffffff\n        /* \"#utility.yul\":4603:4608   */\n      dup3\n        /* \"#utility.yul\":4599:4653   */\n      and\n        /* \"#utility.yul\":4588:4653   */\n      swap1\n      pop\n        /* \"#utility.yul\":4533:4659   */\n      swap2\n      swap1\n      pop\n      jump\t// out\n        /* \"#utility.yul\":4665:4742   */\n    tag_78:\n        /* \"#utility.yul\":4702:4709   */\n      0x00\n        /* \"#utility.yul\":4731:4736   */\n      dup2\n        /* \"#utility.yul\":4720:4736   */\n      swap1\n      pop\n        /* \"#utility.yul\":4665:4742   */\n      swap2\n      swap1\n      pop\n      jump\t// out\n        /* \"#utility.yul\":4871:4988   */\n    tag_49:\n        /* \"#utility.yul\":4980:4981   */\n      0x00\n        /* \"#utility.yul\":4977:4978   */\n      dup1\n        /* \"#utility.yul\":4970:4982   */\n      revert\n        /* \"#utility.yul\":4994:5162   */\n    tag_64:\n        /* \"#utility.yul\":5134:5154   */\n      0x456e74657220436c69656e742066697273740000000000000000000000000000\n        /* \"#utility.yul\":5130:5131   */\n      0x00\n        /* \"#utility.yul\":5122:5128   */\n      dup3\n        /* \"#utility.yul\":5118:5132   */\n      add\n        /* \"#utility.yul\":5111:5155   */\n      mstore\n        /* \"#utility.yul\":4994:5162   */\n      pop\n      jump\t// out\n        /* \"#utility.yul\":5168:5333   */\n    tag_69:\n        /* \"#utility.yul\":5308:5325   */\n      0x616c726561647920416c6c6f7465640000000000000000000000000000000000\n        /* \"#utility.yul\":5304:5305   */\n      0x00\n        /* \"#utility.yul\":5296:5302   */\n      dup3\n        /* \"#utility.yul\":5292:5306   */\n      add\n        /* \"#utility.yul\":5285:5326   */\n      mstore\n        /* \"#utility.yul\":5168:5333   */\n      pop\n      jump\t// out\n        /* \"#utility.yul\":5339:5511   */\n    tag_74:\n        /* \"#utility.yul\":5479:5503   */\n      0x4e656564206d6f7265207468616e203220657468657200000000000000000000\n        /* \"#utility.yul\":5475:5476   */\n      0x00\n        /* \"#utility.yul\":5467:5473   */\n      dup3\n        /* \"#utility.yul\":5463:5477   */\n      add\n        /* \"#utility.yul\":5456:5504   */\n      mstore\n        /* \"#utility.yul\":5339:5511   */\n      pop\n      jump\t// out\n        /* \"#utility.yul\":5517:5639   */\n    tag_45:\n        /* \"#utility.yul\":5590:5614   */\n      tag_110\n        /* \"#utility.yul\":5608:5613   */\n      dup2\n        /* \"#utility.yul\":5590:5614   */\n      tag_94\n      jump\t// in\n    tag_110:\n        /* \"#utility.yul\":5583:5588   */\n      dup2\n        /* \"#utility.yul\":5580:5615   */\n      eq\n        /* \"#utility.yul\":5570:5633   */\n      tag_111\n      jumpi\n        /* \"#utility.yul\":5629:5630   */\n      0x00\n        /* \"#utility.yul\":5626:5627   */\n      dup1\n        /* \"#utility.yul\":5619:5631   */\n      revert\n        /* \"#utility.yul\":5570:5633   */\n    tag_111:\n        /* \"#utility.yul\":5517:5639   */\n      pop\n      jump\t// out\n\n    auxdata: 0xa26469706673582212206ea885abdb2fb5e79ccd00b80b57f33f0f4584d48e33c2fc8c43e7fdf02a07e764736f6c63430008070033\n}\n",
				"bytecode": {
					"linkReferences": {},
					"object": "608060405260008060146101000a81548160ff02191690831515021790555034801561002a57600080fd5b506105e38061003a6000396000f3fe60806040526004361061003f5760003560e01c8063109e94cf146100445780631b9265b81461006f5780633ba5172d14610079578063ef8a9235146100b6575b600080fd5b34801561005057600080fd5b506100596100e1565b60405161006691906103fa565b60405180910390f35b610077610105565b005b34801561008557600080fd5b506100a0600480360381019061009b9190610337565b6102f7565b6040516100ad9190610490565b60405180910390f35b3480156100c257600080fd5b506100cb61030f565b6040516100d89190610415565b60405180910390f35b60008054906101000a900473ffffffffffffffffffffffffffffffffffffffff1681565b60001515600060149054906101000a900460ff1615151461015b576040517f08c379a000000000000000000000000000000000000000000000000000000000815260040161015290610450565b60405180910390fd5b671bc16d674ec8000034116101a5576040517f08c379a000000000000000000000000000000000000000000000000000000000815260040161019c90610470565b60405180910390fd5b600073ffffffffffffffffffffffffffffffffffffffff1660008054906101000a900473ffffffffffffffffffffffffffffffffffffffff1673ffffffffffffffffffffffffffffffffffffffff161415610235576040517f08c379a000000000000000000000000000000000000000000000000000000000815260040161022c90610430565b60405180910390fd5b671bc16d674ec8000034106102c9576001600060146101000a81548160ff02191690831515021790555034600160008060009054906101000a900473ffffffffffffffffffffffffffffffffffffffff1673ffffffffffffffffffffffffffffffffffffffff1673ffffffffffffffffffffffffffffffffffffffff168152602001908152602001600020819055506102f5565b671bc16d674ec800003410156102f45760008060146101000a81548160ff0219169083151502179055505b5b565b60016020528060005260406000206000915090505481565b600060149054906101000a900460ff1681565b60008135905061033181610596565b92915050565b60006020828403121561034d5761034c610516565b5b600061035b84828501610322565b91505092915050565b61036d816104ce565b82525050565b61037c816104e0565b82525050565b600061038f6012836104ab565b915061039a8261051b565b602082019050919050565b60006103b2600f836104ab565b91506103bd82610544565b602082019050919050565b60006103d56016836104ab565b91506103e08261056d565b602082019050919050565b6103f48161050c565b82525050565b600060208201905061040f6000830184610364565b92915050565b600060208201905061042a6000830184610373565b92915050565b6000602082019050818103600083015261044981610382565b9050919050565b60006020820190508181036000830152610469816103a5565b9050919050565b60006020820190508181036000830152610489816103c8565b9050919050565b60006020820190506104a560008301846103eb565b92915050565b600082825260208201905092915050565b60006104c7826104ec565b9050919050565b60006104d9826104ec565b9050919050565b60008115159050919050565b600073ffffffffffffffffffffffffffffffffffffffff82169050919050565b6000819050919050565b600080fd5b7f456e74657220436c69656e742066697273740000000000000000000000000000600082015250565b7f616c726561647920416c6c6f7465640000000000000000000000000000000000600082015250565b7f4e656564206d6f7265207468616e203220657468657200000000000000000000600082015250565b61059f816104bc565b81146105aa57600080fd5b5056fea26469706673582212206ea885abdb2fb5e79ccd00b80b57f33f0f4584d48e33c2fc8c43e7fdf02a07e764736f6c63430008070033",
					"opcodes": "PUSH1 0x80 PUSH1 0x40 MSTORE PUSH1 0x0 DUP1 PUSH1 0x14 PUSH2 0x100 EXP DUP2 SLOAD DUP2 PUSH1 0xFF MUL NOT AND SWAP1 DUP4 ISZERO ISZERO MUL OR SWAP1 SSTORE POP CALLVALUE DUP1 ISZERO PUSH2 0x2A JUMPI PUSH1 0x0 DUP1 REVERT JUMPDEST POP PUSH2 0x5E3 DUP1 PUSH2 0x3A PUSH1 0x0 CODECOPY PUSH1 0x0 RETURN INVALID PUSH1 0x80 PUSH1 0x40 MSTORE PUSH1 0x4 CALLDATASIZE LT PUSH2 0x3F JUMPI PUSH1 0x0 CALLDATALOAD PUSH1 0xE0 SHR DUP1 PUSH4 0x109E94CF EQ PUSH2 0x44 JUMPI DUP1 PUSH4 0x1B9265B8 EQ PUSH2 0x6F JUMPI DUP1 PUSH4 0x3BA5172D EQ PUSH2 0x79 JUMPI DUP1 PUSH4 0xEF8A9235 EQ PUSH2 0xB6 JUMPI JUMPDEST PUSH1 0x0 DUP1 REVERT JUMPDEST CALLVALUE DUP1 ISZERO PUSH2 0x50 JUMPI PUSH1 0x0 DUP1 REVERT JUMPDEST POP PUSH2 0x59 PUSH2 0xE1 JUMP JUMPDEST PUSH1 0x40 MLOAD PUSH2 0x66 SWAP2 SWAP1 PUSH2 0x3FA JUMP JUMPDEST PUSH1 0x40 MLOAD DUP1 SWAP2 SUB SWAP1 RETURN JUMPDEST PUSH2 0x77 PUSH2 0x105 JUMP JUMPDEST STOP JUMPDEST CALLVALUE DUP1 ISZERO PUSH2 0x85 JUMPI PUSH1 0x0 DUP1 REVERT JUMPDEST POP PUSH2 0xA0 PUSH1 0x4 DUP1 CALLDATASIZE SUB DUP2 ADD SWAP1 PUSH2 0x9B SWAP2 SWAP1 PUSH2 0x337 JUMP JUMPDEST PUSH2 0x2F7 JUMP JUMPDEST PUSH1 0x40 MLOAD PUSH2 0xAD SWAP2 SWAP1 PUSH2 0x490 JUMP JUMPDEST PUSH1 0x40 MLOAD DUP1 SWAP2 SUB SWAP1 RETURN JUMPDEST CALLVALUE DUP1 ISZERO PUSH2 0xC2 JUMPI PUSH1 0x0 DUP1 REVERT JUMPDEST POP PUSH2 0xCB PUSH2 0x30F JUMP JUMPDEST PUSH1 0x40 MLOAD PUSH2 0xD8 SWAP2 SWAP1 PUSH2 0x415 JUMP JUMPDEST PUSH1 0x40 MLOAD DUP1 SWAP2 SUB SWAP1 RETURN JUMPDEST PUSH1 0x0 DUP1 SLOAD SWAP1 PUSH2 0x100 EXP SWAP1 DIV PUSH20 0xFFFFFFFFFFFFFFFFFFFFFFFFFFFFFFFFFFFFFFFF AND DUP2 JUMP JUMPDEST PUSH1 0x0 ISZERO ISZERO PUSH1 0x0 PUSH1 0x14 SWAP1 SLOAD SWAP1 PUSH2 0x100 EXP SWAP1 DIV PUSH1 0xFF AND ISZERO ISZERO EQ PUSH2 0x15B JUMPI PUSH1 0x40 MLOAD PUSH32 0x8C379A000000000000000000000000000000000000000000000000000000000 DUP2 MSTORE PUSH1 0x4 ADD PUSH2 0x152 SWAP1 PUSH2 0x450 JUMP JUMPDEST PUSH1 0x40 MLOAD DUP1 SWAP2 SUB SWAP1 REVERT JUMPDEST PUSH8 0x1BC16D674EC80000 CALLVALUE GT PUSH2 0x1A5 JUMPI PUSH1 0x40 MLOAD PUSH32 0x8C379A000000000000000000000000000000000000000000000000000000000 DUP2 MSTORE PUSH1 0x4 ADD PUSH2 0x19C SWAP1 PUSH2 0x470 JUMP JUMPDEST PUSH1 0x40 MLOAD DUP1 SWAP2 SUB SWAP1 REVERT JUMPDEST PUSH1 0x0 PUSH20 0xFFFFFFFFFFFFFFFFFFFFFFFFFFFFFFFFFFFFFFFF AND PUSH1 0x0 DUP1 SLOAD SWAP1 PUSH2 0x100 EXP SWAP1 DIV PUSH20 0xFFFFFFFFFFFFFFFFFFFFFFFFFFFFFFFFFFFFFFFF AND PUSH20 0xFFFFFFFFFFFFFFFFFFFFFFFFFFFFFFFFFFFFFFFF AND EQ ISZERO PUSH2 0x235 JUMPI PUSH1 0x40 MLOAD PUSH32 0x8C379A000000000000000000000000000000000000000000000000000000000 DUP2 MSTORE PUSH1 0x4 ADD PUSH2 0x22C SWAP1 PUSH2 0x430 JUMP JUMPDEST PUSH1 0x40 MLOAD DUP1 SWAP2 SUB SWAP1 REVERT JUMPDEST PUSH8 0x1BC16D674EC80000 CALLVALUE LT PUSH2 0x2C9 JUMPI PUSH1 0x1 PUSH1 0x0 PUSH1 0x14 PUSH2 0x100 EXP DUP2 SLOAD DUP2 PUSH1 0xFF MUL NOT AND SWAP1 DUP4 ISZERO ISZERO MUL OR SWAP1 SSTORE POP CALLVALUE PUSH1 0x1 PUSH1 0x0 DUP1 PUSH1 0x0 SWAP1 SLOAD SWAP1 PUSH2 0x100 EXP SWAP1 DIV PUSH20 0xFFFFFFFFFFFFFFFFFFFFFFFFFFFFFFFFFFFFFFFF AND PUSH20 0xFFFFFFFFFFFFFFFFFFFFFFFFFFFFFFFFFFFFFFFF AND PUSH20 0xFFFFFFFFFFFFFFFFFFFFFFFFFFFFFFFFFFFFFFFF AND DUP2 MSTORE PUSH1 0x20 ADD SWAP1 DUP2 MSTORE PUSH1 0x20 ADD PUSH1 0x0 KECCAK256 DUP2 SWAP1 SSTORE POP PUSH2 0x2F5 JUMP JUMPDEST PUSH8 0x1BC16D674EC80000 CALLVALUE LT ISZERO PUSH2 0x2F4 JUMPI PUSH1 0x0 DUP1 PUSH1 0x14 PUSH2 0x100 EXP DUP2 SLOAD DUP2 PUSH1 0xFF MUL NOT AND SWAP1 DUP4 ISZERO ISZERO MUL OR SWAP1 SSTORE POP JUMPDEST JUMPDEST JUMP JUMPDEST PUSH1 0x1 PUSH1 0x20 MSTORE DUP1 PUSH1 0x0 MSTORE PUSH1 0x40 PUSH1 0x0 KECCAK256 PUSH1 0x0 SWAP2 POP SWAP1 POP SLOAD DUP2 JUMP JUMPDEST PUSH1 0x0 PUSH1 0x14 SWAP1 SLOAD SWAP1 PUSH2 0x100 EXP SWAP1 DIV PUSH1 0xFF AND DUP2 JUMP JUMPDEST PUSH1 0x0 DUP2 CALLDATALOAD SWAP1 POP PUSH2 0x331 DUP2 PUSH2 0x596 JUMP JUMPDEST SWAP3 SWAP2 POP POP JUMP JUMPDEST PUSH1 0x0 PUSH1 0x20 DUP3 DUP5 SUB SLT ISZERO PUSH2 0x34D JUMPI PUSH2 0x34C PUSH2 0x516 JUMP JUMPDEST JUMPDEST PUSH1 0x0 PUSH2 0x35B DUP5 DUP3 DUP6 ADD PUSH2 0x322 JUMP JUMPDEST SWAP2 POP POP SWAP3 SWAP2 POP POP JUMP JUMPDEST PUSH2 0x36D DUP2 PUSH2 0x4CE JUMP JUMPDEST DUP3 MSTORE POP POP JUMP JUMPDEST PUSH2 0x37C DUP2 PUSH2 0x4E0 JUMP JUMPDEST DUP3 MSTORE POP POP JUMP JUMPDEST PUSH1 0x0 PUSH2 0x38F PUSH1 0x12 DUP4 PUSH2 0x4AB JUMP JUMPDEST SWAP2 POP PUSH2 0x39A DUP3 PUSH2 0x51B JUMP JUMPDEST PUSH1 0x20 DUP3 ADD SWAP1 POP SWAP2 SWAP1 POP JUMP JUMPDEST PUSH1 0x0 PUSH2 0x3B2 PUSH1 0xF DUP4 PUSH2 0x4AB JUMP JUMPDEST SWAP2 POP PUSH2 0x3BD DUP3 PUSH2 0x544 JUMP JUMPDEST PUSH1 0x20 DUP3 ADD SWAP1 POP SWAP2 SWAP1 POP JUMP JUMPDEST PUSH1 0x0 PUSH2 0x3D5 PUSH1 0x16 DUP4 PUSH2 0x4AB JUMP JUMPDEST SWAP2 POP PUSH2 0x3E0 DUP3 PUSH2 0x56D JUMP JUMPDEST PUSH1 0x20 DUP3 ADD SWAP1 POP SWAP2 SWAP1 POP JUMP JUMPDEST PUSH2 0x3F4 DUP2 PUSH2 0x50C JUMP JUMPDEST DUP3 MSTORE POP POP JUMP JUMPDEST PUSH1 0x0 PUSH1 0x20 DUP3 ADD SWAP1 POP PUSH2 0x40F PUSH1 0x0 DUP4 ADD DUP5 PUSH2 0x364 JUMP JUMPDEST SWAP3 SWAP2 POP POP JUMP JUMPDEST PUSH1 0x0 PUSH1 0x20 DUP3 ADD SWAP1 POP PUSH2 0x42A PUSH1 0x0 DUP4 ADD DUP5 PUSH2 0x373 JUMP JUMPDEST SWAP3 SWAP2 POP POP JUMP JUMPDEST PUSH1 0x0 PUSH1 0x20 DUP3 ADD SWAP1 POP DUP2 DUP2 SUB PUSH1 0x0 DUP4 ADD MSTORE PUSH2 0x449 DUP2 PUSH2 0x382 JUMP JUMPDEST SWAP1 POP SWAP2 SWAP1 POP JUMP JUMPDEST PUSH1 0x0 PUSH1 0x20 DUP3 ADD SWAP1 POP DUP2 DUP2 SUB PUSH1 0x0 DUP4 ADD MSTORE PUSH2 0x469 DUP2 PUSH2 0x3A5 JUMP JUMPDEST SWAP1 POP SWAP2 SWAP1 POP JUMP JUMPDEST PUSH1 0x0 PUSH1 0x20 DUP3 ADD SWAP1 POP DUP2 DUP2 SUB PUSH1 0x0 DUP4 ADD MSTORE PUSH2 0x489 DUP2 PUSH2 0x3C8 JUMP JUMPDEST SWAP1 POP SWAP2 SWAP1 POP JUMP JUMPDEST PUSH1 0x0 PUSH1 0x20 DUP3 ADD SWAP1 POP PUSH2 0x4A5 PUSH1 0x0 DUP4 ADD DUP5 PUSH2 0x3EB JUMP JUMPDEST SWAP3 SWAP2 POP POP JUMP JUMPDEST PUSH1 0x0 DUP3 DUP3 MSTORE PUSH1 0x20 DUP3 ADD SWAP1 POP SWAP3 SWAP2 POP POP JUMP JUMPDEST PUSH1 0x0 PUSH2 0x4C7 DUP3 PUSH2 0x4EC JUMP JUMPDEST SWAP1 POP SWAP2 SWAP1 POP JUMP JUMPDEST PUSH1 0x0 PUSH2 0x4D9 DUP3 PUSH2 0x4EC JUMP JUMPDEST SWAP1 POP SWAP2 SWAP1 POP JUMP JUMPDEST PUSH1 0x0 DUP2 ISZERO ISZERO SWAP1 POP SWAP2 SWAP1 POP JUMP JUMPDEST PUSH1 0x0 PUSH20 0xFFFFFFFFFFFFFFFFFFFFFFFFFFFFFFFFFFFFFFFF DUP3 AND SWAP1 POP SWAP2 SWAP1 POP JUMP JUMPDEST PUSH1 0x0 DUP2 SWAP1 POP SWAP2 SWAP1 POP JUMP JUMPDEST PUSH1 0x0 DUP1 REVERT JUMPDEST PUSH32 0x456E74657220436C69656E742066697273740000000000000000000000000000 PUSH1 0x0 DUP3 ADD MSTORE POP JUMP JUMPDEST PUSH32 0x616C726561647920416C6C6F7465640000000000000000000000000000000000 PUSH1 0x0 DUP3 ADD MSTORE POP JUMP JUMPDEST PUSH32 0x4E656564206D6F7265207468616E203220657468657200000000000000000000 PUSH1 0x0 DUP3 ADD MSTORE POP JUMP JUMPDEST PUSH2 0x59F DUP2 PUSH2 0x4BC JUMP JUMPDEST DUP2 EQ PUSH2 0x5AA JUMPI PUSH1 0x0 DUP1 REVERT JUMPDEST POP JUMP INVALID LOG2 PUSH5 0x6970667358 0x22 SLT KECCAK256 PUSH15 0xA885ABDB2FB5E79CCD00B80B57F33F 0xF GASLIMIT DUP5 0xD4 DUP15 CALLER 0xC2 0xFC DUP13 NUMBER 0xE7 REVERT CREATE 0x2A SMOD 0xE7 PUSH5 0x736F6C6343 STOP ADDMOD SMOD STOP CALLER "
				},
				"gasEstimates": {
					"creation": {
						"codeDepositCost": "301400",
						"executionCost": "24660",
						"totalCost": "326060"
					},
					"external": {
						"allot(address)": "2836",
						"client()": "2489",
						"currentStatus()": "2565",
						"pay()": "53223"
					}
				},
				"methodIdentifiers": {
					"allot(address)": "3ba5172d",
					"client()": "109e94cf",
					"currentStatus()": "ef8a9235",
					"pay()": "1b9265b8"
				}
			},
			"storageLayout": {
				"storage": [
					{
						"astId": 3,
						"contract": "contracts/CarLoan/User.sol:User",
						"label": "client",
						"offset": 0,
						"slot": "0",
						"type": "t_address_payable"
					},
					{
						"astId": 6,
						"contract": "contracts/CarLoan/User.sol:User",
						"label": "currentStatus",
						"offset": 20,
						"slot": "0",
						"type": "t_bool"
					},
					{
						"astId": 10,
						"contract": "contracts/CarLoan/User.sol:User",
						"label": "allot",
						"offset": 0,
						"slot": "1",
						"type": "t_mapping(t_address,t_uint256)"
					}
				],
				"types": {
					"t_address": {
						"encoding": "inplace",
						"label": "address",
						"numberOfBytes": "20"
					},
					"t_address_payable": {
						"encoding": "inplace",
						"label": "address payable",
						"numberOfBytes": "20"
					},
					"t_bool": {
						"encoding": "inplace",
						"label": "bool",
						"numberOfBytes": "1"
					},
					"t_mapping(t_address,t_uint256)": {
						"encoding": "mapping",
						"key": "t_address",
						"label": "mapping(address => uint256)",
						"numberOfBytes": "32",
						"value": "t_uint256"
					},
					"t_uint256": {
						"encoding": "inplace",
						"label": "uint256",
						"numberOfBytes": "32"
					}
				}
			},
			"userdoc": {
				"kind": "user",
				"methods": {},
				"version": 1
			}
		}
	}
}