{
	"contracts/CarLoan/User.sol": {
		"User": {
			"abi": [
				{
					"inputs": [],
					"stateMutability": "nonpayable",
					"type": "constructor"
				},
				{
					"inputs": [
						{
							"internalType": "address",
							"name": "",
							"type": "address"
						}
					],
					"name": "allot",
					"outputs": [
						{
							"internalType": "bool",
							"name": "",
							"type": "bool"
						}
					],
					"stateMutability": "view",
					"type": "function"
				},
				{
					"inputs": [],
					"name": "currentStatus",
					"outputs": [
						{
							"internalType": "enum User.Status",
							"name": "",
							"type": "uint8"
						}
					],
					"stateMutability": "view",
					"type": "function"
				},
				{
					"inputs": [],
					"name": "owner",
					"outputs": [
						{
							"internalType": "address",
							"name": "",
							"type": "address"
						}
					],
					"stateMutability": "view",
					"type": "function"
				},
				{
					"inputs": [],
					"name": "pay",
					"outputs": [
						{
							"internalType": "enum User.Status",
							"name": "",
							"type": "uint8"
						}
					],
					"stateMutability": "payable",
					"type": "function"
				}
			],
			"devdoc": {
				"kind": "dev",
				"methods": {},
				"version": 1
			},
			"evm": {
				"assembly": "    /* \"contracts/CarLoan/User.sol\":56:590  contract User{\r... */\n  mstore(0x40, 0x80)\n    /* \"contracts/CarLoan/User.sol\":200:251  constructor(){\r... */\n  callvalue\n  dup1\n  iszero\n  tag_1\n  jumpi\n  0x00\n  dup1\n  revert\ntag_1:\n  pop\n    /* \"contracts/CarLoan/User.sol\":232:242  msg.sender */\n  caller\n    /* \"contracts/CarLoan/User.sol\":224:229  owner */\n  0x00\n  dup1\n    /* \"contracts/CarLoan/User.sol\":224:243  owner= (msg.sender) */\n  0x0100\n  exp\n  dup2\n  sload\n  dup2\n  0xffffffffffffffffffffffffffffffffffffffff\n  mul\n  not\n  and\n  swap1\n  dup4\n  0xffffffffffffffffffffffffffffffffffffffff\n  and\n  mul\n  or\n  swap1\n  sstore\n  pop\n    /* \"contracts/CarLoan/User.sol\":56:590  contract User{\r... */\n  dataSize(sub_0)\n  dup1\n  dataOffset(sub_0)\n  0x00\n  codecopy\n  0x00\n  return\nstop\n\nsub_0: assembly {\n        /* \"contracts/CarLoan/User.sol\":56:590  contract User{\r... */\n      mstore(0x40, 0x80)\n      jumpi(tag_1, lt(calldatasize, 0x04))\n      shr(0xe0, calldataload(0x00))\n      dup1\n      0x1b9265b8\n      eq\n      tag_2\n      jumpi\n      dup1\n      0x3ba5172d\n      eq\n      tag_3\n      jumpi\n      dup1\n      0x8da5cb5b\n      eq\n      tag_4\n      jumpi\n      dup1\n      0xef8a9235\n      eq\n      tag_5\n      jumpi\n    tag_1:\n      0x00\n      dup1\n      revert\n        /* \"contracts/CarLoan/User.sol\":303:587  function pay() public payable returns(Status){\r... */\n    tag_2:\n      tag_6\n      tag_7\n      jump\t// in\n    tag_6:\n      mload(0x40)\n      tag_8\n      swap2\n      swap1\n      tag_9\n      jump\t// in\n    tag_8:\n      mload(0x40)\n      dup1\n      swap2\n      sub\n      swap1\n      return\n        /* \"contracts/CarLoan/User.sol\":259:294  mapping(address=>bool) public allot */\n    tag_3:\n      callvalue\n      dup1\n      iszero\n      tag_10\n      jumpi\n      0x00\n      dup1\n      revert\n    tag_10:\n      pop\n      tag_11\n      0x04\n      dup1\n      calldatasize\n      sub\n      dup2\n      add\n      swap1\n      tag_12\n      swap2\n      swap1\n      tag_13\n      jump\t// in\n    tag_12:\n      tag_14\n      jump\t// in\n    tag_11:\n      mload(0x40)\n      tag_15\n      swap2\n      swap1\n      tag_16\n      jump\t// in\n    tag_15:\n      mload(0x40)\n      dup1\n      swap2\n      sub\n      swap1\n      return\n        /* \"contracts/CarLoan/User.sol\":136:156  address public owner */\n    tag_4:\n      callvalue\n      dup1\n      iszero\n      tag_17\n      jumpi\n      0x00\n      dup1\n      revert\n    tag_17:\n      pop\n      tag_18\n      tag_19\n      jump\t// in\n    tag_18:\n      mload(0x40)\n      tag_20\n      swap2\n      swap1\n      tag_21\n      jump\t// in\n    tag_20:\n      mload(0x40)\n      dup1\n      swap2\n      sub\n      swap1\n      return\n        /* \"contracts/CarLoan/User.sol\":165:193  Status public  currentStatus */\n    tag_5:\n      callvalue\n      dup1\n      iszero\n      tag_22\n      jumpi\n      0x00\n      dup1\n      revert\n    tag_22:\n      pop\n      tag_23\n      tag_24\n      jump\t// in\n    tag_23:\n      mload(0x40)\n      tag_25\n      swap2\n      swap1\n      tag_9\n      jump\t// in\n    tag_25:\n      mload(0x40)\n      dup1\n      swap2\n      sub\n      swap1\n      return\n        /* \"contracts/CarLoan/User.sol\":303:587  function pay() public payable returns(Status){\r... */\n    tag_7:\n        /* \"contracts/CarLoan/User.sol\":341:347  Status */\n      0x00\n        /* \"contracts/CarLoan/User.sol\":385:392  2 ether */\n      0x1bc16d674ec80000\n        /* \"contracts/CarLoan/User.sol\":373:382  msg.value */\n      callvalue\n        /* \"contracts/CarLoan/User.sol\":372:392  (msg.value)>=2 ether */\n      lt\n        /* \"contracts/CarLoan/User.sol\":369:547  if((msg.value)>=2 ether){\r... */\n      tag_27\n      jumpi\n        /* \"contracts/CarLoan/User.sol\":423:432  Status.ok */\n      0x00\n        /* \"contracts/CarLoan/User.sol\":409:422  currentStatus */\n      dup1\n      0x14\n        /* \"contracts/CarLoan/User.sol\":409:432  currentStatus=Status.ok */\n      0x0100\n      exp\n      dup2\n      sload\n      dup2\n      0xff\n      mul\n      not\n      and\n      swap1\n      dup4\n      0x01\n      dup2\n      gt\n      iszero\n      tag_28\n      jumpi\n      tag_29\n      tag_30\n      jump\t// in\n    tag_29:\n    tag_28:\n      mul\n      or\n      swap1\n      sstore\n      pop\n        /* \"contracts/CarLoan/User.sol\":461:465  true */\n      0x01\n        /* \"contracts/CarLoan/User.sol\":448:453  allot */\n      dup1\n        /* \"contracts/CarLoan/User.sol\":448:460  allot[owner] */\n      0x00\n        /* \"contracts/CarLoan/User.sol\":454:459  owner */\n      dup1\n      0x00\n      swap1\n      sload\n      swap1\n      0x0100\n      exp\n      swap1\n      div\n      0xffffffffffffffffffffffffffffffffffffffff\n      and\n        /* \"contracts/CarLoan/User.sol\":448:460  allot[owner] */\n      0xffffffffffffffffffffffffffffffffffffffff\n      and\n      0xffffffffffffffffffffffffffffffffffffffff\n      and\n      dup2\n      mstore\n      0x20\n      add\n      swap1\n      dup2\n      mstore\n      0x20\n      add\n      0x00\n      keccak256\n      0x00\n        /* \"contracts/CarLoan/User.sol\":448:465  allot[owner]=true */\n      0x0100\n      exp\n      dup2\n      sload\n      dup2\n      0xff\n      mul\n      not\n      and\n      swap1\n      dup4\n      iszero\n      iszero\n      mul\n      or\n      swap1\n      sstore\n      pop\n        /* \"contracts/CarLoan/User.sol\":369:547  if((msg.value)>=2 ether){\r... */\n      jump(tag_31)\n    tag_27:\n        /* \"contracts/CarLoan/User.sol\":523:535  Status.notok */\n      0x01\n        /* \"contracts/CarLoan/User.sol\":508:521  currentStatus */\n      0x00\n      0x14\n        /* \"contracts/CarLoan/User.sol\":508:535  currentStatus= Status.notok */\n      0x0100\n      exp\n      dup2\n      sload\n      dup2\n      0xff\n      mul\n      not\n      and\n      swap1\n      dup4\n      0x01\n      dup2\n      gt\n      iszero\n      tag_32\n      jumpi\n      tag_33\n      tag_30\n      jump\t// in\n    tag_33:\n    tag_32:\n      mul\n      or\n      swap1\n      sstore\n      pop\n        /* \"contracts/CarLoan/User.sol\":369:547  if((msg.value)>=2 ether){\r... */\n    tag_31:\n        /* \"contracts/CarLoan/User.sol\":566:579  currentStatus */\n      0x00\n      0x14\n      swap1\n      sload\n      swap1\n      0x0100\n      exp\n      swap1\n      div\n      0xff\n      and\n        /* \"contracts/CarLoan/User.sol\":559:579  return currentStatus */\n      swap1\n      pop\n        /* \"contracts/CarLoan/User.sol\":303:587  function pay() public payable returns(Status){\r... */\n      swap1\n      jump\t// out\n        /* \"contracts/CarLoan/User.sol\":259:294  mapping(address=>bool) public allot */\n    tag_14:\n      mstore(0x20, 0x01)\n      dup1\n      0x00\n      mstore\n      keccak256(0x00, 0x40)\n      0x00\n      swap2\n      pop\n      sload\n      swap1\n      0x0100\n      exp\n      swap1\n      div\n      0xff\n      and\n      dup2\n      jump\t// out\n        /* \"contracts/CarLoan/User.sol\":136:156  address public owner */\n    tag_19:\n      0x00\n      dup1\n      sload\n      swap1\n      0x0100\n      exp\n      swap1\n      div\n      0xffffffffffffffffffffffffffffffffffffffff\n      and\n      dup2\n      jump\t// out\n        /* \"contracts/CarLoan/User.sol\":165:193  Status public  currentStatus */\n    tag_24:\n      0x00\n      0x14\n      swap1\n      sload\n      swap1\n      0x0100\n      exp\n      swap1\n      div\n      0xff\n      and\n      dup2\n      jump\t// out\n        /* \"#utility.yul\":7:146   */\n    tag_35:\n        /* \"#utility.yul\":53:58   */\n      0x00\n        /* \"#utility.yul\":91:97   */\n      dup2\n        /* \"#utility.yul\":78:98   */\n      calldataload\n        /* \"#utility.yul\":69:98   */\n      swap1\n      pop\n        /* \"#utility.yul\":107:140   */\n      tag_37\n        /* \"#utility.yul\":134:139   */\n      dup2\n        /* \"#utility.yul\":107:140   */\n      tag_38\n      jump\t// in\n    tag_37:\n        /* \"#utility.yul\":7:146   */\n      swap3\n      swap2\n      pop\n      pop\n      jump\t// out\n        /* \"#utility.yul\":152:481   */\n    tag_13:\n        /* \"#utility.yul\":211:217   */\n      0x00\n        /* \"#utility.yul\":260:262   */\n      0x20\n        /* \"#utility.yul\":248:257   */\n      dup3\n        /* \"#utility.yul\":239:246   */\n      dup5\n        /* \"#utility.yul\":235:258   */\n      sub\n        /* \"#utility.yul\":231:263   */\n      slt\n        /* \"#utility.yul\":228:347   */\n      iszero\n      tag_40\n      jumpi\n        /* \"#utility.yul\":266:345   */\n      tag_41\n      tag_42\n      jump\t// in\n    tag_41:\n        /* \"#utility.yul\":228:347   */\n    tag_40:\n        /* \"#utility.yul\":386:387   */\n      0x00\n        /* \"#utility.yul\":411:464   */\n      tag_43\n        /* \"#utility.yul\":456:463   */\n      dup5\n        /* \"#utility.yul\":447:453   */\n      dup3\n        /* \"#utility.yul\":436:445   */\n      dup6\n        /* \"#utility.yul\":432:454   */\n      add\n        /* \"#utility.yul\":411:464   */\n      tag_35\n      jump\t// in\n    tag_43:\n        /* \"#utility.yul\":401:464   */\n      swap2\n      pop\n        /* \"#utility.yul\":357:474   */\n      pop\n        /* \"#utility.yul\":152:481   */\n      swap3\n      swap2\n      pop\n      pop\n      jump\t// out\n        /* \"#utility.yul\":487:605   */\n    tag_44:\n        /* \"#utility.yul\":574:598   */\n      tag_46\n        /* \"#utility.yul\":592:597   */\n      dup2\n        /* \"#utility.yul\":574:598   */\n      tag_47\n      jump\t// in\n    tag_46:\n        /* \"#utility.yul\":569:572   */\n      dup3\n        /* \"#utility.yul\":562:599   */\n      mstore\n        /* \"#utility.yul\":487:605   */\n      pop\n      pop\n      jump\t// out\n        /* \"#utility.yul\":611:720   */\n    tag_48:\n        /* \"#utility.yul\":692:713   */\n      tag_50\n        /* \"#utility.yul\":707:712   */\n      dup2\n        /* \"#utility.yul\":692:713   */\n      tag_51\n      jump\t// in\n    tag_50:\n        /* \"#utility.yul\":687:690   */\n      dup3\n        /* \"#utility.yul\":680:714   */\n      mstore\n        /* \"#utility.yul\":611:720   */\n      pop\n      pop\n      jump\t// out\n        /* \"#utility.yul\":726:869   */\n    tag_52:\n        /* \"#utility.yul\":819:862   */\n      tag_54\n        /* \"#utility.yul\":856:861   */\n      dup2\n        /* \"#utility.yul\":819:862   */\n      tag_55\n      jump\t// in\n    tag_54:\n        /* \"#utility.yul\":814:817   */\n      dup3\n        /* \"#utility.yul\":807:863   */\n      mstore\n        /* \"#utility.yul\":726:869   */\n      pop\n      pop\n      jump\t// out\n        /* \"#utility.yul\":875:1097   */\n    tag_21:\n        /* \"#utility.yul\":968:972   */\n      0x00\n        /* \"#utility.yul\":1006:1008   */\n      0x20\n        /* \"#utility.yul\":995:1004   */\n      dup3\n        /* \"#utility.yul\":991:1009   */\n      add\n        /* \"#utility.yul\":983:1009   */\n      swap1\n      pop\n        /* \"#utility.yul\":1019:1090   */\n      tag_57\n        /* \"#utility.yul\":1087:1088   */\n      0x00\n        /* \"#utility.yul\":1076:1085   */\n      dup4\n        /* \"#utility.yul\":1072:1089   */\n      add\n        /* \"#utility.yul\":1063:1069   */\n      dup5\n        /* \"#utility.yul\":1019:1090   */\n      tag_44\n      jump\t// in\n    tag_57:\n        /* \"#utility.yul\":875:1097   */\n      swap3\n      swap2\n      pop\n      pop\n      jump\t// out\n        /* \"#utility.yul\":1103:1313   */\n    tag_16:\n        /* \"#utility.yul\":1190:1194   */\n      0x00\n        /* \"#utility.yul\":1228:1230   */\n      0x20\n        /* \"#utility.yul\":1217:1226   */\n      dup3\n        /* \"#utility.yul\":1213:1231   */\n      add\n        /* \"#utility.yul\":1205:1231   */\n      swap1\n      pop\n        /* \"#utility.yul\":1241:1306   */\n      tag_59\n        /* \"#utility.yul\":1303:1304   */\n      0x00\n        /* \"#utility.yul\":1292:1301   */\n      dup4\n        /* \"#utility.yul\":1288:1305   */\n      add\n        /* \"#utility.yul\":1279:1285   */\n      dup5\n        /* \"#utility.yul\":1241:1306   */\n      tag_48\n      jump\t// in\n    tag_59:\n        /* \"#utility.yul\":1103:1313   */\n      swap3\n      swap2\n      pop\n      pop\n      jump\t// out\n        /* \"#utility.yul\":1319:1553   */\n    tag_9:\n        /* \"#utility.yul\":1418:1422   */\n      0x00\n        /* \"#utility.yul\":1456:1458   */\n      0x20\n        /* \"#utility.yul\":1445:1454   */\n      dup3\n        /* \"#utility.yul\":1441:1459   */\n      add\n        /* \"#utility.yul\":1433:1459   */\n      swap1\n      pop\n        /* \"#utility.yul\":1469:1546   */\n      tag_61\n        /* \"#utility.yul\":1543:1544   */\n      0x00\n        /* \"#utility.yul\":1532:1541   */\n      dup4\n        /* \"#utility.yul\":1528:1545   */\n      add\n        /* \"#utility.yul\":1519:1525   */\n      dup5\n        /* \"#utility.yul\":1469:1546   */\n      tag_52\n      jump\t// in\n    tag_61:\n        /* \"#utility.yul\":1319:1553   */\n      swap3\n      swap2\n      pop\n      pop\n      jump\t// out\n        /* \"#utility.yul\":1640:1736   */\n    tag_47:\n        /* \"#utility.yul\":1677:1684   */\n      0x00\n        /* \"#utility.yul\":1706:1730   */\n      tag_65\n        /* \"#utility.yul\":1724:1729   */\n      dup3\n        /* \"#utility.yul\":1706:1730   */\n      tag_66\n      jump\t// in\n    tag_65:\n        /* \"#utility.yul\":1695:1730   */\n      swap1\n      pop\n        /* \"#utility.yul\":1640:1736   */\n      swap2\n      swap1\n      pop\n      jump\t// out\n        /* \"#utility.yul\":1742:1832   */\n    tag_51:\n        /* \"#utility.yul\":1776:1783   */\n      0x00\n        /* \"#utility.yul\":1819:1824   */\n      dup2\n        /* \"#utility.yul\":1812:1825   */\n      iszero\n        /* \"#utility.yul\":1805:1826   */\n      iszero\n        /* \"#utility.yul\":1794:1826   */\n      swap1\n      pop\n        /* \"#utility.yul\":1742:1832   */\n      swap2\n      swap1\n      pop\n      jump\t// out\n        /* \"#utility.yul\":1838:1965   */\n    tag_68:\n        /* \"#utility.yul\":1883:1890   */\n      0x00\n        /* \"#utility.yul\":1912:1917   */\n      dup2\n        /* \"#utility.yul\":1901:1917   */\n      swap1\n      pop\n        /* \"#utility.yul\":1918:1959   */\n      tag_70\n        /* \"#utility.yul\":1953:1958   */\n      dup3\n        /* \"#utility.yul\":1918:1959   */\n      tag_71\n      jump\t// in\n    tag_70:\n        /* \"#utility.yul\":1838:1965   */\n      swap2\n      swap1\n      pop\n      jump\t// out\n        /* \"#utility.yul\":1971:2097   */\n    tag_66:\n        /* \"#utility.yul\":2008:2015   */\n      0x00\n        /* \"#utility.yul\":2048:2090   */\n      0xffffffffffffffffffffffffffffffffffffffff\n        /* \"#utility.yul\":2041:2046   */\n      dup3\n        /* \"#utility.yul\":2037:2091   */\n      and\n        /* \"#utility.yul\":2026:2091   */\n      swap1\n      pop\n        /* \"#utility.yul\":1971:2097   */\n      swap2\n      swap1\n      pop\n      jump\t// out\n        /* \"#utility.yul\":2103:2230   */\n    tag_55:\n        /* \"#utility.yul\":2159:2168   */\n      0x00\n        /* \"#utility.yul\":2192:2224   */\n      tag_74\n        /* \"#utility.yul\":2218:2223   */\n      dup3\n        /* \"#utility.yul\":2192:2224   */\n      tag_68\n      jump\t// in\n    tag_74:\n        /* \"#utility.yul\":2179:2224   */\n      swap1\n      pop\n        /* \"#utility.yul\":2103:2230   */\n      swap2\n      swap1\n      pop\n      jump\t// out\n        /* \"#utility.yul\":2236:2416   */\n    tag_30:\n        /* \"#utility.yul\":2284:2361   */\n      0x4e487b7100000000000000000000000000000000000000000000000000000000\n        /* \"#utility.yul\":2281:2282   */\n      0x00\n        /* \"#utility.yul\":2274:2362   */\n      mstore\n        /* \"#utility.yul\":2381:2385   */\n      0x21\n        /* \"#utility.yul\":2378:2379   */\n      0x04\n        /* \"#utility.yul\":2371:2386   */\n      mstore\n        /* \"#utility.yul\":2405:2409   */\n      0x24\n        /* \"#utility.yul\":2402:2403   */\n      0x00\n        /* \"#utility.yul\":2395:2410   */\n      revert\n        /* \"#utility.yul\":2545:2662   */\n    tag_42:\n        /* \"#utility.yul\":2654:2655   */\n      0x00\n        /* \"#utility.yul\":2651:2652   */\n      dup1\n        /* \"#utility.yul\":2644:2656   */\n      revert\n        /* \"#utility.yul\":2668:2781   */\n    tag_71:\n        /* \"#utility.yul\":2749:2750   */\n      0x02\n        /* \"#utility.yul\":2742:2747   */\n      dup2\n        /* \"#utility.yul\":2739:2751   */\n      lt\n        /* \"#utility.yul\":2729:2775   */\n      tag_80\n      jumpi\n        /* \"#utility.yul\":2755:2773   */\n      tag_81\n      tag_30\n      jump\t// in\n    tag_81:\n        /* \"#utility.yul\":2729:2775   */\n    tag_80:\n        /* \"#utility.yul\":2668:2781   */\n      pop\n      jump\t// out\n        /* \"#utility.yul\":2787:2909   */\n    tag_38:\n        /* \"#utility.yul\":2860:2884   */\n      tag_83\n        /* \"#utility.yul\":2878:2883   */\n      dup2\n        /* \"#utility.yul\":2860:2884   */\n      tag_47\n      jump\t// in\n    tag_83:\n        /* \"#utility.yul\":2853:2858   */\n      dup2\n        /* \"#utility.yul\":2850:2885   */\n      eq\n        /* \"#utility.yul\":2840:2903   */\n      tag_84\n      jumpi\n        /* \"#utility.yul\":2899:2900   */\n      0x00\n        /* \"#utility.yul\":2896:2897   */\n      dup1\n        /* \"#utility.yul\":2889:2901   */\n      revert\n        /* \"#utility.yul\":2840:2903   */\n    tag_84:\n        /* \"#utility.yul\":2787:2909   */\n      pop\n      jump\t// out\n\n    auxdata: 0xa26469706673582212203da1a0119d51cbce45e2d65ed31a8a815e41df8f033dd6ec0ef5ca1b6f98f9e864736f6c63430008070033\n}\n",
				"bytecode": {
					"linkReferences": {},
					"object": "608060405234801561001057600080fd5b50336000806101000a81548173ffffffffffffffffffffffffffffffffffffffff021916908373ffffffffffffffffffffffffffffffffffffffff1602179055506103fd806100606000396000f3fe60806040526004361061003f5760003560e01c80631b9265b8146100445780633ba5172d146100625780638da5cb5b1461009f578063ef8a9235146100ca575b600080fd5b61004c6100f5565b60405161005991906102ea565b60405180910390f35b34801561006e57600080fd5b506100896004803603810190610084919061025a565b6101ee565b60405161009691906102cf565b60405180910390f35b3480156100ab57600080fd5b506100b461020e565b6040516100c191906102b4565b60405180910390f35b3480156100d657600080fd5b506100df610232565b6040516100ec91906102ea565b60405180910390f35b6000671bc16d674ec8000034106101ad5760008060146101000a81548160ff0219169083600181111561012b5761012a610368565b5b021790555060018060008060009054906101000a900473ffffffffffffffffffffffffffffffffffffffff1673ffffffffffffffffffffffffffffffffffffffff1673ffffffffffffffffffffffffffffffffffffffff16815260200190815260200160002060006101000a81548160ff0219169083151502179055506101d9565b6001600060146101000a81548160ff021916908360018111156101d3576101d2610368565b5b02179055505b600060149054906101000a900460ff16905090565b60016020528060005260406000206000915054906101000a900460ff1681565b60008054906101000a900473ffffffffffffffffffffffffffffffffffffffff1681565b600060149054906101000a900460ff1681565b600081359050610254816103b0565b92915050565b6000602082840312156102705761026f610397565b5b600061027e84828501610245565b91505092915050565b61029081610305565b82525050565b61029f81610317565b82525050565b6102ae81610356565b82525050565b60006020820190506102c96000830184610287565b92915050565b60006020820190506102e46000830184610296565b92915050565b60006020820190506102ff60008301846102a5565b92915050565b600061031082610336565b9050919050565b60008115159050919050565b60008190506103318261039c565b919050565b600073ffffffffffffffffffffffffffffffffffffffff82169050919050565b600061036182610323565b9050919050565b7f4e487b7100000000000000000000000000000000000000000000000000000000600052602160045260246000fd5b600080fd5b600281106103ad576103ac610368565b5b50565b6103b981610305565b81146103c457600080fd5b5056fea26469706673582212203da1a0119d51cbce45e2d65ed31a8a815e41df8f033dd6ec0ef5ca1b6f98f9e864736f6c63430008070033",
					"opcodes": "PUSH1 0x80 PUSH1 0x40 MSTORE CALLVALUE DUP1 ISZERO PUSH2 0x10 JUMPI PUSH1 0x0 DUP1 REVERT JUMPDEST POP CALLER PUSH1 0x0 DUP1 PUSH2 0x100 EXP DUP2 SLOAD DUP2 PUSH20 0xFFFFFFFFFFFFFFFFFFFFFFFFFFFFFFFFFFFFFFFF MUL NOT AND SWAP1 DUP4 PUSH20 0xFFFFFFFFFFFFFFFFFFFFFFFFFFFFFFFFFFFFFFFF AND MUL OR SWAP1 SSTORE POP PUSH2 0x3FD DUP1 PUSH2 0x60 PUSH1 0x0 CODECOPY PUSH1 0x0 RETURN INVALID PUSH1 0x80 PUSH1 0x40 MSTORE PUSH1 0x4 CALLDATASIZE LT PUSH2 0x3F JUMPI PUSH1 0x0 CALLDATALOAD PUSH1 0xE0 SHR DUP1 PUSH4 0x1B9265B8 EQ PUSH2 0x44 JUMPI DUP1 PUSH4 0x3BA5172D EQ PUSH2 0x62 JUMPI DUP1 PUSH4 0x8DA5CB5B EQ PUSH2 0x9F JUMPI DUP1 PUSH4 0xEF8A9235 EQ PUSH2 0xCA JUMPI JUMPDEST PUSH1 0x0 DUP1 REVERT JUMPDEST PUSH2 0x4C PUSH2 0xF5 JUMP JUMPDEST PUSH1 0x40 MLOAD PUSH2 0x59 SWAP2 SWAP1 PUSH2 0x2EA JUMP JUMPDEST PUSH1 0x40 MLOAD DUP1 SWAP2 SUB SWAP1 RETURN JUMPDEST CALLVALUE DUP1 ISZERO PUSH2 0x6E JUMPI PUSH1 0x0 DUP1 REVERT JUMPDEST POP PUSH2 0x89 PUSH1 0x4 DUP1 CALLDATASIZE SUB DUP2 ADD SWAP1 PUSH2 0x84 SWAP2 SWAP1 PUSH2 0x25A JUMP JUMPDEST PUSH2 0x1EE JUMP JUMPDEST PUSH1 0x40 MLOAD PUSH2 0x96 SWAP2 SWAP1 PUSH2 0x2CF JUMP JUMPDEST PUSH1 0x40 MLOAD DUP1 SWAP2 SUB SWAP1 RETURN JUMPDEST CALLVALUE DUP1 ISZERO PUSH2 0xAB JUMPI PUSH1 0x0 DUP1 REVERT JUMPDEST POP PUSH2 0xB4 PUSH2 0x20E JUMP JUMPDEST PUSH1 0x40 MLOAD PUSH2 0xC1 SWAP2 SWAP1 PUSH2 0x2B4 JUMP JUMPDEST PUSH1 0x40 MLOAD DUP1 SWAP2 SUB SWAP1 RETURN JUMPDEST CALLVALUE DUP1 ISZERO PUSH2 0xD6 JUMPI PUSH1 0x0 DUP1 REVERT JUMPDEST POP PUSH2 0xDF PUSH2 0x232 JUMP JUMPDEST PUSH1 0x40 MLOAD PUSH2 0xEC SWAP2 SWAP1 PUSH2 0x2EA JUMP JUMPDEST PUSH1 0x40 MLOAD DUP1 SWAP2 SUB SWAP1 RETURN JUMPDEST PUSH1 0x0 PUSH8 0x1BC16D674EC80000 CALLVALUE LT PUSH2 0x1AD JUMPI PUSH1 0x0 DUP1 PUSH1 0x14 PUSH2 0x100 EXP DUP2 SLOAD DUP2 PUSH1 0xFF MUL NOT AND SWAP1 DUP4 PUSH1 0x1 DUP2 GT ISZERO PUSH2 0x12B JUMPI PUSH2 0x12A PUSH2 0x368 JUMP JUMPDEST JUMPDEST MUL OR SWAP1 SSTORE POP PUSH1 0x1 DUP1 PUSH1 0x0 DUP1 PUSH1 0x0 SWAP1 SLOAD SWAP1 PUSH2 0x100 EXP SWAP1 DIV PUSH20 0xFFFFFFFFFFFFFFFFFFFFFFFFFFFFFFFFFFFFFFFF AND PUSH20 0xFFFFFFFFFFFFFFFFFFFFFFFFFFFFFFFFFFFFFFFF AND PUSH20 0xFFFFFFFFFFFFFFFFFFFFFFFFFFFFFFFFFFFFFFFF AND DUP2 MSTORE PUSH1 0x20 ADD SWAP1 DUP2 MSTORE PUSH1 0x20 ADD PUSH1 0x0 KECCAK256 PUSH1 0x0 PUSH2 0x100 EXP DUP2 SLOAD DUP2 PUSH1 0xFF MUL NOT AND SWAP1 DUP4 ISZERO ISZERO MUL OR SWAP1 SSTORE POP PUSH2 0x1D9 JUMP JUMPDEST PUSH1 0x1 PUSH1 0x0 PUSH1 0x14 PUSH2 0x100 EXP DUP2 SLOAD DUP2 PUSH1 0xFF MUL NOT AND SWAP1 DUP4 PUSH1 0x1 DUP2 GT ISZERO PUSH2 0x1D3 JUMPI PUSH2 0x1D2 PUSH2 0x368 JUMP JUMPDEST JUMPDEST MUL OR SWAP1 SSTORE POP JUMPDEST PUSH1 0x0 PUSH1 0x14 SWAP1 SLOAD SWAP1 PUSH2 0x100 EXP SWAP1 DIV PUSH1 0xFF AND SWAP1 POP SWAP1 JUMP JUMPDEST PUSH1 0x1 PUSH1 0x20 MSTORE DUP1 PUSH1 0x0 MSTORE PUSH1 0x40 PUSH1 0x0 KECCAK256 PUSH1 0x0 SWAP2 POP SLOAD SWAP1 PUSH2 0x100 EXP SWAP1 DIV PUSH1 0xFF AND DUP2 JUMP JUMPDEST PUSH1 0x0 DUP1 SLOAD SWAP1 PUSH2 0x100 EXP SWAP1 DIV PUSH20 0xFFFFFFFFFFFFFFFFFFFFFFFFFFFFFFFFFFFFFFFF AND DUP2 JUMP JUMPDEST PUSH1 0x0 PUSH1 0x14 SWAP1 SLOAD SWAP1 PUSH2 0x100 EXP SWAP1 DIV PUSH1 0xFF AND DUP2 JUMP JUMPDEST PUSH1 0x0 DUP2 CALLDATALOAD SWAP1 POP PUSH2 0x254 DUP2 PUSH2 0x3B0 JUMP JUMPDEST SWAP3 SWAP2 POP POP JUMP JUMPDEST PUSH1 0x0 PUSH1 0x20 DUP3 DUP5 SUB SLT ISZERO PUSH2 0x270 JUMPI PUSH2 0x26F PUSH2 0x397 JUMP JUMPDEST JUMPDEST PUSH1 0x0 PUSH2 0x27E DUP5 DUP3 DUP6 ADD PUSH2 0x245 JUMP JUMPDEST SWAP2 POP POP SWAP3 SWAP2 POP POP JUMP JUMPDEST PUSH2 0x290 DUP2 PUSH2 0x305 JUMP JUMPDEST DUP3 MSTORE POP POP JUMP JUMPDEST PUSH2 0x29F DUP2 PUSH2 0x317 JUMP JUMPDEST DUP3 MSTORE POP POP JUMP JUMPDEST PUSH2 0x2AE DUP2 PUSH2 0x356 JUMP JUMPDEST DUP3 MSTORE POP POP JUMP JUMPDEST PUSH1 0x0 PUSH1 0x20 DUP3 ADD SWAP1 POP PUSH2 0x2C9 PUSH1 0x0 DUP4 ADD DUP5 PUSH2 0x287 JUMP JUMPDEST SWAP3 SWAP2 POP POP JUMP JUMPDEST PUSH1 0x0 PUSH1 0x20 DUP3 ADD SWAP1 POP PUSH2 0x2E4 PUSH1 0x0 DUP4 ADD DUP5 PUSH2 0x296 JUMP JUMPDEST SWAP3 SWAP2 POP POP JUMP JUMPDEST PUSH1 0x0 PUSH1 0x20 DUP3 ADD SWAP1 POP PUSH2 0x2FF PUSH1 0x0 DUP4 ADD DUP5 PUSH2 0x2A5 JUMP JUMPDEST SWAP3 SWAP2 POP POP JUMP JUMPDEST PUSH1 0x0 PUSH2 0x310 DUP3 PUSH2 0x336 JUMP JUMPDEST SWAP1 POP SWAP2 SWAP1 POP JUMP JUMPDEST PUSH1 0x0 DUP2 ISZERO ISZERO SWAP1 POP SWAP2 SWAP1 POP JUMP JUMPDEST PUSH1 0x0 DUP2 SWAP1 POP PUSH2 0x331 DUP3 PUSH2 0x39C JUMP JUMPDEST SWAP2 SWAP1 POP JUMP JUMPDEST PUSH1 0x0 PUSH20 0xFFFFFFFFFFFFFFFFFFFFFFFFFFFFFFFFFFFFFFFF DUP3 AND SWAP1 POP SWAP2 SWAP1 POP JUMP JUMPDEST PUSH1 0x0 PUSH2 0x361 DUP3 PUSH2 0x323 JUMP JUMPDEST SWAP1 POP SWAP2 SWAP1 POP JUMP JUMPDEST PUSH32 0x4E487B7100000000000000000000000000000000000000000000000000000000 PUSH1 0x0 MSTORE PUSH1 0x21 PUSH1 0x4 MSTORE PUSH1 0x24 PUSH1 0x0 REVERT JUMPDEST PUSH1 0x0 DUP1 REVERT JUMPDEST PUSH1 0x2 DUP2 LT PUSH2 0x3AD JUMPI PUSH2 0x3AC PUSH2 0x368 JUMP JUMPDEST JUMPDEST POP JUMP JUMPDEST PUSH2 0x3B9 DUP2 PUSH2 0x305 JUMP JUMPDEST DUP2 EQ PUSH2 0x3C4 JUMPI PUSH1 0x0 DUP1 REVERT JUMPDEST POP JUMP INVALID LOG2 PUSH5 0x6970667358 0x22 SLT KECCAK256 RETURNDATASIZE LOG1 LOG0 GT SWAP14 MLOAD 0xCB 0xCE GASLIMIT 0xE2 0xD6 0x5E 0xD3 BYTE DUP11 DUP2 0x5E COINBASE 0xDF DUP16 SUB RETURNDATASIZE 0xD6 0xEC 0xE CREATE2 0xCA SHL PUSH16 0x98F9E864736F6C634300080700330000 "
				},
				"gasEstimates": {
					"creation": {
						"codeDepositCost": "204200",
						"executionCost": "24511",
						"totalCost": "228711"
					},
					"external": {
						"allot(address)": "2845",
						"currentStatus()": "2654",
						"owner()": "2533",
						"pay()": "53435"
					}
				},
				"methodIdentifiers": {
					"allot(address)": "3ba5172d",
					"currentStatus()": "ef8a9235",
					"owner()": "8da5cb5b",
					"pay()": "1b9265b8"
				}
			},
			"storageLayout": {
				"storage": [
					{
						"astId": 6,
						"contract": "contracts/CarLoan/User.sol:User",
						"label": "owner",
						"offset": 0,
						"slot": "0",
						"type": "t_address"
					},
					{
						"astId": 9,
						"contract": "contracts/CarLoan/User.sol:User",
						"label": "currentStatus",
						"offset": 20,
						"slot": "0",
						"type": "t_enum(Status)4"
					},
					{
						"astId": 23,
						"contract": "contracts/CarLoan/User.sol:User",
						"label": "allot",
						"offset": 0,
						"slot": "1",
						"type": "t_mapping(t_address,t_bool)"
					}
				],
				"types": {
					"t_address": {
						"encoding": "inplace",
						"label": "address",
						"numberOfBytes": "20"
					},
					"t_bool": {
						"encoding": "inplace",
						"label": "bool",
						"numberOfBytes": "1"
					},
					"t_enum(Status)4": {
						"encoding": "inplace",
						"label": "enum User.Status",
						"numberOfBytes": "1"
					},
					"t_mapping(t_address,t_bool)": {
						"encoding": "mapping",
						"key": "t_address",
						"label": "mapping(address => bool)",
						"numberOfBytes": "32",
						"value": "t_bool"
					}
				}
			},
			"userdoc": {
				"kind": "user",
				"methods": {},
				"version": 1
			}
		}
	}
}