{
	"contracts/CarLoan/User.sol": {
		"User": {
			"abi": [
				{
					"inputs": [],
					"stateMutability": "nonpayable",
					"type": "constructor"
				},
				{
					"inputs": [],
					"name": "currentStatus",
					"outputs": [
						{
							"internalType": "enum User.Status",
							"name": "",
							"type": "uint8"
						}
					],
					"stateMutability": "view",
					"type": "function"
				},
				{
					"inputs": [],
					"name": "owner",
					"outputs": [
						{
							"internalType": "address",
							"name": "",
							"type": "address"
						}
					],
					"stateMutability": "view",
					"type": "function"
				},
				{
					"inputs": [],
					"name": "pay",
					"outputs": [
						{
							"internalType": "enum User.Status",
							"name": "",
							"type": "uint8"
						}
					],
					"stateMutability": "payable",
					"type": "function"
				}
			],
			"devdoc": {
				"kind": "dev",
				"methods": {},
				"version": 1
			},
			"evm": {
				"assembly": "    /* \"contracts/CarLoan/User.sol\":56:513  contract User{\r... */\n  mstore(0x40, 0x80)\n    /* \"contracts/CarLoan/User.sol\":200:251  constructor(){\r... */\n  callvalue\n  dup1\n  iszero\n  tag_1\n  jumpi\n  0x00\n  dup1\n  revert\ntag_1:\n  pop\n    /* \"contracts/CarLoan/User.sol\":232:242  msg.sender */\n  caller\n    /* \"contracts/CarLoan/User.sol\":224:229  owner */\n  0x00\n  dup1\n    /* \"contracts/CarLoan/User.sol\":224:243  owner= (msg.sender) */\n  0x0100\n  exp\n  dup2\n  sload\n  dup2\n  0xffffffffffffffffffffffffffffffffffffffff\n  mul\n  not\n  and\n  swap1\n  dup4\n  0xffffffffffffffffffffffffffffffffffffffff\n  and\n  mul\n  or\n  swap1\n  sstore\n  pop\n    /* \"contracts/CarLoan/User.sol\":56:513  contract User{\r... */\n  dataSize(sub_0)\n  dup1\n  dataOffset(sub_0)\n  0x00\n  codecopy\n  0x00\n  return\nstop\n\nsub_0: assembly {\n        /* \"contracts/CarLoan/User.sol\":56:513  contract User{\r... */\n      mstore(0x40, 0x80)\n      jumpi(tag_1, lt(calldatasize, 0x04))\n      shr(0xe0, calldataload(0x00))\n      dup1\n      0x1b9265b8\n      eq\n      tag_2\n      jumpi\n      dup1\n      0x8da5cb5b\n      eq\n      tag_3\n      jumpi\n      dup1\n      0xef8a9235\n      eq\n      tag_4\n      jumpi\n    tag_1:\n      0x00\n      dup1\n      revert\n        /* \"contracts/CarLoan/User.sol\":259:510  function pay() public payable returns(Status){\r... */\n    tag_2:\n      tag_5\n      tag_6\n      jump\t// in\n    tag_5:\n      mload(0x40)\n      tag_7\n      swap2\n      swap1\n      tag_8\n      jump\t// in\n    tag_7:\n      mload(0x40)\n      dup1\n      swap2\n      sub\n      swap1\n      return\n        /* \"contracts/CarLoan/User.sol\":136:156  address public owner */\n    tag_3:\n      callvalue\n      dup1\n      iszero\n      tag_9\n      jumpi\n      0x00\n      dup1\n      revert\n    tag_9:\n      pop\n      tag_10\n      tag_11\n      jump\t// in\n    tag_10:\n      mload(0x40)\n      tag_12\n      swap2\n      swap1\n      tag_13\n      jump\t// in\n    tag_12:\n      mload(0x40)\n      dup1\n      swap2\n      sub\n      swap1\n      return\n        /* \"contracts/CarLoan/User.sol\":165:193  Status public  currentStatus */\n    tag_4:\n      callvalue\n      dup1\n      iszero\n      tag_14\n      jumpi\n      0x00\n      dup1\n      revert\n    tag_14:\n      pop\n      tag_15\n      tag_16\n      jump\t// in\n    tag_15:\n      mload(0x40)\n      tag_17\n      swap2\n      swap1\n      tag_8\n      jump\t// in\n    tag_17:\n      mload(0x40)\n      dup1\n      swap2\n      sub\n      swap1\n      return\n        /* \"contracts/CarLoan/User.sol\":259:510  function pay() public payable returns(Status){\r... */\n    tag_6:\n        /* \"contracts/CarLoan/User.sol\":297:303  Status */\n      0x00\n        /* \"contracts/CarLoan/User.sol\":341:348  2 ether */\n      0x1bc16d674ec80000\n        /* \"contracts/CarLoan/User.sol\":329:338  msg.value */\n      callvalue\n        /* \"contracts/CarLoan/User.sol\":328:348  (msg.value)>=2 ether */\n      lt\n        /* \"contracts/CarLoan/User.sol\":325:470  if((msg.value)>=2 ether){\r... */\n      tag_19\n      jumpi\n        /* \"contracts/CarLoan/User.sol\":379:388  Status.ok */\n      0x00\n        /* \"contracts/CarLoan/User.sol\":365:378  currentStatus */\n      dup1\n      0x14\n        /* \"contracts/CarLoan/User.sol\":365:388  currentStatus=Status.ok */\n      0x0100\n      exp\n      dup2\n      sload\n      dup2\n      0xff\n      mul\n      not\n      and\n      swap1\n      dup4\n      0x01\n      dup2\n      gt\n      iszero\n      tag_20\n      jumpi\n      tag_21\n      tag_22\n      jump\t// in\n    tag_21:\n    tag_20:\n      mul\n      or\n      swap1\n      sstore\n      pop\n        /* \"contracts/CarLoan/User.sol\":325:470  if((msg.value)>=2 ether){\r... */\n      jump(tag_23)\n    tag_19:\n        /* \"contracts/CarLoan/User.sol\":446:458  Status.notok */\n      0x01\n        /* \"contracts/CarLoan/User.sol\":431:444  currentStatus */\n      0x00\n      0x14\n        /* \"contracts/CarLoan/User.sol\":431:458  currentStatus= Status.notok */\n      0x0100\n      exp\n      dup2\n      sload\n      dup2\n      0xff\n      mul\n      not\n      and\n      swap1\n      dup4\n      0x01\n      dup2\n      gt\n      iszero\n      tag_24\n      jumpi\n      tag_25\n      tag_22\n      jump\t// in\n    tag_25:\n    tag_24:\n      mul\n      or\n      swap1\n      sstore\n      pop\n        /* \"contracts/CarLoan/User.sol\":325:470  if((msg.value)>=2 ether){\r... */\n    tag_23:\n        /* \"contracts/CarLoan/User.sol\":489:502  currentStatus */\n      0x00\n      0x14\n      swap1\n      sload\n      swap1\n      0x0100\n      exp\n      swap1\n      div\n      0xff\n      and\n        /* \"contracts/CarLoan/User.sol\":482:502  return currentStatus */\n      swap1\n      pop\n        /* \"contracts/CarLoan/User.sol\":259:510  function pay() public payable returns(Status){\r... */\n      swap1\n      jump\t// out\n        /* \"contracts/CarLoan/User.sol\":136:156  address public owner */\n    tag_11:\n      0x00\n      dup1\n      sload\n      swap1\n      0x0100\n      exp\n      swap1\n      div\n      0xffffffffffffffffffffffffffffffffffffffff\n      and\n      dup2\n      jump\t// out\n        /* \"contracts/CarLoan/User.sol\":165:193  Status public  currentStatus */\n    tag_16:\n      0x00\n      0x14\n      swap1\n      sload\n      swap1\n      0x0100\n      exp\n      swap1\n      div\n      0xff\n      and\n      dup2\n      jump\t// out\n        /* \"#utility.yul\":7:125   */\n    tag_27:\n        /* \"#utility.yul\":94:118   */\n      tag_29\n        /* \"#utility.yul\":112:117   */\n      dup2\n        /* \"#utility.yul\":94:118   */\n      tag_30\n      jump\t// in\n    tag_29:\n        /* \"#utility.yul\":89:92   */\n      dup3\n        /* \"#utility.yul\":82:119   */\n      mstore\n        /* \"#utility.yul\":7:125   */\n      pop\n      pop\n      jump\t// out\n        /* \"#utility.yul\":131:274   */\n    tag_31:\n        /* \"#utility.yul\":224:267   */\n      tag_33\n        /* \"#utility.yul\":261:266   */\n      dup2\n        /* \"#utility.yul\":224:267   */\n      tag_34\n      jump\t// in\n    tag_33:\n        /* \"#utility.yul\":219:222   */\n      dup3\n        /* \"#utility.yul\":212:268   */\n      mstore\n        /* \"#utility.yul\":131:274   */\n      pop\n      pop\n      jump\t// out\n        /* \"#utility.yul\":280:502   */\n    tag_13:\n        /* \"#utility.yul\":373:377   */\n      0x00\n        /* \"#utility.yul\":411:413   */\n      0x20\n        /* \"#utility.yul\":400:409   */\n      dup3\n        /* \"#utility.yul\":396:414   */\n      add\n        /* \"#utility.yul\":388:414   */\n      swap1\n      pop\n        /* \"#utility.yul\":424:495   */\n      tag_36\n        /* \"#utility.yul\":492:493   */\n      0x00\n        /* \"#utility.yul\":481:490   */\n      dup4\n        /* \"#utility.yul\":477:494   */\n      add\n        /* \"#utility.yul\":468:474   */\n      dup5\n        /* \"#utility.yul\":424:495   */\n      tag_27\n      jump\t// in\n    tag_36:\n        /* \"#utility.yul\":280:502   */\n      swap3\n      swap2\n      pop\n      pop\n      jump\t// out\n        /* \"#utility.yul\":508:742   */\n    tag_8:\n        /* \"#utility.yul\":607:611   */\n      0x00\n        /* \"#utility.yul\":645:647   */\n      0x20\n        /* \"#utility.yul\":634:643   */\n      dup3\n        /* \"#utility.yul\":630:648   */\n      add\n        /* \"#utility.yul\":622:648   */\n      swap1\n      pop\n        /* \"#utility.yul\":658:735   */\n      tag_38\n        /* \"#utility.yul\":732:733   */\n      0x00\n        /* \"#utility.yul\":721:730   */\n      dup4\n        /* \"#utility.yul\":717:734   */\n      add\n        /* \"#utility.yul\":708:714   */\n      dup5\n        /* \"#utility.yul\":658:735   */\n      tag_31\n      jump\t// in\n    tag_38:\n        /* \"#utility.yul\":508:742   */\n      swap3\n      swap2\n      pop\n      pop\n      jump\t// out\n        /* \"#utility.yul\":748:844   */\n    tag_30:\n        /* \"#utility.yul\":785:792   */\n      0x00\n        /* \"#utility.yul\":814:838   */\n      tag_40\n        /* \"#utility.yul\":832:837   */\n      dup3\n        /* \"#utility.yul\":814:838   */\n      tag_41\n      jump\t// in\n    tag_40:\n        /* \"#utility.yul\":803:838   */\n      swap1\n      pop\n        /* \"#utility.yul\":748:844   */\n      swap2\n      swap1\n      pop\n      jump\t// out\n        /* \"#utility.yul\":850:977   */\n    tag_42:\n        /* \"#utility.yul\":895:902   */\n      0x00\n        /* \"#utility.yul\":924:929   */\n      dup2\n        /* \"#utility.yul\":913:929   */\n      swap1\n      pop\n        /* \"#utility.yul\":930:971   */\n      tag_44\n        /* \"#utility.yul\":965:970   */\n      dup3\n        /* \"#utility.yul\":930:971   */\n      tag_45\n      jump\t// in\n    tag_44:\n        /* \"#utility.yul\":850:977   */\n      swap2\n      swap1\n      pop\n      jump\t// out\n        /* \"#utility.yul\":983:1109   */\n    tag_41:\n        /* \"#utility.yul\":1020:1027   */\n      0x00\n        /* \"#utility.yul\":1060:1102   */\n      0xffffffffffffffffffffffffffffffffffffffff\n        /* \"#utility.yul\":1053:1058   */\n      dup3\n        /* \"#utility.yul\":1049:1103   */\n      and\n        /* \"#utility.yul\":1038:1103   */\n      swap1\n      pop\n        /* \"#utility.yul\":983:1109   */\n      swap2\n      swap1\n      pop\n      jump\t// out\n        /* \"#utility.yul\":1115:1242   */\n    tag_34:\n        /* \"#utility.yul\":1171:1180   */\n      0x00\n        /* \"#utility.yul\":1204:1236   */\n      tag_48\n        /* \"#utility.yul\":1230:1235   */\n      dup3\n        /* \"#utility.yul\":1204:1236   */\n      tag_42\n      jump\t// in\n    tag_48:\n        /* \"#utility.yul\":1191:1236   */\n      swap1\n      pop\n        /* \"#utility.yul\":1115:1242   */\n      swap2\n      swap1\n      pop\n      jump\t// out\n        /* \"#utility.yul\":1248:1428   */\n    tag_22:\n        /* \"#utility.yul\":1296:1373   */\n      0x4e487b7100000000000000000000000000000000000000000000000000000000\n        /* \"#utility.yul\":1293:1294   */\n      0x00\n        /* \"#utility.yul\":1286:1374   */\n      mstore\n        /* \"#utility.yul\":1393:1397   */\n      0x21\n        /* \"#utility.yul\":1390:1391   */\n      0x04\n        /* \"#utility.yul\":1383:1398   */\n      mstore\n        /* \"#utility.yul\":1417:1421   */\n      0x24\n        /* \"#utility.yul\":1414:1415   */\n      0x00\n        /* \"#utility.yul\":1407:1422   */\n      revert\n        /* \"#utility.yul\":1434:1547   */\n    tag_45:\n        /* \"#utility.yul\":1515:1516   */\n      0x02\n        /* \"#utility.yul\":1508:1513   */\n      dup2\n        /* \"#utility.yul\":1505:1517   */\n      lt\n        /* \"#utility.yul\":1495:1541   */\n      tag_51\n      jumpi\n        /* \"#utility.yul\":1521:1539   */\n      tag_52\n      tag_22\n      jump\t// in\n    tag_52:\n        /* \"#utility.yul\":1495:1541   */\n    tag_51:\n        /* \"#utility.yul\":1434:1547   */\n      pop\n      jump\t// out\n\n    auxdata: 0xa26469706673582212209e4e5999c9f2724caa2f951b0632504747f0d53c325f2355a73468121853022d64736f6c63430008070033\n}\n",
				"bytecode": {
					"linkReferences": {},
					"object": "608060405234801561001057600080fd5b50336000806101000a81548173ffffffffffffffffffffffffffffffffffffffff021916908373ffffffffffffffffffffffffffffffffffffffff160217905550610289806100606000396000f3fe6080604052600436106100345760003560e01c80631b9265b8146100395780638da5cb5b14610057578063ef8a923514610082575b600080fd5b6100416100ad565b60405161004e919061019e565b60405180910390f35b34801561006357600080fd5b5061006c61012e565b6040516100799190610183565b60405180910390f35b34801561008e57600080fd5b50610097610152565b6040516100a4919061019e565b60405180910390f35b6000671bc16d674ec8000034106100ed5760008060146101000a81548160ff021916908360018111156100e3576100e2610210565b5b0217905550610119565b6001600060146101000a81548160ff0219169083600181111561011357610112610210565b5b02179055505b600060149054906101000a900460ff16905090565b60008054906101000a900473ffffffffffffffffffffffffffffffffffffffff1681565b600060149054906101000a900460ff1681565b61016e816101b9565b82525050565b61017d816101fe565b82525050565b60006020820190506101986000830184610165565b92915050565b60006020820190506101b36000830184610174565b92915050565b60006101c4826101de565b9050919050565b60008190506101d98261023f565b919050565b600073ffffffffffffffffffffffffffffffffffffffff82169050919050565b6000610209826101cb565b9050919050565b7f4e487b7100000000000000000000000000000000000000000000000000000000600052602160045260246000fd5b600281106102505761024f610210565b5b5056fea26469706673582212209e4e5999c9f2724caa2f951b0632504747f0d53c325f2355a73468121853022d64736f6c63430008070033",
					"opcodes": "PUSH1 0x80 PUSH1 0x40 MSTORE CALLVALUE DUP1 ISZERO PUSH2 0x10 JUMPI PUSH1 0x0 DUP1 REVERT JUMPDEST POP CALLER PUSH1 0x0 DUP1 PUSH2 0x100 EXP DUP2 SLOAD DUP2 PUSH20 0xFFFFFFFFFFFFFFFFFFFFFFFFFFFFFFFFFFFFFFFF MUL NOT AND SWAP1 DUP4 PUSH20 0xFFFFFFFFFFFFFFFFFFFFFFFFFFFFFFFFFFFFFFFF AND MUL OR SWAP1 SSTORE POP PUSH2 0x289 DUP1 PUSH2 0x60 PUSH1 0x0 CODECOPY PUSH1 0x0 RETURN INVALID PUSH1 0x80 PUSH1 0x40 MSTORE PUSH1 0x4 CALLDATASIZE LT PUSH2 0x34 JUMPI PUSH1 0x0 CALLDATALOAD PUSH1 0xE0 SHR DUP1 PUSH4 0x1B9265B8 EQ PUSH2 0x39 JUMPI DUP1 PUSH4 0x8DA5CB5B EQ PUSH2 0x57 JUMPI DUP1 PUSH4 0xEF8A9235 EQ PUSH2 0x82 JUMPI JUMPDEST PUSH1 0x0 DUP1 REVERT JUMPDEST PUSH2 0x41 PUSH2 0xAD JUMP JUMPDEST PUSH1 0x40 MLOAD PUSH2 0x4E SWAP2 SWAP1 PUSH2 0x19E JUMP JUMPDEST PUSH1 0x40 MLOAD DUP1 SWAP2 SUB SWAP1 RETURN JUMPDEST CALLVALUE DUP1 ISZERO PUSH2 0x63 JUMPI PUSH1 0x0 DUP1 REVERT JUMPDEST POP PUSH2 0x6C PUSH2 0x12E JUMP JUMPDEST PUSH1 0x40 MLOAD PUSH2 0x79 SWAP2 SWAP1 PUSH2 0x183 JUMP JUMPDEST PUSH1 0x40 MLOAD DUP1 SWAP2 SUB SWAP1 RETURN JUMPDEST CALLVALUE DUP1 ISZERO PUSH2 0x8E JUMPI PUSH1 0x0 DUP1 REVERT JUMPDEST POP PUSH2 0x97 PUSH2 0x152 JUMP JUMPDEST PUSH1 0x40 MLOAD PUSH2 0xA4 SWAP2 SWAP1 PUSH2 0x19E JUMP JUMPDEST PUSH1 0x40 MLOAD DUP1 SWAP2 SUB SWAP1 RETURN JUMPDEST PUSH1 0x0 PUSH8 0x1BC16D674EC80000 CALLVALUE LT PUSH2 0xED JUMPI PUSH1 0x0 DUP1 PUSH1 0x14 PUSH2 0x100 EXP DUP2 SLOAD DUP2 PUSH1 0xFF MUL NOT AND SWAP1 DUP4 PUSH1 0x1 DUP2 GT ISZERO PUSH2 0xE3 JUMPI PUSH2 0xE2 PUSH2 0x210 JUMP JUMPDEST JUMPDEST MUL OR SWAP1 SSTORE POP PUSH2 0x119 JUMP JUMPDEST PUSH1 0x1 PUSH1 0x0 PUSH1 0x14 PUSH2 0x100 EXP DUP2 SLOAD DUP2 PUSH1 0xFF MUL NOT AND SWAP1 DUP4 PUSH1 0x1 DUP2 GT ISZERO PUSH2 0x113 JUMPI PUSH2 0x112 PUSH2 0x210 JUMP JUMPDEST JUMPDEST MUL OR SWAP1 SSTORE POP JUMPDEST PUSH1 0x0 PUSH1 0x14 SWAP1 SLOAD SWAP1 PUSH2 0x100 EXP SWAP1 DIV PUSH1 0xFF AND SWAP1 POP SWAP1 JUMP JUMPDEST PUSH1 0x0 DUP1 SLOAD SWAP1 PUSH2 0x100 EXP SWAP1 DIV PUSH20 0xFFFFFFFFFFFFFFFFFFFFFFFFFFFFFFFFFFFFFFFF AND DUP2 JUMP JUMPDEST PUSH1 0x0 PUSH1 0x14 SWAP1 SLOAD SWAP1 PUSH2 0x100 EXP SWAP1 DIV PUSH1 0xFF AND DUP2 JUMP JUMPDEST PUSH2 0x16E DUP2 PUSH2 0x1B9 JUMP JUMPDEST DUP3 MSTORE POP POP JUMP JUMPDEST PUSH2 0x17D DUP2 PUSH2 0x1FE JUMP JUMPDEST DUP3 MSTORE POP POP JUMP JUMPDEST PUSH1 0x0 PUSH1 0x20 DUP3 ADD SWAP1 POP PUSH2 0x198 PUSH1 0x0 DUP4 ADD DUP5 PUSH2 0x165 JUMP JUMPDEST SWAP3 SWAP2 POP POP JUMP JUMPDEST PUSH1 0x0 PUSH1 0x20 DUP3 ADD SWAP1 POP PUSH2 0x1B3 PUSH1 0x0 DUP4 ADD DUP5 PUSH2 0x174 JUMP JUMPDEST SWAP3 SWAP2 POP POP JUMP JUMPDEST PUSH1 0x0 PUSH2 0x1C4 DUP3 PUSH2 0x1DE JUMP JUMPDEST SWAP1 POP SWAP2 SWAP1 POP JUMP JUMPDEST PUSH1 0x0 DUP2 SWAP1 POP PUSH2 0x1D9 DUP3 PUSH2 0x23F JUMP JUMPDEST SWAP2 SWAP1 POP JUMP JUMPDEST PUSH1 0x0 PUSH20 0xFFFFFFFFFFFFFFFFFFFFFFFFFFFFFFFFFFFFFFFF DUP3 AND SWAP1 POP SWAP2 SWAP1 POP JUMP JUMPDEST PUSH1 0x0 PUSH2 0x209 DUP3 PUSH2 0x1CB JUMP JUMPDEST SWAP1 POP SWAP2 SWAP1 POP JUMP JUMPDEST PUSH32 0x4E487B7100000000000000000000000000000000000000000000000000000000 PUSH1 0x0 MSTORE PUSH1 0x21 PUSH1 0x4 MSTORE PUSH1 0x24 PUSH1 0x0 REVERT JUMPDEST PUSH1 0x2 DUP2 LT PUSH2 0x250 JUMPI PUSH2 0x24F PUSH2 0x210 JUMP JUMPDEST JUMPDEST POP JUMP INVALID LOG2 PUSH5 0x6970667358 0x22 SLT KECCAK256 SWAP15 0x4E MSIZE SWAP10 0xC9 CALLCODE PUSH19 0x4CAA2F951B0632504747F0D53C325F2355A734 PUSH9 0x121853022D64736F6C PUSH4 0x43000807 STOP CALLER "
				},
				"gasEstimates": {
					"creation": {
						"codeDepositCost": "129800",
						"executionCost": "24443",
						"totalCost": "154243"
					},
					"external": {
						"currentStatus()": "2632",
						"owner()": "2511",
						"pay()": "26942"
					}
				},
				"methodIdentifiers": {
					"currentStatus()": "ef8a9235",
					"owner()": "8da5cb5b",
					"pay()": "1b9265b8"
				}
			},
			"storageLayout": {
				"storage": [
					{
						"astId": 6,
						"contract": "contracts/CarLoan/User.sol:User",
						"label": "owner",
						"offset": 0,
						"slot": "0",
						"type": "t_address"
					},
					{
						"astId": 9,
						"contract": "contracts/CarLoan/User.sol:User",
						"label": "currentStatus",
						"offset": 20,
						"slot": "0",
						"type": "t_enum(Status)4"
					}
				],
				"types": {
					"t_address": {
						"encoding": "inplace",
						"label": "address",
						"numberOfBytes": "20"
					},
					"t_enum(Status)4": {
						"encoding": "inplace",
						"label": "enum User.Status",
						"numberOfBytes": "1"
					}
				}
			},
			"userdoc": {
				"kind": "user",
				"methods": {},
				"version": 1
			}
		}
	}
}