{
	"contracts/CarLoan/User.sol": {
		"User": {
			"abi": [
				{
					"inputs": [
						{
							"internalType": "address",
							"name": "",
							"type": "address"
						}
					],
					"name": "allot",
					"outputs": [
						{
							"internalType": "uint256",
							"name": "",
							"type": "uint256"
						}
					],
					"stateMutability": "view",
					"type": "function"
				},
				{
					"inputs": [],
					"name": "client",
					"outputs": [
						{
							"internalType": "address",
							"name": "",
							"type": "address"
						}
					],
					"stateMutability": "view",
					"type": "function"
				},
				{
					"inputs": [],
					"name": "currentStatus",
					"outputs": [
						{
							"internalType": "bool",
							"name": "",
							"type": "bool"
						}
					],
					"stateMutability": "view",
					"type": "function"
				},
				{
					"inputs": [],
					"name": "pay",
					"outputs": [],
					"stateMutability": "payable",
					"type": "function"
				}
			],
			"devdoc": {
				"kind": "dev",
				"methods": {},
				"version": 1
			},
			"evm": {
				"assembly": "    /* \"contracts/CarLoan/User.sol\":56:980  contract User{\r... */\n  mstore(0x40, 0x80)\n    /* \"contracts/CarLoan/User.sol\":202:207  false */\n  0x00\n    /* \"contracts/CarLoan/User.sol\":176:207  bool public currentStatus=false */\n  dup1\n  exp(0x0100, 0x14)\n  dup2\n  sload\n  dup2\n  0xff\n  mul\n  not\n  and\n  swap1\n  dup4\n  iszero\n  iszero\n  mul\n  or\n  swap1\n  sstore\n  pop\n    /* \"contracts/CarLoan/User.sol\":56:980  contract User{\r... */\n  callvalue\n  dup1\n  iszero\n  tag_1\n  jumpi\n  0x00\n  dup1\n  revert\ntag_1:\n  pop\n  dataSize(sub_0)\n  dup1\n  dataOffset(sub_0)\n  0x00\n  codecopy\n  0x00\n  return\nstop\n\nsub_0: assembly {\n        /* \"contracts/CarLoan/User.sol\":56:980  contract User{\r... */\n      mstore(0x40, 0x80)\n      jumpi(tag_1, lt(calldatasize, 0x04))\n      shr(0xe0, calldataload(0x00))\n      dup1\n      0x109e94cf\n      eq\n      tag_2\n      jumpi\n      dup1\n      0x1b9265b8\n      eq\n      tag_3\n      jumpi\n      dup1\n      0x3ba5172d\n      eq\n      tag_4\n      jumpi\n      dup1\n      0xef8a9235\n      eq\n      tag_5\n      jumpi\n    tag_1:\n      0x00\n      dup1\n      revert\n        /* \"contracts/CarLoan/User.sol\":148:169  address public client */\n    tag_2:\n      callvalue\n      dup1\n      iszero\n      tag_6\n      jumpi\n      0x00\n      dup1\n      revert\n    tag_6:\n      pop\n      tag_7\n      tag_8\n      jump\t// in\n    tag_7:\n      mload(0x40)\n      tag_9\n      swap2\n      swap1\n      tag_10\n      jump\t// in\n    tag_9:\n      mload(0x40)\n      dup1\n      swap2\n      sub\n      swap1\n      return\n        /* \"contracts/CarLoan/User.sol\":668:977  function pay() public payable \r... */\n    tag_3:\n      tag_11\n      tag_12\n      jump\t// in\n    tag_11:\n      stop\n        /* \"contracts/CarLoan/User.sol\":292:330  mapping(address=>uint256) public allot */\n    tag_4:\n      callvalue\n      dup1\n      iszero\n      tag_13\n      jumpi\n      0x00\n      dup1\n      revert\n    tag_13:\n      pop\n      tag_14\n      0x04\n      dup1\n      calldatasize\n      sub\n      dup2\n      add\n      swap1\n      tag_15\n      swap2\n      swap1\n      tag_16\n      jump\t// in\n    tag_15:\n      tag_17\n      jump\t// in\n    tag_14:\n      mload(0x40)\n      tag_18\n      swap2\n      swap1\n      tag_19\n      jump\t// in\n    tag_18:\n      mload(0x40)\n      dup1\n      swap2\n      sub\n      swap1\n      return\n        /* \"contracts/CarLoan/User.sol\":176:207  bool public currentStatus=false */\n    tag_5:\n      callvalue\n      dup1\n      iszero\n      tag_20\n      jumpi\n      0x00\n      dup1\n      revert\n    tag_20:\n      pop\n      tag_21\n      tag_22\n      jump\t// in\n    tag_21:\n      mload(0x40)\n      tag_23\n      swap2\n      swap1\n      tag_24\n      jump\t// in\n    tag_23:\n      mload(0x40)\n      dup1\n      swap2\n      sub\n      swap1\n      return\n        /* \"contracts/CarLoan/User.sol\":148:169  address public client */\n    tag_8:\n      0x00\n      dup1\n      sload\n      swap1\n      0x0100\n      exp\n      swap1\n      div\n      0xffffffffffffffffffffffffffffffffffffffff\n      and\n      dup2\n      jump\t// out\n        /* \"contracts/CarLoan/User.sol\":668:977  function pay() public payable \r... */\n    tag_12:\n        /* \"contracts/CarLoan/User.sol\":397:402  false */\n      0x00\n        /* \"contracts/CarLoan/User.sol\":382:402  currentStatus==false */\n      iszero\n      iszero\n        /* \"contracts/CarLoan/User.sol\":382:395  currentStatus */\n      0x00\n      0x14\n      swap1\n      sload\n      swap1\n      0x0100\n      exp\n      swap1\n      div\n      0xff\n      and\n        /* \"contracts/CarLoan/User.sol\":382:402  currentStatus==false */\n      iszero\n      iszero\n      eq\n        /* \"contracts/CarLoan/User.sol\":374:421  require(currentStatus==false,\"already Alloted\") */\n      tag_26\n      jumpi\n      mload(0x40)\n      0x08c379a000000000000000000000000000000000000000000000000000000000\n      dup2\n      mstore\n      0x04\n      add\n      tag_27\n      swap1\n      tag_28\n      jump\t// in\n    tag_27:\n      mload(0x40)\n      dup1\n      swap2\n      sub\n      swap1\n      revert\n    tag_26:\n        /* \"contracts/CarLoan/User.sol\":498:505  2 ether */\n      0x1bc16d674ec80000\n        /* \"contracts/CarLoan/User.sol\":488:497  msg.value */\n      callvalue\n        /* \"contracts/CarLoan/User.sol\":488:505  msg.value>2 ether */\n      gt\n        /* \"contracts/CarLoan/User.sol\":480:531  require(msg.value>2 ether,\"Need more than 2 ether\") */\n      tag_30\n      jumpi\n      mload(0x40)\n      0x08c379a000000000000000000000000000000000000000000000000000000000\n      dup2\n      mstore\n      0x04\n      add\n      tag_31\n      swap1\n      tag_32\n      jump\t// in\n    tag_31:\n      mload(0x40)\n      dup1\n      swap2\n      sub\n      swap1\n      revert\n    tag_30:\n        /* \"contracts/CarLoan/User.sol\":614:617  0x0 */\n      0x00\n        /* \"contracts/CarLoan/User.sol\":598:618  client!=address(0x0) */\n      0xffffffffffffffffffffffffffffffffffffffff\n      and\n        /* \"contracts/CarLoan/User.sol\":598:604  client */\n      0x00\n      dup1\n      sload\n      swap1\n      0x0100\n      exp\n      swap1\n      div\n      0xffffffffffffffffffffffffffffffffffffffff\n      and\n        /* \"contracts/CarLoan/User.sol\":598:618  client!=address(0x0) */\n      0xffffffffffffffffffffffffffffffffffffffff\n      and\n      eq\n      iszero\n        /* \"contracts/CarLoan/User.sol\":590:640  require(client!=address(0x0),\"Enter Client first\") */\n      tag_34\n      jumpi\n      mload(0x40)\n      0x08c379a000000000000000000000000000000000000000000000000000000000\n      dup2\n      mstore\n      0x04\n      add\n      tag_35\n      swap1\n      tag_36\n      jump\t// in\n    tag_35:\n      mload(0x40)\n      dup1\n      swap2\n      sub\n      swap1\n      revert\n    tag_34:\n        /* \"contracts/CarLoan/User.sol\":791:798  2 ether */\n      0x1bc16d674ec80000\n        /* \"contracts/CarLoan/User.sol\":779:788  msg.value */\n      callvalue\n        /* \"contracts/CarLoan/User.sol\":778:798  (msg.value)>=2 ether */\n      lt\n        /* \"contracts/CarLoan/User.sol\":775:970  if((msg.value)>=2 ether){\r... */\n      tag_38\n      jumpi\n        /* \"contracts/CarLoan/User.sol\":829:833  true */\n      0x01\n        /* \"contracts/CarLoan/User.sol\":815:828  currentStatus */\n      0x00\n      0x14\n        /* \"contracts/CarLoan/User.sol\":815:833  currentStatus=true */\n      0x0100\n      exp\n      dup2\n      sload\n      dup2\n      0xff\n      mul\n      not\n      and\n      swap1\n      dup4\n      iszero\n      iszero\n      mul\n      or\n      swap1\n      sstore\n      pop\n        /* \"contracts/CarLoan/User.sol\":863:872  msg.value */\n      callvalue\n        /* \"contracts/CarLoan/User.sol\":849:854  allot */\n      0x01\n        /* \"contracts/CarLoan/User.sol\":849:862  allot[client] */\n      0x00\n        /* \"contracts/CarLoan/User.sol\":855:861  client */\n      dup1\n      0x00\n      swap1\n      sload\n      swap1\n      0x0100\n      exp\n      swap1\n      div\n      0xffffffffffffffffffffffffffffffffffffffff\n      and\n        /* \"contracts/CarLoan/User.sol\":849:862  allot[client] */\n      0xffffffffffffffffffffffffffffffffffffffff\n      and\n      0xffffffffffffffffffffffffffffffffffffffff\n      and\n      dup2\n      mstore\n      0x20\n      add\n      swap1\n      dup2\n      mstore\n      0x20\n      add\n      0x00\n      keccak256\n        /* \"contracts/CarLoan/User.sol\":849:872  allot[client]=msg.value */\n      dup2\n      swap1\n      sstore\n      pop\n        /* \"contracts/CarLoan/User.sol\":775:970  if((msg.value)>=2 ether){\r... */\n      jump(tag_39)\n    tag_38:\n        /* \"contracts/CarLoan/User.sol\":916:923  2 ether */\n      0x1bc16d674ec80000\n        /* \"contracts/CarLoan/User.sol\":905:914  msg.value */\n      callvalue\n        /* \"contracts/CarLoan/User.sol\":904:923  (msg.value)<2 ether */\n      lt\n        /* \"contracts/CarLoan/User.sol\":901:970  if((msg.value)<2 ether){\r... */\n      iszero\n      tag_40\n      jumpi\n        /* \"contracts/CarLoan/User.sol\":953:958  false */\n      0x00\n        /* \"contracts/CarLoan/User.sol\":939:952  currentStatus */\n      dup1\n      0x14\n        /* \"contracts/CarLoan/User.sol\":939:958  currentStatus=false */\n      0x0100\n      exp\n      dup2\n      sload\n      dup2\n      0xff\n      mul\n      not\n      and\n      swap1\n      dup4\n      iszero\n      iszero\n      mul\n      or\n      swap1\n      sstore\n      pop\n        /* \"contracts/CarLoan/User.sol\":901:970  if((msg.value)<2 ether){\r... */\n    tag_40:\n        /* \"contracts/CarLoan/User.sol\":775:970  if((msg.value)>=2 ether){\r... */\n    tag_39:\n        /* \"contracts/CarLoan/User.sol\":668:977  function pay() public payable \r... */\n      jump\t// out\n        /* \"contracts/CarLoan/User.sol\":292:330  mapping(address=>uint256) public allot */\n    tag_17:\n      mstore(0x20, 0x01)\n      dup1\n      0x00\n      mstore\n      keccak256(0x00, 0x40)\n      0x00\n      swap2\n      pop\n      swap1\n      pop\n      sload\n      dup2\n      jump\t// out\n        /* \"contracts/CarLoan/User.sol\":176:207  bool public currentStatus=false */\n    tag_22:\n      0x00\n      0x14\n      swap1\n      sload\n      swap1\n      0x0100\n      exp\n      swap1\n      div\n      0xff\n      and\n      dup2\n      jump\t// out\n        /* \"#utility.yul\":7:146   */\n    tag_42:\n        /* \"#utility.yul\":53:58   */\n      0x00\n        /* \"#utility.yul\":91:97   */\n      dup2\n        /* \"#utility.yul\":78:98   */\n      calldataload\n        /* \"#utility.yul\":69:98   */\n      swap1\n      pop\n        /* \"#utility.yul\":107:140   */\n      tag_44\n        /* \"#utility.yul\":134:139   */\n      dup2\n        /* \"#utility.yul\":107:140   */\n      tag_45\n      jump\t// in\n    tag_44:\n        /* \"#utility.yul\":7:146   */\n      swap3\n      swap2\n      pop\n      pop\n      jump\t// out\n        /* \"#utility.yul\":152:481   */\n    tag_16:\n        /* \"#utility.yul\":211:217   */\n      0x00\n        /* \"#utility.yul\":260:262   */\n      0x20\n        /* \"#utility.yul\":248:257   */\n      dup3\n        /* \"#utility.yul\":239:246   */\n      dup5\n        /* \"#utility.yul\":235:258   */\n      sub\n        /* \"#utility.yul\":231:263   */\n      slt\n        /* \"#utility.yul\":228:347   */\n      iszero\n      tag_47\n      jumpi\n        /* \"#utility.yul\":266:345   */\n      tag_48\n      tag_49\n      jump\t// in\n    tag_48:\n        /* \"#utility.yul\":228:347   */\n    tag_47:\n        /* \"#utility.yul\":386:387   */\n      0x00\n        /* \"#utility.yul\":411:464   */\n      tag_50\n        /* \"#utility.yul\":456:463   */\n      dup5\n        /* \"#utility.yul\":447:453   */\n      dup3\n        /* \"#utility.yul\":436:445   */\n      dup6\n        /* \"#utility.yul\":432:454   */\n      add\n        /* \"#utility.yul\":411:464   */\n      tag_42\n      jump\t// in\n    tag_50:\n        /* \"#utility.yul\":401:464   */\n      swap2\n      pop\n        /* \"#utility.yul\":357:474   */\n      pop\n        /* \"#utility.yul\":152:481   */\n      swap3\n      swap2\n      pop\n      pop\n      jump\t// out\n        /* \"#utility.yul\":487:605   */\n    tag_51:\n        /* \"#utility.yul\":574:598   */\n      tag_53\n        /* \"#utility.yul\":592:597   */\n      dup2\n        /* \"#utility.yul\":574:598   */\n      tag_54\n      jump\t// in\n    tag_53:\n        /* \"#utility.yul\":569:572   */\n      dup3\n        /* \"#utility.yul\":562:599   */\n      mstore\n        /* \"#utility.yul\":487:605   */\n      pop\n      pop\n      jump\t// out\n        /* \"#utility.yul\":611:720   */\n    tag_55:\n        /* \"#utility.yul\":692:713   */\n      tag_57\n        /* \"#utility.yul\":707:712   */\n      dup2\n        /* \"#utility.yul\":692:713   */\n      tag_58\n      jump\t// in\n    tag_57:\n        /* \"#utility.yul\":687:690   */\n      dup3\n        /* \"#utility.yul\":680:714   */\n      mstore\n        /* \"#utility.yul\":611:720   */\n      pop\n      pop\n      jump\t// out\n        /* \"#utility.yul\":726:1092   */\n    tag_59:\n        /* \"#utility.yul\":868:871   */\n      0x00\n        /* \"#utility.yul\":889:956   */\n      tag_61\n        /* \"#utility.yul\":953:955   */\n      0x12\n        /* \"#utility.yul\":948:951   */\n      dup4\n        /* \"#utility.yul\":889:956   */\n      tag_62\n      jump\t// in\n    tag_61:\n        /* \"#utility.yul\":882:956   */\n      swap2\n      pop\n        /* \"#utility.yul\":965:1058   */\n      tag_63\n        /* \"#utility.yul\":1054:1057   */\n      dup3\n        /* \"#utility.yul\":965:1058   */\n      tag_64\n      jump\t// in\n    tag_63:\n        /* \"#utility.yul\":1083:1085   */\n      0x20\n        /* \"#utility.yul\":1078:1081   */\n      dup3\n        /* \"#utility.yul\":1074:1086   */\n      add\n        /* \"#utility.yul\":1067:1086   */\n      swap1\n      pop\n        /* \"#utility.yul\":726:1092   */\n      swap2\n      swap1\n      pop\n      jump\t// out\n        /* \"#utility.yul\":1098:1464   */\n    tag_65:\n        /* \"#utility.yul\":1240:1243   */\n      0x00\n        /* \"#utility.yul\":1261:1328   */\n      tag_67\n        /* \"#utility.yul\":1325:1327   */\n      0x0f\n        /* \"#utility.yul\":1320:1323   */\n      dup4\n        /* \"#utility.yul\":1261:1328   */\n      tag_62\n      jump\t// in\n    tag_67:\n        /* \"#utility.yul\":1254:1328   */\n      swap2\n      pop\n        /* \"#utility.yul\":1337:1430   */\n      tag_68\n        /* \"#utility.yul\":1426:1429   */\n      dup3\n        /* \"#utility.yul\":1337:1430   */\n      tag_69\n      jump\t// in\n    tag_68:\n        /* \"#utility.yul\":1455:1457   */\n      0x20\n        /* \"#utility.yul\":1450:1453   */\n      dup3\n        /* \"#utility.yul\":1446:1458   */\n      add\n        /* \"#utility.yul\":1439:1458   */\n      swap1\n      pop\n        /* \"#utility.yul\":1098:1464   */\n      swap2\n      swap1\n      pop\n      jump\t// out\n        /* \"#utility.yul\":1470:1836   */\n    tag_70:\n        /* \"#utility.yul\":1612:1615   */\n      0x00\n        /* \"#utility.yul\":1633:1700   */\n      tag_72\n        /* \"#utility.yul\":1697:1699   */\n      0x16\n        /* \"#utility.yul\":1692:1695   */\n      dup4\n        /* \"#utility.yul\":1633:1700   */\n      tag_62\n      jump\t// in\n    tag_72:\n        /* \"#utility.yul\":1626:1700   */\n      swap2\n      pop\n        /* \"#utility.yul\":1709:1802   */\n      tag_73\n        /* \"#utility.yul\":1798:1801   */\n      dup3\n        /* \"#utility.yul\":1709:1802   */\n      tag_74\n      jump\t// in\n    tag_73:\n        /* \"#utility.yul\":1827:1829   */\n      0x20\n        /* \"#utility.yul\":1822:1825   */\n      dup3\n        /* \"#utility.yul\":1818:1830   */\n      add\n        /* \"#utility.yul\":1811:1830   */\n      swap1\n      pop\n        /* \"#utility.yul\":1470:1836   */\n      swap2\n      swap1\n      pop\n      jump\t// out\n        /* \"#utility.yul\":1842:1960   */\n    tag_75:\n        /* \"#utility.yul\":1929:1953   */\n      tag_77\n        /* \"#utility.yul\":1947:1952   */\n      dup2\n        /* \"#utility.yul\":1929:1953   */\n      tag_78\n      jump\t// in\n    tag_77:\n        /* \"#utility.yul\":1924:1927   */\n      dup3\n        /* \"#utility.yul\":1917:1954   */\n      mstore\n        /* \"#utility.yul\":1842:1960   */\n      pop\n      pop\n      jump\t// out\n        /* \"#utility.yul\":1966:2188   */\n    tag_10:\n        /* \"#utility.yul\":2059:2063   */\n      0x00\n        /* \"#utility.yul\":2097:2099   */\n      0x20\n        /* \"#utility.yul\":2086:2095   */\n      dup3\n        /* \"#utility.yul\":2082:2100   */\n      add\n        /* \"#utility.yul\":2074:2100   */\n      swap1\n      pop\n        /* \"#utility.yul\":2110:2181   */\n      tag_80\n        /* \"#utility.yul\":2178:2179   */\n      0x00\n        /* \"#utility.yul\":2167:2176   */\n      dup4\n        /* \"#utility.yul\":2163:2180   */\n      add\n        /* \"#utility.yul\":2154:2160   */\n      dup5\n        /* \"#utility.yul\":2110:2181   */\n      tag_51\n      jump\t// in\n    tag_80:\n        /* \"#utility.yul\":1966:2188   */\n      swap3\n      swap2\n      pop\n      pop\n      jump\t// out\n        /* \"#utility.yul\":2194:2404   */\n    tag_24:\n        /* \"#utility.yul\":2281:2285   */\n      0x00\n        /* \"#utility.yul\":2319:2321   */\n      0x20\n        /* \"#utility.yul\":2308:2317   */\n      dup3\n        /* \"#utility.yul\":2304:2322   */\n      add\n        /* \"#utility.yul\":2296:2322   */\n      swap1\n      pop\n        /* \"#utility.yul\":2332:2397   */\n      tag_82\n        /* \"#utility.yul\":2394:2395   */\n      0x00\n        /* \"#utility.yul\":2383:2392   */\n      dup4\n        /* \"#utility.yul\":2379:2396   */\n      add\n        /* \"#utility.yul\":2370:2376   */\n      dup5\n        /* \"#utility.yul\":2332:2397   */\n      tag_55\n      jump\t// in\n    tag_82:\n        /* \"#utility.yul\":2194:2404   */\n      swap3\n      swap2\n      pop\n      pop\n      jump\t// out\n        /* \"#utility.yul\":2410:2829   */\n    tag_36:\n        /* \"#utility.yul\":2576:2580   */\n      0x00\n        /* \"#utility.yul\":2614:2616   */\n      0x20\n        /* \"#utility.yul\":2603:2612   */\n      dup3\n        /* \"#utility.yul\":2599:2617   */\n      add\n        /* \"#utility.yul\":2591:2617   */\n      swap1\n      pop\n        /* \"#utility.yul\":2663:2672   */\n      dup2\n        /* \"#utility.yul\":2657:2661   */\n      dup2\n        /* \"#utility.yul\":2653:2673   */\n      sub\n        /* \"#utility.yul\":2649:2650   */\n      0x00\n        /* \"#utility.yul\":2638:2647   */\n      dup4\n        /* \"#utility.yul\":2634:2651   */\n      add\n        /* \"#utility.yul\":2627:2674   */\n      mstore\n        /* \"#utility.yul\":2691:2822   */\n      tag_84\n        /* \"#utility.yul\":2817:2821   */\n      dup2\n        /* \"#utility.yul\":2691:2822   */\n      tag_59\n      jump\t// in\n    tag_84:\n        /* \"#utility.yul\":2683:2822   */\n      swap1\n      pop\n        /* \"#utility.yul\":2410:2829   */\n      swap2\n      swap1\n      pop\n      jump\t// out\n        /* \"#utility.yul\":2835:3254   */\n    tag_28:\n        /* \"#utility.yul\":3001:3005   */\n      0x00\n        /* \"#utility.yul\":3039:3041   */\n      0x20\n        /* \"#utility.yul\":3028:3037   */\n      dup3\n        /* \"#utility.yul\":3024:3042   */\n      add\n        /* \"#utility.yul\":3016:3042   */\n      swap1\n      pop\n        /* \"#utility.yul\":3088:3097   */\n      dup2\n        /* \"#utility.yul\":3082:3086   */\n      dup2\n        /* \"#utility.yul\":3078:3098   */\n      sub\n        /* \"#utility.yul\":3074:3075   */\n      0x00\n        /* \"#utility.yul\":3063:3072   */\n      dup4\n        /* \"#utility.yul\":3059:3076   */\n      add\n        /* \"#utility.yul\":3052:3099   */\n      mstore\n        /* \"#utility.yul\":3116:3247   */\n      tag_86\n        /* \"#utility.yul\":3242:3246   */\n      dup2\n        /* \"#utility.yul\":3116:3247   */\n      tag_65\n      jump\t// in\n    tag_86:\n        /* \"#utility.yul\":3108:3247   */\n      swap1\n      pop\n        /* \"#utility.yul\":2835:3254   */\n      swap2\n      swap1\n      pop\n      jump\t// out\n        /* \"#utility.yul\":3260:3679   */\n    tag_32:\n        /* \"#utility.yul\":3426:3430   */\n      0x00\n        /* \"#utility.yul\":3464:3466   */\n      0x20\n        /* \"#utility.yul\":3453:3462   */\n      dup3\n        /* \"#utility.yul\":3449:3467   */\n      add\n        /* \"#utility.yul\":3441:3467   */\n      swap1\n      pop\n        /* \"#utility.yul\":3513:3522   */\n      dup2\n        /* \"#utility.yul\":3507:3511   */\n      dup2\n        /* \"#utility.yul\":3503:3523   */\n      sub\n        /* \"#utility.yul\":3499:3500   */\n      0x00\n        /* \"#utility.yul\":3488:3497   */\n      dup4\n        /* \"#utility.yul\":3484:3501   */\n      add\n        /* \"#utility.yul\":3477:3524   */\n      mstore\n        /* \"#utility.yul\":3541:3672   */\n      tag_88\n        /* \"#utility.yul\":3667:3671   */\n      dup2\n        /* \"#utility.yul\":3541:3672   */\n      tag_70\n      jump\t// in\n    tag_88:\n        /* \"#utility.yul\":3533:3672   */\n      swap1\n      pop\n        /* \"#utility.yul\":3260:3679   */\n      swap2\n      swap1\n      pop\n      jump\t// out\n        /* \"#utility.yul\":3685:3907   */\n    tag_19:\n        /* \"#utility.yul\":3778:3782   */\n      0x00\n        /* \"#utility.yul\":3816:3818   */\n      0x20\n        /* \"#utility.yul\":3805:3814   */\n      dup3\n        /* \"#utility.yul\":3801:3819   */\n      add\n        /* \"#utility.yul\":3793:3819   */\n      swap1\n      pop\n        /* \"#utility.yul\":3829:3900   */\n      tag_90\n        /* \"#utility.yul\":3897:3898   */\n      0x00\n        /* \"#utility.yul\":3886:3895   */\n      dup4\n        /* \"#utility.yul\":3882:3899   */\n      add\n        /* \"#utility.yul\":3873:3879   */\n      dup5\n        /* \"#utility.yul\":3829:3900   */\n      tag_75\n      jump\t// in\n    tag_90:\n        /* \"#utility.yul\":3685:3907   */\n      swap3\n      swap2\n      pop\n      pop\n      jump\t// out\n        /* \"#utility.yul\":3994:4163   */\n    tag_62:\n        /* \"#utility.yul\":4078:4089   */\n      0x00\n        /* \"#utility.yul\":4112:4118   */\n      dup3\n        /* \"#utility.yul\":4107:4110   */\n      dup3\n        /* \"#utility.yul\":4100:4119   */\n      mstore\n        /* \"#utility.yul\":4152:4156   */\n      0x20\n        /* \"#utility.yul\":4147:4150   */\n      dup3\n        /* \"#utility.yul\":4143:4157   */\n      add\n        /* \"#utility.yul\":4128:4157   */\n      swap1\n      pop\n        /* \"#utility.yul\":3994:4163   */\n      swap3\n      swap2\n      pop\n      pop\n      jump\t// out\n        /* \"#utility.yul\":4169:4265   */\n    tag_54:\n        /* \"#utility.yul\":4206:4213   */\n      0x00\n        /* \"#utility.yul\":4235:4259   */\n      tag_95\n        /* \"#utility.yul\":4253:4258   */\n      dup3\n        /* \"#utility.yul\":4235:4259   */\n      tag_96\n      jump\t// in\n    tag_95:\n        /* \"#utility.yul\":4224:4259   */\n      swap1\n      pop\n        /* \"#utility.yul\":4169:4265   */\n      swap2\n      swap1\n      pop\n      jump\t// out\n        /* \"#utility.yul\":4271:4361   */\n    tag_58:\n        /* \"#utility.yul\":4305:4312   */\n      0x00\n        /* \"#utility.yul\":4348:4353   */\n      dup2\n        /* \"#utility.yul\":4341:4354   */\n      iszero\n        /* \"#utility.yul\":4334:4355   */\n      iszero\n        /* \"#utility.yul\":4323:4355   */\n      swap1\n      pop\n        /* \"#utility.yul\":4271:4361   */\n      swap2\n      swap1\n      pop\n      jump\t// out\n        /* \"#utility.yul\":4367:4493   */\n    tag_96:\n        /* \"#utility.yul\":4404:4411   */\n      0x00\n        /* \"#utility.yul\":4444:4486   */\n      0xffffffffffffffffffffffffffffffffffffffff\n        /* \"#utility.yul\":4437:4442   */\n      dup3\n        /* \"#utility.yul\":4433:4487   */\n      and\n        /* \"#utility.yul\":4422:4487   */\n      swap1\n      pop\n        /* \"#utility.yul\":4367:4493   */\n      swap2\n      swap1\n      pop\n      jump\t// out\n        /* \"#utility.yul\":4499:4576   */\n    tag_78:\n        /* \"#utility.yul\":4536:4543   */\n      0x00\n        /* \"#utility.yul\":4565:4570   */\n      dup2\n        /* \"#utility.yul\":4554:4570   */\n      swap1\n      pop\n        /* \"#utility.yul\":4499:4576   */\n      swap2\n      swap1\n      pop\n      jump\t// out\n        /* \"#utility.yul\":4705:4822   */\n    tag_49:\n        /* \"#utility.yul\":4814:4815   */\n      0x00\n        /* \"#utility.yul\":4811:4812   */\n      dup1\n        /* \"#utility.yul\":4804:4816   */\n      revert\n        /* \"#utility.yul\":4828:4996   */\n    tag_64:\n        /* \"#utility.yul\":4968:4988   */\n      0x456e74657220436c69656e742066697273740000000000000000000000000000\n        /* \"#utility.yul\":4964:4965   */\n      0x00\n        /* \"#utility.yul\":4956:4962   */\n      dup3\n        /* \"#utility.yul\":4952:4966   */\n      add\n        /* \"#utility.yul\":4945:4989   */\n      mstore\n        /* \"#utility.yul\":4828:4996   */\n      pop\n      jump\t// out\n        /* \"#utility.yul\":5002:5167   */\n    tag_69:\n        /* \"#utility.yul\":5142:5159   */\n      0x616c726561647920416c6c6f7465640000000000000000000000000000000000\n        /* \"#utility.yul\":5138:5139   */\n      0x00\n        /* \"#utility.yul\":5130:5136   */\n      dup3\n        /* \"#utility.yul\":5126:5140   */\n      add\n        /* \"#utility.yul\":5119:5160   */\n      mstore\n        /* \"#utility.yul\":5002:5167   */\n      pop\n      jump\t// out\n        /* \"#utility.yul\":5173:5345   */\n    tag_74:\n        /* \"#utility.yul\":5313:5337   */\n      0x4e656564206d6f7265207468616e203220657468657200000000000000000000\n        /* \"#utility.yul\":5309:5310   */\n      0x00\n        /* \"#utility.yul\":5301:5307   */\n      dup3\n        /* \"#utility.yul\":5297:5311   */\n      add\n        /* \"#utility.yul\":5290:5338   */\n      mstore\n        /* \"#utility.yul\":5173:5345   */\n      pop\n      jump\t// out\n        /* \"#utility.yul\":5351:5473   */\n    tag_45:\n        /* \"#utility.yul\":5424:5448   */\n      tag_107\n        /* \"#utility.yul\":5442:5447   */\n      dup2\n        /* \"#utility.yul\":5424:5448   */\n      tag_54\n      jump\t// in\n    tag_107:\n        /* \"#utility.yul\":5417:5422   */\n      dup2\n        /* \"#utility.yul\":5414:5449   */\n      eq\n        /* \"#utility.yul\":5404:5467   */\n      tag_108\n      jumpi\n        /* \"#utility.yul\":5463:5464   */\n      0x00\n        /* \"#utility.yul\":5460:5461   */\n      dup1\n        /* \"#utility.yul\":5453:5465   */\n      revert\n        /* \"#utility.yul\":5404:5467   */\n    tag_108:\n        /* \"#utility.yul\":5351:5473   */\n      pop\n      jump\t// out\n\n    auxdata: 0xa26469706673582212204be8f486a1df87dde4d3679e4a58b7a4784379c9b04faa56cad3f086e964c71064736f6c63430008070033\n}\n",
				"bytecode": {
					"linkReferences": {},
					"object": "608060405260008060146101000a81548160ff02191690831515021790555034801561002a57600080fd5b506105d18061003a6000396000f3fe60806040526004361061003f5760003560e01c8063109e94cf146100445780631b9265b81461006f5780633ba5172d14610079578063ef8a9235146100b6575b600080fd5b34801561005057600080fd5b506100596100e1565b60405161006691906103fa565b60405180910390f35b610077610105565b005b34801561008557600080fd5b506100a0600480360381019061009b9190610337565b6102f7565b6040516100ad9190610490565b60405180910390f35b3480156100c257600080fd5b506100cb61030f565b6040516100d89190610415565b60405180910390f35b60008054906101000a900473ffffffffffffffffffffffffffffffffffffffff1681565b60001515600060149054906101000a900460ff1615151461015b576040517f08c379a000000000000000000000000000000000000000000000000000000000815260040161015290610450565b60405180910390fd5b671bc16d674ec8000034116101a5576040517f08c379a000000000000000000000000000000000000000000000000000000000815260040161019c90610470565b60405180910390fd5b600073ffffffffffffffffffffffffffffffffffffffff1660008054906101000a900473ffffffffffffffffffffffffffffffffffffffff1673ffffffffffffffffffffffffffffffffffffffff161415610235576040517f08c379a000000000000000000000000000000000000000000000000000000000815260040161022c90610430565b60405180910390fd5b671bc16d674ec8000034106102c9576001600060146101000a81548160ff02191690831515021790555034600160008060009054906101000a900473ffffffffffffffffffffffffffffffffffffffff1673ffffffffffffffffffffffffffffffffffffffff1673ffffffffffffffffffffffffffffffffffffffff168152602001908152602001600020819055506102f5565b671bc16d674ec800003410156102f45760008060146101000a81548160ff0219169083151502179055505b5b565b60016020528060005260406000206000915090505481565b600060149054906101000a900460ff1681565b60008135905061033181610584565b92915050565b60006020828403121561034d5761034c610504565b5b600061035b84828501610322565b91505092915050565b61036d816104bc565b82525050565b61037c816104ce565b82525050565b600061038f6012836104ab565b915061039a82610509565b602082019050919050565b60006103b2600f836104ab565b91506103bd82610532565b602082019050919050565b60006103d56016836104ab565b91506103e08261055b565b602082019050919050565b6103f4816104fa565b82525050565b600060208201905061040f6000830184610364565b92915050565b600060208201905061042a6000830184610373565b92915050565b6000602082019050818103600083015261044981610382565b9050919050565b60006020820190508181036000830152610469816103a5565b9050919050565b60006020820190508181036000830152610489816103c8565b9050919050565b60006020820190506104a560008301846103eb565b92915050565b600082825260208201905092915050565b60006104c7826104da565b9050919050565b60008115159050919050565b600073ffffffffffffffffffffffffffffffffffffffff82169050919050565b6000819050919050565b600080fd5b7f456e74657220436c69656e742066697273740000000000000000000000000000600082015250565b7f616c726561647920416c6c6f7465640000000000000000000000000000000000600082015250565b7f4e656564206d6f7265207468616e203220657468657200000000000000000000600082015250565b61058d816104bc565b811461059857600080fd5b5056fea26469706673582212204be8f486a1df87dde4d3679e4a58b7a4784379c9b04faa56cad3f086e964c71064736f6c63430008070033",
					"opcodes": "PUSH1 0x80 PUSH1 0x40 MSTORE PUSH1 0x0 DUP1 PUSH1 0x14 PUSH2 0x100 EXP DUP2 SLOAD DUP2 PUSH1 0xFF MUL NOT AND SWAP1 DUP4 ISZERO ISZERO MUL OR SWAP1 SSTORE POP CALLVALUE DUP1 ISZERO PUSH2 0x2A JUMPI PUSH1 0x0 DUP1 REVERT JUMPDEST POP PUSH2 0x5D1 DUP1 PUSH2 0x3A PUSH1 0x0 CODECOPY PUSH1 0x0 RETURN INVALID PUSH1 0x80 PUSH1 0x40 MSTORE PUSH1 0x4 CALLDATASIZE LT PUSH2 0x3F JUMPI PUSH1 0x0 CALLDATALOAD PUSH1 0xE0 SHR DUP1 PUSH4 0x109E94CF EQ PUSH2 0x44 JUMPI DUP1 PUSH4 0x1B9265B8 EQ PUSH2 0x6F JUMPI DUP1 PUSH4 0x3BA5172D EQ PUSH2 0x79 JUMPI DUP1 PUSH4 0xEF8A9235 EQ PUSH2 0xB6 JUMPI JUMPDEST PUSH1 0x0 DUP1 REVERT JUMPDEST CALLVALUE DUP1 ISZERO PUSH2 0x50 JUMPI PUSH1 0x0 DUP1 REVERT JUMPDEST POP PUSH2 0x59 PUSH2 0xE1 JUMP JUMPDEST PUSH1 0x40 MLOAD PUSH2 0x66 SWAP2 SWAP1 PUSH2 0x3FA JUMP JUMPDEST PUSH1 0x40 MLOAD DUP1 SWAP2 SUB SWAP1 RETURN JUMPDEST PUSH2 0x77 PUSH2 0x105 JUMP JUMPDEST STOP JUMPDEST CALLVALUE DUP1 ISZERO PUSH2 0x85 JUMPI PUSH1 0x0 DUP1 REVERT JUMPDEST POP PUSH2 0xA0 PUSH1 0x4 DUP1 CALLDATASIZE SUB DUP2 ADD SWAP1 PUSH2 0x9B SWAP2 SWAP1 PUSH2 0x337 JUMP JUMPDEST PUSH2 0x2F7 JUMP JUMPDEST PUSH1 0x40 MLOAD PUSH2 0xAD SWAP2 SWAP1 PUSH2 0x490 JUMP JUMPDEST PUSH1 0x40 MLOAD DUP1 SWAP2 SUB SWAP1 RETURN JUMPDEST CALLVALUE DUP1 ISZERO PUSH2 0xC2 JUMPI PUSH1 0x0 DUP1 REVERT JUMPDEST POP PUSH2 0xCB PUSH2 0x30F JUMP JUMPDEST PUSH1 0x40 MLOAD PUSH2 0xD8 SWAP2 SWAP1 PUSH2 0x415 JUMP JUMPDEST PUSH1 0x40 MLOAD DUP1 SWAP2 SUB SWAP1 RETURN JUMPDEST PUSH1 0x0 DUP1 SLOAD SWAP1 PUSH2 0x100 EXP SWAP1 DIV PUSH20 0xFFFFFFFFFFFFFFFFFFFFFFFFFFFFFFFFFFFFFFFF AND DUP2 JUMP JUMPDEST PUSH1 0x0 ISZERO ISZERO PUSH1 0x0 PUSH1 0x14 SWAP1 SLOAD SWAP1 PUSH2 0x100 EXP SWAP1 DIV PUSH1 0xFF AND ISZERO ISZERO EQ PUSH2 0x15B JUMPI PUSH1 0x40 MLOAD PUSH32 0x8C379A000000000000000000000000000000000000000000000000000000000 DUP2 MSTORE PUSH1 0x4 ADD PUSH2 0x152 SWAP1 PUSH2 0x450 JUMP JUMPDEST PUSH1 0x40 MLOAD DUP1 SWAP2 SUB SWAP1 REVERT JUMPDEST PUSH8 0x1BC16D674EC80000 CALLVALUE GT PUSH2 0x1A5 JUMPI PUSH1 0x40 MLOAD PUSH32 0x8C379A000000000000000000000000000000000000000000000000000000000 DUP2 MSTORE PUSH1 0x4 ADD PUSH2 0x19C SWAP1 PUSH2 0x470 JUMP JUMPDEST PUSH1 0x40 MLOAD DUP1 SWAP2 SUB SWAP1 REVERT JUMPDEST PUSH1 0x0 PUSH20 0xFFFFFFFFFFFFFFFFFFFFFFFFFFFFFFFFFFFFFFFF AND PUSH1 0x0 DUP1 SLOAD SWAP1 PUSH2 0x100 EXP SWAP1 DIV PUSH20 0xFFFFFFFFFFFFFFFFFFFFFFFFFFFFFFFFFFFFFFFF AND PUSH20 0xFFFFFFFFFFFFFFFFFFFFFFFFFFFFFFFFFFFFFFFF AND EQ ISZERO PUSH2 0x235 JUMPI PUSH1 0x40 MLOAD PUSH32 0x8C379A000000000000000000000000000000000000000000000000000000000 DUP2 MSTORE PUSH1 0x4 ADD PUSH2 0x22C SWAP1 PUSH2 0x430 JUMP JUMPDEST PUSH1 0x40 MLOAD DUP1 SWAP2 SUB SWAP1 REVERT JUMPDEST PUSH8 0x1BC16D674EC80000 CALLVALUE LT PUSH2 0x2C9 JUMPI PUSH1 0x1 PUSH1 0x0 PUSH1 0x14 PUSH2 0x100 EXP DUP2 SLOAD DUP2 PUSH1 0xFF MUL NOT AND SWAP1 DUP4 ISZERO ISZERO MUL OR SWAP1 SSTORE POP CALLVALUE PUSH1 0x1 PUSH1 0x0 DUP1 PUSH1 0x0 SWAP1 SLOAD SWAP1 PUSH2 0x100 EXP SWAP1 DIV PUSH20 0xFFFFFFFFFFFFFFFFFFFFFFFFFFFFFFFFFFFFFFFF AND PUSH20 0xFFFFFFFFFFFFFFFFFFFFFFFFFFFFFFFFFFFFFFFF AND PUSH20 0xFFFFFFFFFFFFFFFFFFFFFFFFFFFFFFFFFFFFFFFF AND DUP2 MSTORE PUSH1 0x20 ADD SWAP1 DUP2 MSTORE PUSH1 0x20 ADD PUSH1 0x0 KECCAK256 DUP2 SWAP1 SSTORE POP PUSH2 0x2F5 JUMP JUMPDEST PUSH8 0x1BC16D674EC80000 CALLVALUE LT ISZERO PUSH2 0x2F4 JUMPI PUSH1 0x0 DUP1 PUSH1 0x14 PUSH2 0x100 EXP DUP2 SLOAD DUP2 PUSH1 0xFF MUL NOT AND SWAP1 DUP4 ISZERO ISZERO MUL OR SWAP1 SSTORE POP JUMPDEST JUMPDEST JUMP JUMPDEST PUSH1 0x1 PUSH1 0x20 MSTORE DUP1 PUSH1 0x0 MSTORE PUSH1 0x40 PUSH1 0x0 KECCAK256 PUSH1 0x0 SWAP2 POP SWAP1 POP SLOAD DUP2 JUMP JUMPDEST PUSH1 0x0 PUSH1 0x14 SWAP1 SLOAD SWAP1 PUSH2 0x100 EXP SWAP1 DIV PUSH1 0xFF AND DUP2 JUMP JUMPDEST PUSH1 0x0 DUP2 CALLDATALOAD SWAP1 POP PUSH2 0x331 DUP2 PUSH2 0x584 JUMP JUMPDEST SWAP3 SWAP2 POP POP JUMP JUMPDEST PUSH1 0x0 PUSH1 0x20 DUP3 DUP5 SUB SLT ISZERO PUSH2 0x34D JUMPI PUSH2 0x34C PUSH2 0x504 JUMP JUMPDEST JUMPDEST PUSH1 0x0 PUSH2 0x35B DUP5 DUP3 DUP6 ADD PUSH2 0x322 JUMP JUMPDEST SWAP2 POP POP SWAP3 SWAP2 POP POP JUMP JUMPDEST PUSH2 0x36D DUP2 PUSH2 0x4BC JUMP JUMPDEST DUP3 MSTORE POP POP JUMP JUMPDEST PUSH2 0x37C DUP2 PUSH2 0x4CE JUMP JUMPDEST DUP3 MSTORE POP POP JUMP JUMPDEST PUSH1 0x0 PUSH2 0x38F PUSH1 0x12 DUP4 PUSH2 0x4AB JUMP JUMPDEST SWAP2 POP PUSH2 0x39A DUP3 PUSH2 0x509 JUMP JUMPDEST PUSH1 0x20 DUP3 ADD SWAP1 POP SWAP2 SWAP1 POP JUMP JUMPDEST PUSH1 0x0 PUSH2 0x3B2 PUSH1 0xF DUP4 PUSH2 0x4AB JUMP JUMPDEST SWAP2 POP PUSH2 0x3BD DUP3 PUSH2 0x532 JUMP JUMPDEST PUSH1 0x20 DUP3 ADD SWAP1 POP SWAP2 SWAP1 POP JUMP JUMPDEST PUSH1 0x0 PUSH2 0x3D5 PUSH1 0x16 DUP4 PUSH2 0x4AB JUMP JUMPDEST SWAP2 POP PUSH2 0x3E0 DUP3 PUSH2 0x55B JUMP JUMPDEST PUSH1 0x20 DUP3 ADD SWAP1 POP SWAP2 SWAP1 POP JUMP JUMPDEST PUSH2 0x3F4 DUP2 PUSH2 0x4FA JUMP JUMPDEST DUP3 MSTORE POP POP JUMP JUMPDEST PUSH1 0x0 PUSH1 0x20 DUP3 ADD SWAP1 POP PUSH2 0x40F PUSH1 0x0 DUP4 ADD DUP5 PUSH2 0x364 JUMP JUMPDEST SWAP3 SWAP2 POP POP JUMP JUMPDEST PUSH1 0x0 PUSH1 0x20 DUP3 ADD SWAP1 POP PUSH2 0x42A PUSH1 0x0 DUP4 ADD DUP5 PUSH2 0x373 JUMP JUMPDEST SWAP3 SWAP2 POP POP JUMP JUMPDEST PUSH1 0x0 PUSH1 0x20 DUP3 ADD SWAP1 POP DUP2 DUP2 SUB PUSH1 0x0 DUP4 ADD MSTORE PUSH2 0x449 DUP2 PUSH2 0x382 JUMP JUMPDEST SWAP1 POP SWAP2 SWAP1 POP JUMP JUMPDEST PUSH1 0x0 PUSH1 0x20 DUP3 ADD SWAP1 POP DUP2 DUP2 SUB PUSH1 0x0 DUP4 ADD MSTORE PUSH2 0x469 DUP2 PUSH2 0x3A5 JUMP JUMPDEST SWAP1 POP SWAP2 SWAP1 POP JUMP JUMPDEST PUSH1 0x0 PUSH1 0x20 DUP3 ADD SWAP1 POP DUP2 DUP2 SUB PUSH1 0x0 DUP4 ADD MSTORE PUSH2 0x489 DUP2 PUSH2 0x3C8 JUMP JUMPDEST SWAP1 POP SWAP2 SWAP1 POP JUMP JUMPDEST PUSH1 0x0 PUSH1 0x20 DUP3 ADD SWAP1 POP PUSH2 0x4A5 PUSH1 0x0 DUP4 ADD DUP5 PUSH2 0x3EB JUMP JUMPDEST SWAP3 SWAP2 POP POP JUMP JUMPDEST PUSH1 0x0 DUP3 DUP3 MSTORE PUSH1 0x20 DUP3 ADD SWAP1 POP SWAP3 SWAP2 POP POP JUMP JUMPDEST PUSH1 0x0 PUSH2 0x4C7 DUP3 PUSH2 0x4DA JUMP JUMPDEST SWAP1 POP SWAP2 SWAP1 POP JUMP JUMPDEST PUSH1 0x0 DUP2 ISZERO ISZERO SWAP1 POP SWAP2 SWAP1 POP JUMP JUMPDEST PUSH1 0x0 PUSH20 0xFFFFFFFFFFFFFFFFFFFFFFFFFFFFFFFFFFFFFFFF DUP3 AND SWAP1 POP SWAP2 SWAP1 POP JUMP JUMPDEST PUSH1 0x0 DUP2 SWAP1 POP SWAP2 SWAP1 POP JUMP JUMPDEST PUSH1 0x0 DUP1 REVERT JUMPDEST PUSH32 0x456E74657220436C69656E742066697273740000000000000000000000000000 PUSH1 0x0 DUP3 ADD MSTORE POP JUMP JUMPDEST PUSH32 0x616C726561647920416C6C6F7465640000000000000000000000000000000000 PUSH1 0x0 DUP3 ADD MSTORE POP JUMP JUMPDEST PUSH32 0x4E656564206D6F7265207468616E203220657468657200000000000000000000 PUSH1 0x0 DUP3 ADD MSTORE POP JUMP JUMPDEST PUSH2 0x58D DUP2 PUSH2 0x4BC JUMP JUMPDEST DUP2 EQ PUSH2 0x598 JUMPI PUSH1 0x0 DUP1 REVERT JUMPDEST POP JUMP INVALID LOG2 PUSH5 0x6970667358 0x22 SLT KECCAK256 0x4B 0xE8 DELEGATECALL DUP7 LOG1 0xDF DUP8 0xDD 0xE4 0xD3 PUSH8 0x9E4A58B7A4784379 0xC9 0xB0 0x4F 0xAA JUMP 0xCA 0xD3 CREATE DUP7 0xE9 PUSH5 0xC71064736F PUSH13 0x63430008070033000000000000 "
				},
				"gasEstimates": {
					"creation": {
						"codeDepositCost": "297800",
						"executionCost": "24654",
						"totalCost": "322454"
					},
					"external": {
						"allot(address)": "2836",
						"client()": "2489",
						"currentStatus()": "2565",
						"pay()": "53223"
					}
				},
				"methodIdentifiers": {
					"allot(address)": "3ba5172d",
					"client()": "109e94cf",
					"currentStatus()": "ef8a9235",
					"pay()": "1b9265b8"
				}
			},
			"storageLayout": {
				"storage": [
					{
						"astId": 3,
						"contract": "contracts/CarLoan/User.sol:User",
						"label": "client",
						"offset": 0,
						"slot": "0",
						"type": "t_address"
					},
					{
						"astId": 6,
						"contract": "contracts/CarLoan/User.sol:User",
						"label": "currentStatus",
						"offset": 20,
						"slot": "0",
						"type": "t_bool"
					},
					{
						"astId": 10,
						"contract": "contracts/CarLoan/User.sol:User",
						"label": "allot",
						"offset": 0,
						"slot": "1",
						"type": "t_mapping(t_address,t_uint256)"
					}
				],
				"types": {
					"t_address": {
						"encoding": "inplace",
						"label": "address",
						"numberOfBytes": "20"
					},
					"t_bool": {
						"encoding": "inplace",
						"label": "bool",
						"numberOfBytes": "1"
					},
					"t_mapping(t_address,t_uint256)": {
						"encoding": "mapping",
						"key": "t_address",
						"label": "mapping(address => uint256)",
						"numberOfBytes": "32",
						"value": "t_uint256"
					},
					"t_uint256": {
						"encoding": "inplace",
						"label": "uint256",
						"numberOfBytes": "32"
					}
				}
			},
			"userdoc": {
				"kind": "user",
				"methods": {},
				"version": 1
			}
		}
	}
}