{
	"contracts/CarLoan/User.sol": {
		"User": {
			"abi": [
				{
					"inputs": [],
					"stateMutability": "nonpayable",
					"type": "constructor"
				},
				{
					"inputs": [
						{
							"internalType": "address",
							"name": "",
							"type": "address"
						}
					],
					"name": "allot",
					"outputs": [
						{
							"internalType": "bool",
							"name": "",
							"type": "bool"
						}
					],
					"stateMutability": "view",
					"type": "function"
				},
				{
					"inputs": [],
					"name": "currentStatus",
					"outputs": [
						{
							"internalType": "bool",
							"name": "",
							"type": "bool"
						}
					],
					"stateMutability": "view",
					"type": "function"
				},
				{
					"inputs": [],
					"name": "owner",
					"outputs": [
						{
							"internalType": "address",
							"name": "",
							"type": "address"
						}
					],
					"stateMutability": "view",
					"type": "function"
				},
				{
					"inputs": [],
					"name": "pay",
					"outputs": [],
					"stateMutability": "payable",
					"type": "function"
				}
			],
			"devdoc": {
				"kind": "dev",
				"methods": {},
				"version": 1
			},
			"evm": {
				"assembly": "    /* \"contracts/CarLoan/User.sol\":56:709  contract User{\r... */\n  mstore(0x40, 0x80)\n    /* \"contracts/CarLoan/User.sol\":203:208  false */\n  0x00\n    /* \"contracts/CarLoan/User.sol\":177:208  bool public currentStatus=false */\n  dup1\n  exp(0x0100, 0x14)\n  dup2\n  sload\n  dup2\n  0xff\n  mul\n  not\n  and\n  swap1\n  dup4\n  iszero\n  iszero\n  mul\n  or\n  swap1\n  sstore\n  pop\n    /* \"contracts/CarLoan/User.sol\":215:276  constructor(){\r... */\n  callvalue\n  dup1\n  iszero\n  tag_1\n  jumpi\n  0x00\n  dup1\n  revert\ntag_1:\n  pop\n    /* \"contracts/CarLoan/User.sol\":247:257  msg.sender */\n  caller\n    /* \"contracts/CarLoan/User.sol\":239:244  owner */\n  0x00\n  dup1\n    /* \"contracts/CarLoan/User.sol\":239:258  owner= (msg.sender) */\n  0x0100\n  exp\n  dup2\n  sload\n  dup2\n  0xffffffffffffffffffffffffffffffffffffffff\n  mul\n  not\n  and\n  swap1\n  dup4\n  0xffffffffffffffffffffffffffffffffffffffff\n  and\n  mul\n  or\n  swap1\n  sstore\n  pop\n    /* \"contracts/CarLoan/User.sol\":56:709  contract User{\r... */\n  dataSize(sub_0)\n  dup1\n  dataOffset(sub_0)\n  0x00\n  codecopy\n  0x00\n  return\nstop\n\nsub_0: assembly {\n        /* \"contracts/CarLoan/User.sol\":56:709  contract User{\r... */\n      mstore(0x40, 0x80)\n      jumpi(tag_1, lt(calldatasize, 0x04))\n      shr(0xe0, calldataload(0x00))\n      dup1\n      0x1b9265b8\n      eq\n      tag_2\n      jumpi\n      dup1\n      0x3ba5172d\n      eq\n      tag_3\n      jumpi\n      dup1\n      0x8da5cb5b\n      eq\n      tag_4\n      jumpi\n      dup1\n      0xef8a9235\n      eq\n      tag_5\n      jumpi\n    tag_1:\n      0x00\n      dup1\n      revert\n        /* \"contracts/CarLoan/User.sol\":438:706  function pay() public payable onlyWhileVacant {\r... */\n    tag_2:\n      tag_6\n      tag_7\n      jump\t// in\n    tag_6:\n      stop\n        /* \"contracts/CarLoan/User.sol\":284:319  mapping(address=>bool) public allot */\n    tag_3:\n      callvalue\n      dup1\n      iszero\n      tag_8\n      jumpi\n      0x00\n      dup1\n      revert\n    tag_8:\n      pop\n      tag_9\n      0x04\n      dup1\n      calldatasize\n      sub\n      dup2\n      add\n      swap1\n      tag_10\n      swap2\n      swap1\n      tag_11\n      jump\t// in\n    tag_10:\n      tag_12\n      jump\t// in\n    tag_9:\n      mload(0x40)\n      tag_13\n      swap2\n      swap1\n      tag_14\n      jump\t// in\n    tag_13:\n      mload(0x40)\n      dup1\n      swap2\n      sub\n      swap1\n      return\n        /* \"contracts/CarLoan/User.sol\":148:168  address public owner */\n    tag_4:\n      callvalue\n      dup1\n      iszero\n      tag_15\n      jumpi\n      0x00\n      dup1\n      revert\n    tag_15:\n      pop\n      tag_16\n      tag_17\n      jump\t// in\n    tag_16:\n      mload(0x40)\n      tag_18\n      swap2\n      swap1\n      tag_19\n      jump\t// in\n    tag_18:\n      mload(0x40)\n      dup1\n      swap2\n      sub\n      swap1\n      return\n        /* \"contracts/CarLoan/User.sol\":177:208  bool public currentStatus=false */\n    tag_5:\n      callvalue\n      dup1\n      iszero\n      tag_20\n      jumpi\n      0x00\n      dup1\n      revert\n    tag_20:\n      pop\n      tag_21\n      tag_22\n      jump\t// in\n    tag_21:\n      mload(0x40)\n      tag_23\n      swap2\n      swap1\n      tag_14\n      jump\t// in\n    tag_23:\n      mload(0x40)\n      dup1\n      swap2\n      sub\n      swap1\n      return\n        /* \"contracts/CarLoan/User.sol\":438:706  function pay() public payable onlyWhileVacant {\r... */\n    tag_7:\n        /* \"contracts/CarLoan/User.sol\":386:391  false */\n      0x00\n        /* \"contracts/CarLoan/User.sol\":371:391  currentStatus==false */\n      iszero\n      iszero\n        /* \"contracts/CarLoan/User.sol\":371:384  currentStatus */\n      0x00\n      0x14\n      swap1\n      sload\n      swap1\n      0x0100\n      exp\n      swap1\n      div\n      0xff\n      and\n        /* \"contracts/CarLoan/User.sol\":371:391  currentStatus==false */\n      iszero\n      iszero\n      eq\n        /* \"contracts/CarLoan/User.sol\":363:410  require(currentStatus==false,\"already Alloted\") */\n      tag_25\n      jumpi\n      mload(0x40)\n      0x08c379a000000000000000000000000000000000000000000000000000000000\n      dup2\n      mstore\n      0x04\n      add\n      tag_26\n      swap1\n      tag_27\n      jump\t// in\n    tag_26:\n      mload(0x40)\n      dup1\n      swap2\n      sub\n      swap1\n      revert\n    tag_25:\n        /* \"contracts/CarLoan/User.sol\":521:528  2 ether */\n      0x1bc16d674ec80000\n        /* \"contracts/CarLoan/User.sol\":509:518  msg.value */\n      callvalue\n        /* \"contracts/CarLoan/User.sol\":508:528  (msg.value)>=2 ether */\n      lt\n        /* \"contracts/CarLoan/User.sol\":505:699  if((msg.value)>=2 ether){\r... */\n      tag_29\n      jumpi\n        /* \"contracts/CarLoan/User.sol\":559:563  true */\n      0x01\n        /* \"contracts/CarLoan/User.sol\":545:558  currentStatus */\n      0x00\n      0x14\n        /* \"contracts/CarLoan/User.sol\":545:563  currentStatus=true */\n      0x0100\n      exp\n      dup2\n      sload\n      dup2\n      0xff\n      mul\n      not\n      and\n      swap1\n      dup4\n      iszero\n      iszero\n      mul\n      or\n      swap1\n      sstore\n      pop\n        /* \"contracts/CarLoan/User.sol\":597:601  true */\n      0x01\n        /* \"contracts/CarLoan/User.sol\":579:584  allot */\n      dup1\n        /* \"contracts/CarLoan/User.sol\":579:596  allot[msg.sender] */\n      0x00\n        /* \"contracts/CarLoan/User.sol\":585:595  msg.sender */\n      caller\n        /* \"contracts/CarLoan/User.sol\":579:596  allot[msg.sender] */\n      0xffffffffffffffffffffffffffffffffffffffff\n      and\n      0xffffffffffffffffffffffffffffffffffffffff\n      and\n      dup2\n      mstore\n      0x20\n      add\n      swap1\n      dup2\n      mstore\n      0x20\n      add\n      0x00\n      keccak256\n      0x00\n        /* \"contracts/CarLoan/User.sol\":579:601  allot[msg.sender]=true */\n      0x0100\n      exp\n      dup2\n      sload\n      dup2\n      0xff\n      mul\n      not\n      and\n      swap1\n      dup4\n      iszero\n      iszero\n      mul\n      or\n      swap1\n      sstore\n      pop\n        /* \"contracts/CarLoan/User.sol\":505:699  if((msg.value)>=2 ether){\r... */\n      jump(tag_30)\n    tag_29:\n        /* \"contracts/CarLoan/User.sol\":645:652  2 ether */\n      0x1bc16d674ec80000\n        /* \"contracts/CarLoan/User.sol\":634:643  msg.value */\n      callvalue\n        /* \"contracts/CarLoan/User.sol\":633:652  (msg.value)<2 ether */\n      lt\n        /* \"contracts/CarLoan/User.sol\":630:699  if((msg.value)<2 ether){\r... */\n      iszero\n      tag_31\n      jumpi\n        /* \"contracts/CarLoan/User.sol\":682:687  false */\n      0x00\n        /* \"contracts/CarLoan/User.sol\":668:681  currentStatus */\n      dup1\n      0x14\n        /* \"contracts/CarLoan/User.sol\":668:687  currentStatus=false */\n      0x0100\n      exp\n      dup2\n      sload\n      dup2\n      0xff\n      mul\n      not\n      and\n      swap1\n      dup4\n      iszero\n      iszero\n      mul\n      or\n      swap1\n      sstore\n      pop\n        /* \"contracts/CarLoan/User.sol\":630:699  if((msg.value)<2 ether){\r... */\n    tag_31:\n        /* \"contracts/CarLoan/User.sol\":505:699  if((msg.value)>=2 ether){\r... */\n    tag_30:\n        /* \"contracts/CarLoan/User.sol\":438:706  function pay() public payable onlyWhileVacant {\r... */\n      jump\t// out\n        /* \"contracts/CarLoan/User.sol\":284:319  mapping(address=>bool) public allot */\n    tag_12:\n      mstore(0x20, 0x01)\n      dup1\n      0x00\n      mstore\n      keccak256(0x00, 0x40)\n      0x00\n      swap2\n      pop\n      sload\n      swap1\n      0x0100\n      exp\n      swap1\n      div\n      0xff\n      and\n      dup2\n      jump\t// out\n        /* \"contracts/CarLoan/User.sol\":148:168  address public owner */\n    tag_17:\n      0x00\n      dup1\n      sload\n      swap1\n      0x0100\n      exp\n      swap1\n      div\n      0xffffffffffffffffffffffffffffffffffffffff\n      and\n      dup2\n      jump\t// out\n        /* \"contracts/CarLoan/User.sol\":177:208  bool public currentStatus=false */\n    tag_22:\n      0x00\n      0x14\n      swap1\n      sload\n      swap1\n      0x0100\n      exp\n      swap1\n      div\n      0xff\n      and\n      dup2\n      jump\t// out\n        /* \"#utility.yul\":7:146   */\n    tag_33:\n        /* \"#utility.yul\":53:58   */\n      0x00\n        /* \"#utility.yul\":91:97   */\n      dup2\n        /* \"#utility.yul\":78:98   */\n      calldataload\n        /* \"#utility.yul\":69:98   */\n      swap1\n      pop\n        /* \"#utility.yul\":107:140   */\n      tag_35\n        /* \"#utility.yul\":134:139   */\n      dup2\n        /* \"#utility.yul\":107:140   */\n      tag_36\n      jump\t// in\n    tag_35:\n        /* \"#utility.yul\":7:146   */\n      swap3\n      swap2\n      pop\n      pop\n      jump\t// out\n        /* \"#utility.yul\":152:481   */\n    tag_11:\n        /* \"#utility.yul\":211:217   */\n      0x00\n        /* \"#utility.yul\":260:262   */\n      0x20\n        /* \"#utility.yul\":248:257   */\n      dup3\n        /* \"#utility.yul\":239:246   */\n      dup5\n        /* \"#utility.yul\":235:258   */\n      sub\n        /* \"#utility.yul\":231:263   */\n      slt\n        /* \"#utility.yul\":228:347   */\n      iszero\n      tag_38\n      jumpi\n        /* \"#utility.yul\":266:345   */\n      tag_39\n      tag_40\n      jump\t// in\n    tag_39:\n        /* \"#utility.yul\":228:347   */\n    tag_38:\n        /* \"#utility.yul\":386:387   */\n      0x00\n        /* \"#utility.yul\":411:464   */\n      tag_41\n        /* \"#utility.yul\":456:463   */\n      dup5\n        /* \"#utility.yul\":447:453   */\n      dup3\n        /* \"#utility.yul\":436:445   */\n      dup6\n        /* \"#utility.yul\":432:454   */\n      add\n        /* \"#utility.yul\":411:464   */\n      tag_33\n      jump\t// in\n    tag_41:\n        /* \"#utility.yul\":401:464   */\n      swap2\n      pop\n        /* \"#utility.yul\":357:474   */\n      pop\n        /* \"#utility.yul\":152:481   */\n      swap3\n      swap2\n      pop\n      pop\n      jump\t// out\n        /* \"#utility.yul\":487:605   */\n    tag_42:\n        /* \"#utility.yul\":574:598   */\n      tag_44\n        /* \"#utility.yul\":592:597   */\n      dup2\n        /* \"#utility.yul\":574:598   */\n      tag_45\n      jump\t// in\n    tag_44:\n        /* \"#utility.yul\":569:572   */\n      dup3\n        /* \"#utility.yul\":562:599   */\n      mstore\n        /* \"#utility.yul\":487:605   */\n      pop\n      pop\n      jump\t// out\n        /* \"#utility.yul\":611:720   */\n    tag_46:\n        /* \"#utility.yul\":692:713   */\n      tag_48\n        /* \"#utility.yul\":707:712   */\n      dup2\n        /* \"#utility.yul\":692:713   */\n      tag_49\n      jump\t// in\n    tag_48:\n        /* \"#utility.yul\":687:690   */\n      dup3\n        /* \"#utility.yul\":680:714   */\n      mstore\n        /* \"#utility.yul\":611:720   */\n      pop\n      pop\n      jump\t// out\n        /* \"#utility.yul\":726:1092   */\n    tag_50:\n        /* \"#utility.yul\":868:871   */\n      0x00\n        /* \"#utility.yul\":889:956   */\n      tag_52\n        /* \"#utility.yul\":953:955   */\n      0x0f\n        /* \"#utility.yul\":948:951   */\n      dup4\n        /* \"#utility.yul\":889:956   */\n      tag_53\n      jump\t// in\n    tag_52:\n        /* \"#utility.yul\":882:956   */\n      swap2\n      pop\n        /* \"#utility.yul\":965:1058   */\n      tag_54\n        /* \"#utility.yul\":1054:1057   */\n      dup3\n        /* \"#utility.yul\":965:1058   */\n      tag_55\n      jump\t// in\n    tag_54:\n        /* \"#utility.yul\":1083:1085   */\n      0x20\n        /* \"#utility.yul\":1078:1081   */\n      dup3\n        /* \"#utility.yul\":1074:1086   */\n      add\n        /* \"#utility.yul\":1067:1086   */\n      swap1\n      pop\n        /* \"#utility.yul\":726:1092   */\n      swap2\n      swap1\n      pop\n      jump\t// out\n        /* \"#utility.yul\":1098:1320   */\n    tag_19:\n        /* \"#utility.yul\":1191:1195   */\n      0x00\n        /* \"#utility.yul\":1229:1231   */\n      0x20\n        /* \"#utility.yul\":1218:1227   */\n      dup3\n        /* \"#utility.yul\":1214:1232   */\n      add\n        /* \"#utility.yul\":1206:1232   */\n      swap1\n      pop\n        /* \"#utility.yul\":1242:1313   */\n      tag_57\n        /* \"#utility.yul\":1310:1311   */\n      0x00\n        /* \"#utility.yul\":1299:1308   */\n      dup4\n        /* \"#utility.yul\":1295:1312   */\n      add\n        /* \"#utility.yul\":1286:1292   */\n      dup5\n        /* \"#utility.yul\":1242:1313   */\n      tag_42\n      jump\t// in\n    tag_57:\n        /* \"#utility.yul\":1098:1320   */\n      swap3\n      swap2\n      pop\n      pop\n      jump\t// out\n        /* \"#utility.yul\":1326:1536   */\n    tag_14:\n        /* \"#utility.yul\":1413:1417   */\n      0x00\n        /* \"#utility.yul\":1451:1453   */\n      0x20\n        /* \"#utility.yul\":1440:1449   */\n      dup3\n        /* \"#utility.yul\":1436:1454   */\n      add\n        /* \"#utility.yul\":1428:1454   */\n      swap1\n      pop\n        /* \"#utility.yul\":1464:1529   */\n      tag_59\n        /* \"#utility.yul\":1526:1527   */\n      0x00\n        /* \"#utility.yul\":1515:1524   */\n      dup4\n        /* \"#utility.yul\":1511:1528   */\n      add\n        /* \"#utility.yul\":1502:1508   */\n      dup5\n        /* \"#utility.yul\":1464:1529   */\n      tag_46\n      jump\t// in\n    tag_59:\n        /* \"#utility.yul\":1326:1536   */\n      swap3\n      swap2\n      pop\n      pop\n      jump\t// out\n        /* \"#utility.yul\":1542:1961   */\n    tag_27:\n        /* \"#utility.yul\":1708:1712   */\n      0x00\n        /* \"#utility.yul\":1746:1748   */\n      0x20\n        /* \"#utility.yul\":1735:1744   */\n      dup3\n        /* \"#utility.yul\":1731:1749   */\n      add\n        /* \"#utility.yul\":1723:1749   */\n      swap1\n      pop\n        /* \"#utility.yul\":1795:1804   */\n      dup2\n        /* \"#utility.yul\":1789:1793   */\n      dup2\n        /* \"#utility.yul\":1785:1805   */\n      sub\n        /* \"#utility.yul\":1781:1782   */\n      0x00\n        /* \"#utility.yul\":1770:1779   */\n      dup4\n        /* \"#utility.yul\":1766:1783   */\n      add\n        /* \"#utility.yul\":1759:1806   */\n      mstore\n        /* \"#utility.yul\":1823:1954   */\n      tag_61\n        /* \"#utility.yul\":1949:1953   */\n      dup2\n        /* \"#utility.yul\":1823:1954   */\n      tag_50\n      jump\t// in\n    tag_61:\n        /* \"#utility.yul\":1815:1954   */\n      swap1\n      pop\n        /* \"#utility.yul\":1542:1961   */\n      swap2\n      swap1\n      pop\n      jump\t// out\n        /* \"#utility.yul\":2048:2217   */\n    tag_53:\n        /* \"#utility.yul\":2132:2143   */\n      0x00\n        /* \"#utility.yul\":2166:2172   */\n      dup3\n        /* \"#utility.yul\":2161:2164   */\n      dup3\n        /* \"#utility.yul\":2154:2173   */\n      mstore\n        /* \"#utility.yul\":2206:2210   */\n      0x20\n        /* \"#utility.yul\":2201:2204   */\n      dup3\n        /* \"#utility.yul\":2197:2211   */\n      add\n        /* \"#utility.yul\":2182:2211   */\n      swap1\n      pop\n        /* \"#utility.yul\":2048:2217   */\n      swap3\n      swap2\n      pop\n      pop\n      jump\t// out\n        /* \"#utility.yul\":2223:2319   */\n    tag_45:\n        /* \"#utility.yul\":2260:2267   */\n      0x00\n        /* \"#utility.yul\":2289:2313   */\n      tag_66\n        /* \"#utility.yul\":2307:2312   */\n      dup3\n        /* \"#utility.yul\":2289:2313   */\n      tag_67\n      jump\t// in\n    tag_66:\n        /* \"#utility.yul\":2278:2313   */\n      swap1\n      pop\n        /* \"#utility.yul\":2223:2319   */\n      swap2\n      swap1\n      pop\n      jump\t// out\n        /* \"#utility.yul\":2325:2415   */\n    tag_49:\n        /* \"#utility.yul\":2359:2366   */\n      0x00\n        /* \"#utility.yul\":2402:2407   */\n      dup2\n        /* \"#utility.yul\":2395:2408   */\n      iszero\n        /* \"#utility.yul\":2388:2409   */\n      iszero\n        /* \"#utility.yul\":2377:2409   */\n      swap1\n      pop\n        /* \"#utility.yul\":2325:2415   */\n      swap2\n      swap1\n      pop\n      jump\t// out\n        /* \"#utility.yul\":2421:2547   */\n    tag_67:\n        /* \"#utility.yul\":2458:2465   */\n      0x00\n        /* \"#utility.yul\":2498:2540   */\n      0xffffffffffffffffffffffffffffffffffffffff\n        /* \"#utility.yul\":2491:2496   */\n      dup3\n        /* \"#utility.yul\":2487:2541   */\n      and\n        /* \"#utility.yul\":2476:2541   */\n      swap1\n      pop\n        /* \"#utility.yul\":2421:2547   */\n      swap2\n      swap1\n      pop\n      jump\t// out\n        /* \"#utility.yul\":2676:2793   */\n    tag_40:\n        /* \"#utility.yul\":2785:2786   */\n      0x00\n        /* \"#utility.yul\":2782:2783   */\n      dup1\n        /* \"#utility.yul\":2775:2787   */\n      revert\n        /* \"#utility.yul\":2799:2964   */\n    tag_55:\n        /* \"#utility.yul\":2939:2956   */\n      0x616c726561647920416c6c6f7465640000000000000000000000000000000000\n        /* \"#utility.yul\":2935:2936   */\n      0x00\n        /* \"#utility.yul\":2927:2933   */\n      dup3\n        /* \"#utility.yul\":2923:2937   */\n      add\n        /* \"#utility.yul\":2916:2957   */\n      mstore\n        /* \"#utility.yul\":2799:2964   */\n      pop\n      jump\t// out\n        /* \"#utility.yul\":2970:3092   */\n    tag_36:\n        /* \"#utility.yul\":3043:3067   */\n      tag_75\n        /* \"#utility.yul\":3061:3066   */\n      dup2\n        /* \"#utility.yul\":3043:3067   */\n      tag_45\n      jump\t// in\n    tag_75:\n        /* \"#utility.yul\":3036:3041   */\n      dup2\n        /* \"#utility.yul\":3033:3068   */\n      eq\n        /* \"#utility.yul\":3023:3086   */\n      tag_76\n      jumpi\n        /* \"#utility.yul\":3082:3083   */\n      0x00\n        /* \"#utility.yul\":3079:3080   */\n      dup1\n        /* \"#utility.yul\":3072:3084   */\n      revert\n        /* \"#utility.yul\":3023:3086   */\n    tag_76:\n        /* \"#utility.yul\":2970:3092   */\n      pop\n      jump\t// out\n\n    auxdata: 0xa2646970667358221220686a9e6a1f8be31d22326ea73ab2d75761b01472b26e7f6490061fb59c065c5364736f6c63430008070033\n}\n",
				"bytecode": {
					"linkReferences": {},
					"object": "608060405260008060146101000a81548160ff02191690831515021790555034801561002a57600080fd5b50336000806101000a81548173ffffffffffffffffffffffffffffffffffffffff021916908373ffffffffffffffffffffffffffffffffffffffff1602179055506103e58061007a6000396000f3fe60806040526004361061003f5760003560e01c80631b9265b8146100445780633ba5172d1461004e5780638da5cb5b1461008b578063ef8a9235146100b6575b600080fd5b61004c6100e1565b005b34801561005a57600080fd5b5061007560048036038101906100709190610257565b6101eb565b60405161008291906102e0565b60405180910390f35b34801561009757600080fd5b506100a061020b565b6040516100ad91906102c5565b60405180910390f35b3480156100c257600080fd5b506100cb61022f565b6040516100d891906102e0565b60405180910390f35b60001515600060149054906101000a900460ff16151514610137576040517f08c379a000000000000000000000000000000000000000000000000000000000815260040161012e906102fb565b60405180910390fd5b671bc16d674ec8000034106101bd576001600060146101000a81548160ff02191690831515021790555060018060003373ffffffffffffffffffffffffffffffffffffffff1673ffffffffffffffffffffffffffffffffffffffff16815260200190815260200160002060006101000a81548160ff0219169083151502179055506101e9565b671bc16d674ec800003410156101e85760008060146101000a81548160ff0219169083151502179055505b5b565b60016020528060005260406000206000915054906101000a900460ff1681565b60008054906101000a900473ffffffffffffffffffffffffffffffffffffffff1681565b600060149054906101000a900460ff1681565b60008135905061025181610398565b92915050565b60006020828403121561026d5761026c61036a565b5b600061027b84828501610242565b91505092915050565b61028d8161032c565b82525050565b61029c8161033e565b82525050565b60006102af600f8361031b565b91506102ba8261036f565b602082019050919050565b60006020820190506102da6000830184610284565b92915050565b60006020820190506102f56000830184610293565b92915050565b60006020820190508181036000830152610314816102a2565b9050919050565b600082825260208201905092915050565b60006103378261034a565b9050919050565b60008115159050919050565b600073ffffffffffffffffffffffffffffffffffffffff82169050919050565b600080fd5b7f616c726561647920416c6c6f7465640000000000000000000000000000000000600082015250565b6103a18161032c565b81146103ac57600080fd5b5056fea2646970667358221220686a9e6a1f8be31d22326ea73ab2d75761b01472b26e7f6490061fb59c065c5364736f6c63430008070033",
					"opcodes": "PUSH1 0x80 PUSH1 0x40 MSTORE PUSH1 0x0 DUP1 PUSH1 0x14 PUSH2 0x100 EXP DUP2 SLOAD DUP2 PUSH1 0xFF MUL NOT AND SWAP1 DUP4 ISZERO ISZERO MUL OR SWAP1 SSTORE POP CALLVALUE DUP1 ISZERO PUSH2 0x2A JUMPI PUSH1 0x0 DUP1 REVERT JUMPDEST POP CALLER PUSH1 0x0 DUP1 PUSH2 0x100 EXP DUP2 SLOAD DUP2 PUSH20 0xFFFFFFFFFFFFFFFFFFFFFFFFFFFFFFFFFFFFFFFF MUL NOT AND SWAP1 DUP4 PUSH20 0xFFFFFFFFFFFFFFFFFFFFFFFFFFFFFFFFFFFFFFFF AND MUL OR SWAP1 SSTORE POP PUSH2 0x3E5 DUP1 PUSH2 0x7A PUSH1 0x0 CODECOPY PUSH1 0x0 RETURN INVALID PUSH1 0x80 PUSH1 0x40 MSTORE PUSH1 0x4 CALLDATASIZE LT PUSH2 0x3F JUMPI PUSH1 0x0 CALLDATALOAD PUSH1 0xE0 SHR DUP1 PUSH4 0x1B9265B8 EQ PUSH2 0x44 JUMPI DUP1 PUSH4 0x3BA5172D EQ PUSH2 0x4E JUMPI DUP1 PUSH4 0x8DA5CB5B EQ PUSH2 0x8B JUMPI DUP1 PUSH4 0xEF8A9235 EQ PUSH2 0xB6 JUMPI JUMPDEST PUSH1 0x0 DUP1 REVERT JUMPDEST PUSH2 0x4C PUSH2 0xE1 JUMP JUMPDEST STOP JUMPDEST CALLVALUE DUP1 ISZERO PUSH2 0x5A JUMPI PUSH1 0x0 DUP1 REVERT JUMPDEST POP PUSH2 0x75 PUSH1 0x4 DUP1 CALLDATASIZE SUB DUP2 ADD SWAP1 PUSH2 0x70 SWAP2 SWAP1 PUSH2 0x257 JUMP JUMPDEST PUSH2 0x1EB JUMP JUMPDEST PUSH1 0x40 MLOAD PUSH2 0x82 SWAP2 SWAP1 PUSH2 0x2E0 JUMP JUMPDEST PUSH1 0x40 MLOAD DUP1 SWAP2 SUB SWAP1 RETURN JUMPDEST CALLVALUE DUP1 ISZERO PUSH2 0x97 JUMPI PUSH1 0x0 DUP1 REVERT JUMPDEST POP PUSH2 0xA0 PUSH2 0x20B JUMP JUMPDEST PUSH1 0x40 MLOAD PUSH2 0xAD SWAP2 SWAP1 PUSH2 0x2C5 JUMP JUMPDEST PUSH1 0x40 MLOAD DUP1 SWAP2 SUB SWAP1 RETURN JUMPDEST CALLVALUE DUP1 ISZERO PUSH2 0xC2 JUMPI PUSH1 0x0 DUP1 REVERT JUMPDEST POP PUSH2 0xCB PUSH2 0x22F JUMP JUMPDEST PUSH1 0x40 MLOAD PUSH2 0xD8 SWAP2 SWAP1 PUSH2 0x2E0 JUMP JUMPDEST PUSH1 0x40 MLOAD DUP1 SWAP2 SUB SWAP1 RETURN JUMPDEST PUSH1 0x0 ISZERO ISZERO PUSH1 0x0 PUSH1 0x14 SWAP1 SLOAD SWAP1 PUSH2 0x100 EXP SWAP1 DIV PUSH1 0xFF AND ISZERO ISZERO EQ PUSH2 0x137 JUMPI PUSH1 0x40 MLOAD PUSH32 0x8C379A000000000000000000000000000000000000000000000000000000000 DUP2 MSTORE PUSH1 0x4 ADD PUSH2 0x12E SWAP1 PUSH2 0x2FB JUMP JUMPDEST PUSH1 0x40 MLOAD DUP1 SWAP2 SUB SWAP1 REVERT JUMPDEST PUSH8 0x1BC16D674EC80000 CALLVALUE LT PUSH2 0x1BD JUMPI PUSH1 0x1 PUSH1 0x0 PUSH1 0x14 PUSH2 0x100 EXP DUP2 SLOAD DUP2 PUSH1 0xFF MUL NOT AND SWAP1 DUP4 ISZERO ISZERO MUL OR SWAP1 SSTORE POP PUSH1 0x1 DUP1 PUSH1 0x0 CALLER PUSH20 0xFFFFFFFFFFFFFFFFFFFFFFFFFFFFFFFFFFFFFFFF AND PUSH20 0xFFFFFFFFFFFFFFFFFFFFFFFFFFFFFFFFFFFFFFFF AND DUP2 MSTORE PUSH1 0x20 ADD SWAP1 DUP2 MSTORE PUSH1 0x20 ADD PUSH1 0x0 KECCAK256 PUSH1 0x0 PUSH2 0x100 EXP DUP2 SLOAD DUP2 PUSH1 0xFF MUL NOT AND SWAP1 DUP4 ISZERO ISZERO MUL OR SWAP1 SSTORE POP PUSH2 0x1E9 JUMP JUMPDEST PUSH8 0x1BC16D674EC80000 CALLVALUE LT ISZERO PUSH2 0x1E8 JUMPI PUSH1 0x0 DUP1 PUSH1 0x14 PUSH2 0x100 EXP DUP2 SLOAD DUP2 PUSH1 0xFF MUL NOT AND SWAP1 DUP4 ISZERO ISZERO MUL OR SWAP1 SSTORE POP JUMPDEST JUMPDEST JUMP JUMPDEST PUSH1 0x1 PUSH1 0x20 MSTORE DUP1 PUSH1 0x0 MSTORE PUSH1 0x40 PUSH1 0x0 KECCAK256 PUSH1 0x0 SWAP2 POP SLOAD SWAP1 PUSH2 0x100 EXP SWAP1 DIV PUSH1 0xFF AND DUP2 JUMP JUMPDEST PUSH1 0x0 DUP1 SLOAD SWAP1 PUSH2 0x100 EXP SWAP1 DIV PUSH20 0xFFFFFFFFFFFFFFFFFFFFFFFFFFFFFFFFFFFFFFFF AND DUP2 JUMP JUMPDEST PUSH1 0x0 PUSH1 0x14 SWAP1 SLOAD SWAP1 PUSH2 0x100 EXP SWAP1 DIV PUSH1 0xFF AND DUP2 JUMP JUMPDEST PUSH1 0x0 DUP2 CALLDATALOAD SWAP1 POP PUSH2 0x251 DUP2 PUSH2 0x398 JUMP JUMPDEST SWAP3 SWAP2 POP POP JUMP JUMPDEST PUSH1 0x0 PUSH1 0x20 DUP3 DUP5 SUB SLT ISZERO PUSH2 0x26D JUMPI PUSH2 0x26C PUSH2 0x36A JUMP JUMPDEST JUMPDEST PUSH1 0x0 PUSH2 0x27B DUP5 DUP3 DUP6 ADD PUSH2 0x242 JUMP JUMPDEST SWAP2 POP POP SWAP3 SWAP2 POP POP JUMP JUMPDEST PUSH2 0x28D DUP2 PUSH2 0x32C JUMP JUMPDEST DUP3 MSTORE POP POP JUMP JUMPDEST PUSH2 0x29C DUP2 PUSH2 0x33E JUMP JUMPDEST DUP3 MSTORE POP POP JUMP JUMPDEST PUSH1 0x0 PUSH2 0x2AF PUSH1 0xF DUP4 PUSH2 0x31B JUMP JUMPDEST SWAP2 POP PUSH2 0x2BA DUP3 PUSH2 0x36F JUMP JUMPDEST PUSH1 0x20 DUP3 ADD SWAP1 POP SWAP2 SWAP1 POP JUMP JUMPDEST PUSH1 0x0 PUSH1 0x20 DUP3 ADD SWAP1 POP PUSH2 0x2DA PUSH1 0x0 DUP4 ADD DUP5 PUSH2 0x284 JUMP JUMPDEST SWAP3 SWAP2 POP POP JUMP JUMPDEST PUSH1 0x0 PUSH1 0x20 DUP3 ADD SWAP1 POP PUSH2 0x2F5 PUSH1 0x0 DUP4 ADD DUP5 PUSH2 0x293 JUMP JUMPDEST SWAP3 SWAP2 POP POP JUMP JUMPDEST PUSH1 0x0 PUSH1 0x20 DUP3 ADD SWAP1 POP DUP2 DUP2 SUB PUSH1 0x0 DUP4 ADD MSTORE PUSH2 0x314 DUP2 PUSH2 0x2A2 JUMP JUMPDEST SWAP1 POP SWAP2 SWAP1 POP JUMP JUMPDEST PUSH1 0x0 DUP3 DUP3 MSTORE PUSH1 0x20 DUP3 ADD SWAP1 POP SWAP3 SWAP2 POP POP JUMP JUMPDEST PUSH1 0x0 PUSH2 0x337 DUP3 PUSH2 0x34A JUMP JUMPDEST SWAP1 POP SWAP2 SWAP1 POP JUMP JUMPDEST PUSH1 0x0 DUP2 ISZERO ISZERO SWAP1 POP SWAP2 SWAP1 POP JUMP JUMPDEST PUSH1 0x0 PUSH20 0xFFFFFFFFFFFFFFFFFFFFFFFFFFFFFFFFFFFFFFFF DUP3 AND SWAP1 POP SWAP2 SWAP1 POP JUMP JUMPDEST PUSH1 0x0 DUP1 REVERT JUMPDEST PUSH32 0x616C726561647920416C6C6F7465640000000000000000000000000000000000 PUSH1 0x0 DUP3 ADD MSTORE POP JUMP JUMPDEST PUSH2 0x3A1 DUP2 PUSH2 0x32C JUMP JUMPDEST DUP2 EQ PUSH2 0x3AC JUMPI PUSH1 0x0 DUP1 REVERT JUMPDEST POP JUMP INVALID LOG2 PUSH5 0x6970667358 0x22 SLT KECCAK256 PUSH9 0x6A9E6A1F8BE31D2232 PUSH15 0xA73AB2D75761B01472B26E7F649006 0x1F 0xB5 SWAP13 MOD 0x5C MSTORE8 PUSH5 0x736F6C6343 STOP ADDMOD SMOD STOP CALLER "
				},
				"gasEstimates": {
					"creation": {
						"codeDepositCost": "199400",
						"executionCost": "48828",
						"totalCost": "248228"
					},
					"external": {
						"allot(address)": "2845",
						"currentStatus()": "2565",
						"owner()": "2533",
						"pay()": "51025"
					}
				},
				"methodIdentifiers": {
					"allot(address)": "3ba5172d",
					"currentStatus()": "ef8a9235",
					"owner()": "8da5cb5b",
					"pay()": "1b9265b8"
				}
			},
			"storageLayout": {
				"storage": [
					{
						"astId": 3,
						"contract": "contracts/CarLoan/User.sol:User",
						"label": "owner",
						"offset": 0,
						"slot": "0",
						"type": "t_address"
					},
					{
						"astId": 6,
						"contract": "contracts/CarLoan/User.sol:User",
						"label": "currentStatus",
						"offset": 20,
						"slot": "0",
						"type": "t_bool"
					},
					{
						"astId": 20,
						"contract": "contracts/CarLoan/User.sol:User",
						"label": "allot",
						"offset": 0,
						"slot": "1",
						"type": "t_mapping(t_address,t_bool)"
					}
				],
				"types": {
					"t_address": {
						"encoding": "inplace",
						"label": "address",
						"numberOfBytes": "20"
					},
					"t_bool": {
						"encoding": "inplace",
						"label": "bool",
						"numberOfBytes": "1"
					},
					"t_mapping(t_address,t_bool)": {
						"encoding": "mapping",
						"key": "t_address",
						"label": "mapping(address => bool)",
						"numberOfBytes": "32",
						"value": "t_bool"
					}
				}
			},
			"userdoc": {
				"kind": "user",
				"methods": {},
				"version": 1
			}
		}
	}
}